:020000040800F2
:10000000D8240020B10200087B2E0008232B000812
:10001000792E000809060008313B000800000000A6
:10002000000000000000000000000000F1010008D6
:100030000B060008000000004D020008CD35000846
:10004000CB020008CB020008CB020008CB0200085C
:10005000CB020008CB020008CB020008CB0200084C
:10006000CB020008CB020008CB020008CB0200083C
:10007000CB020008CB020008CB020008CB0200082C
:10008000CB020008CB020008CB020008CB0200081C
:10009000CB020008CB020008CB020008CB0200080C
:1000A000CB0200085D360008CB020008CB02000836
:1000B000CB020008CB020008CB020008CB020008EC
:1000C000CB020008CB020008CB020008CB020008DC
:1000D000CB020008CB020008CB020008CB020008CC
:1000E000CB020008CB020008CB020008CB020008BC
:1000F000CB020008CB020008CB020008CB020008AC
:10010000CB020008CB020008CB020008CB0200089B
:10011000CB020008CB0200088D360008CB02000895
:10012000CB020008CB020008CB020008CB0200087B
:10013000CB020008CB020008CB020008CB0200086B
:10014000CB020008CB020008CB020008CB0200085B
:10015000CB020008CB020008CB020008CB0200084B
:10016000CB020008CB020008CB020008CB0200083B
:10017000CB020008CB020008CB020008CB0200082B
:10018000CB020008CB020008CB020008CB0200081B
:10019000CB02000800000000CB020008CB020008E0
:1001A000CB020008CB020008CB020008CB020008FB
:1001B000CB020008CB020008CB020008CB020008EB
:1001C000CB020008CB020008CB020008CB020008DB
:1001D000CB020008CB020008DFF810D000F004F9D1
:1001E00000480047ED3D0008AFF30080D824002010
:1001F0002C4B19680868B0E8F04F80F30988BFF30A
:100200006F8F4FF0000080F31188704700000000EE
:1002100008480068006880F308884FF0000080F309
:10022000148862B661B6BFF34F8FBFF36F8F00DFE4
:1002300000BF00BF08ED00E0DFF80C00016841F4EA
:1002400070010160704700BF88ED00E0EFF30980A6
:10025000BFF36F8F134B1A681EF0100F08BF20ED0D
:10026000108A20E9F04F106009B44FF0500080F37D
:100270001188BFF34F8FBFF36F8F04F025FE4FF04F
:10028000000080F3118809BC19680868B0E8F04FD5
:100290001EF0100F08BFB0EC108A80F30988BFF37E
:1002A0006F8F704718000020EFF305807047000043
:1002B0000648804706480047FEE7FEE7FEE7FEE700
:1002C000FEE7FEE7FEE7FEE7FEE7FEE74D36000845
:1002D000D901000840EA01039B0703D009E008C9DF
:1002E000121F08C0042AFAD203E011F8013B00F8FB
:1002F000013B521EF9D27047D2B201E000F8012B47
:10030000491EFBD270470022F6E710B513460A4695
:1003100004461946FFF7F0FF204610BD00F00042EA
:1003200030F000400AD0C10D01F56071C0F3160035
:1003300042EA0151C20840071143704700200146BC
:10034000704701F0004330B421F0004150EA01024F
:1003500006D00A0DA2F56072C1F31301002A02DC77
:1003600030BC00207047440F44EAC104C100E018CB
:1003700030BC00EBC250AFF300800029A8BF70472B
:10038000401C490008BF20F00100704710B4B0FACB
:1003900080FC00FA0CF050EA010404BF10BC704766
:1003A00049B1CCF1200421FA04F411FA0CF118BF80
:1003B000012121430843A3EB0C01CB1D4FEA00614F
:1003C0004FEA102042BF002010BC704700EBC35022
:1003D00010440029A4BF10BC7047401C490008BF4E
:1003E00020F0010010BC7047064C074D06E0E068A5
:1003F00040F0010394E8070098471034AC42F6D36C
:10040000FFF7EEFEA4610008C46100089FED241A06
:10041000B5EE002A45F6A0130021B7EE004AC0F65B
:10042000000320EE010A30EE020ABDEEC01AB5EE5E
:10043000C00A11EE100AF1EE10FA9FED1A1AB8BFB9
:10044000013802EE100AB8EEC22A30EE420A9FEDE1
:10045000162A20EE010ABDEEC01A11EE100A30EE87
:10046000021A0246B1EB502F18BF002202EE102AEA
:1004700003EB8203B1EB502F18BFB0EE410AB8EE88
:10048000421A93ED002A93ED013A30EE410A34EE20
:10049000401A20EE030A21EE021A31EE000A7047DC
:1004A00083F9223E00000044000000C49FED221AA0
:1004B00045F6A0130021B7EE004AC0F6000320EE77
:1004C000010ABDEEC01AB5EEC00A11EE100AF1EE37
:1004D00010FA9FED1A1AB8BF013802EE100AB8EEF2
:1004E000C22A30EE420A9FED162A20EE010ABDEE26
:1004F000C01A11EE100A30EE021A0246B1EB502F6C
:1005000018BF002202EE102A03EB8203B1EB502F3A
:1005100018BFB0EE410AB8EE421A93ED002A93EDEF
:10052000013A30EE410A34EE401A20EE030A21EE81
:10053000021A31EE000A704783F9223E000000449F
:10054000000000C4F8B504460020009020688168CF
:1005500011F0010F4AD18168254A114237D18168D3
:10056000D5432940491C81602068B0F1A04F02D0DA
:100570002049884201D1204800E02048806800F0EE
:10058000E07000020DD51E481E490068B0FBF1F076
:10059000401C00EB4000800000E0401E009000285E
:1005A000FBD100F0B5FE06461BE0816811F0010F9B
:1005B00003D181682940491C816000F0A9FE801B9D
:1005C00002280ED920680068C043C00709D0E06D3A
:1005D00040F01000E065206E40F001002066012030
:1005E000F8BD20680168C943C907DED10020F8BD05
:1005F0003F00008000010050000300500007005041
:1006000014000020400D0300FEE7704772B6FEE7BD
:1006100030EE203AF6EE003A30EEC00A00F1240146
:1006200023EE233A80ED073A80ED080AC0ED022A56
:1006300081EC031A704700002DE9F84F4FF00009D4
:100640000446CDF800900D4694F85820DFF8EC836E
:1006500061694F464846012A0AD00126F84A84F8C3
:10066000586041B1296A012905D0A36EEBB129E098
:100670000220BDE8F88F6868092838D1A96A4FF4CC
:10068000785041B12B6801F07C0100EA53400843E7
:10069000E96A084302E0296800EA51402368D96CFE
:1006A00011400143D964606621E0C4E91971A96A67
:1006B000286A31B101F07C01401E0843E96A084311
:1006C00000E0401E29682B79C1F3846103F01F0309
:1006D00099400143A06E401EA066636E43EA010389
:1006E000636604D12168C86C10401843C864206850
:1006F00002F022FA58B995F8250098B12068C1682F
:1007000095F8262021F4401141EA4251C160206849
:1007100002F01AFA8246206802F00EFA5AEA000045
:100720000DD0FCE095F8260095F82410400540EA2D
:1007300001512068C26822F440121143E6E7A86A1A
:1007400030B1E86A20B195F8250001285ED003E0B9
:1007500095F82500012804D02068C16821F00071B7
:1007600003E02068C16841F00071C16095F8300075
:10077000012852D02068016921F002010161AA68B4
:1007800029682068B2F1004F38D002F0E1F9206802
:10079000416921F00041416120686969C268C2F382
:1007A000C102520091402A69042A45D000EB820020
:1007B0002B68026EDFF88CC203F0F84302EA0C02E9
:1007C0000B431A4342F00041016620682A69A96977
:1007D00000EB8200026E22F080720A430266297FDB
:1007E00022682869012924D05FF0000102EB800013
:1007F000026E22F000720A43026690E0002202F0CC
:10080000A7F92068416941F00041C4E7E06D40F07C
:100810002000E0654FF00109A8E7D5E90D01084384
:1008200021680A6922F4FF7242F002021043086153
:10083000A5E74FF00071D9E7002102F073F94003FA
:1008400020684FF0000172D002F06CF990FAA0F02D
:10085000B0FA80F1286842036ED090FAA0F0B0FAA6
:1008600080F0814204D100221146206802F07FF915
:100870000121206802F056F9400320684FF0010181
:100880005DD002F04FF990FAA0F0B0FA80F128683C
:10089000420359D090FAA0F0B0FA80F0814204D11E
:1008A00000220121206802F062F90221206802F092
:1008B00039F9400320684FF0020148D002F032F9C4
:1008C00090FAA0F0B0FA80F12868420344D090FA80
:1008D000A0F0B0FA80F0814204D100220221206809
:1008E00002F045F90321206802F01CF9400320685A
:1008F0004FF0030133D002F015F990FAA0F0B0FAEE
:1009000080F1286842032FD090FAA0F0B0FA80F06E
:10091000814204D100220321206802F028F92068D6
:10092000816811F0010F22D0B5E000E004E002F090
:10093000F9F8C0F384618DE7C0F3846091E702F0B9
:10094000F1F8C0F38461A2E7C0F38460A6E702F087
:10095000E9F8C0F38461B7E7C0F38460BBE702F055
:10096000E1F8C0F38461CCE7C0F38460D0E72A7B70
:10097000296850F8B03FC1F3120C23EA0C0302F0CF
:10098000180C314A22FA0CF20A4013430360E9685A
:1009900041457DD1286841031BD090FAA0F1B1FAFE
:1009A00081F1491C01F01F0109294FEA403131D87A
:1009B000002911D090FAA0F1B1FA81F101F1010101
:1009C00001F01F0106FA01F609D100BFC0F38461EE
:1009D00009E0C0F38461E4E7C0F38461EEE790FAD4
:1009E000A0F1B1FA81F101F1010101F01F0146EA24
:1009F000816102D1C0F3846003E090FAA0F0B0FA04
:100A000080F000F1010000F01F0000EB400041EA1F
:100A100000513AE000290ED090FAA0F1B1FA81F12C
:100A200001F1010101F01F0106FA01F60ED100BF2C
:100A3000C0F384610EE0C0F38461F1E700007F4001
:100A40000040100400F0FF03FFFF070090FAA0F140
:100A5000B1FA81F101F1010101F01F0146EA816162
:100A600002D1C0F3846003E090FAA0F0B0FA80F005
:100A700000F1010000F01F003A4A00EB400002EBD9
:100A8000005041EA000141F00071AA68206800E0CE
:100A900001E002F05DF834482B6803425ED0226822
:100AA0004FF0A04C3148324E324D624501D0AA423F
:100AB00001D1014600E031468968DFF8BC8001F0D1
:100AC000E071434503D0DFF8B480434520D15FEAAD
:100AD00001281DD4624505D0294B9A423ED1AA4235
:100AE00000D0304641F40001826822F0E0720A43EF
:100AF0008260244824490068B0FBF1F0801C00EBC0
:100B00004000800000E0401E00900028FBD125E05E
:100B1000DFF8788043450FD15FEAC1180CD4AA42B0
:100B200002D11B4B9A4219D0624502D0AA4200D092
:100B3000304641F080710CE0DFF8588043450DD11C
:100B40004B020BD4AA4209D0624500D0304641F492
:100B50008001826822F0E0720A43826084F8587053
:100B6000484686E5000020FE000008800003005093
:100B70000007005000010050000021C31000C09089
:100B80000006005014000020400D0300000052C772
:100B900000050050000084CB2DE9F04104460068B8
:100BA0004FF0A0453E4FA84201D0B84201D13D4987
:100BB00000E03D49896801F01F0601F0BDFF08BB58
:100BC0002168C868C96C00F0004011F4C07F00D1F2
:100BD00090B194F85800012814D0012084F85800EE
:100BE0002046FFF7AFFC01004FF000020CD084F864
:100BF00058200846BDE8F081E06D40F02000E06537
:100C00000120F7E70220F5E7E06DC00504D5206E6E
:100C100020F00800206600E02266E06D42F2010349
:100C2000984340F48050E0652068204BDFF880C096
:100C3000B84201D1AE4604E0984201D1E64600E058
:100C40008646864500D02EB9D4F85CE02EF4801E8E
:100C5000C4F85CE04FF0600EC0F800E084F8582063
:100C60002068B84204D0984201D1654600E00546AC
:100C7000854209D046B1062E06D0072E04D0E06D7D
:100C800040F48010E065B4E7C26812F0007FB0D194
:100C90008268084B1A4042F008028260A9E700000F
:100CA00000010050000300500007005000050050F4
:100CB00000040050C0FFFF7F2DE9F04F044690F87C
:100CC00058009BB00F464FF0000B012812D00120B6
:100CD00084F8580000261796189620684FF0A04810
:100CE000DFF81C91DFF81CA1474D404506D128468E
:100CF000009508E002201BB0BDE8F08F48450AD1FE
:100D00005046CDF800A001F01FFF0090206801F0D0
:100D10001BFF40B109E0E06D40F02000E06584F881
:100D200058600120E7E7009850B1E06D40F02000E6
:100D3000E0654FF0010B00BF84F858605846DAE7D1
:100D400020684146884201D0A84201D12F4800E0E6
:100D50002F48D7F800C02F4B40F61F72BCF1000F90
:100D60002DD0D0F808C094F838802CF4604C4CEAB0
:100D7000483CD7F804804CEA080CC0F808C0D4F806
:100D800000C08C4501D0AC4504D18968AB6801F046
:100D9000010109E0D9F80810DAF8085001F0010162
:100DA00005F001059B68294303F001031943C3D1F2
:100DB000BB68396819438368934319431DE087680A
:100DC00027F46047876027688F4201D0AF4204D183
:100DD0008968AB6801F0010109E0D9F80810DAF878
:100DE000085001F0010105F001059B68294303F05B
:100DF00001031943A0D18168914381609CE7000001
:100E00000004005000050050000100500003005095
:100E10000007005000060050F8B54FF00005040030
:100E20002E46009502D0E06D10B107E00120F8BD1C
:100E3000204600F009F9266684F858602068816829
:100E4000C1F3407119B18168734A11408160206813
:100E50008168C1F3007189B98168704A114041F01D
:100E6000805181606E486F490068B0FBF1F040002E
:100E7000801C00E0401E00900028FBD120688168A3
:100E8000C1F3007141B9E16D41F01001E165216EDE
:100E900041F001012166012501F052FEE16DC90614
:100EA00000D430B1E06D40F01000E0650125284627
:100EB000F8BDE06D20F4807040F00200E06520682D
:100EC000816811F0010F27D14FF0A043564A984294
:100ED00001D0904204D19968966801F001010AE0BE
:100EE00052498968524E01F00101B66806F00106C8
:100EF0003143504EB66806F0010631430CD198429A
:100F000001D0904201D14C4800E04C4861688268B1
:100F100022F47C120A438260E168E06B627F08433E
:100F2000A16841EA4231084394F8241040EA0140A4
:100F3000012904D1218D424A02EB41410843E16A73
:100F400029B101F47871226B014342EA0100226861
:100F5000D1683C4B19400143D16020680169626B44
:100F600021F0406111430161206801F0E1FD70BB97
:100F7000207F94F838102268800340EA4100D1684D
:100F800044F2020399430143D1602069002820689C
:100F900001690AD041F480310161206850F8C01F16
:100FA00022696FF30D01114307E021F480310161E3
:100FB000206850F8C01F6FF30D01016094F84000E5
:100FC00001280CD02068016921F0010101616069EC
:100FD00001282068016B21F00F0111D013E0D4E942
:100FE00011010843D4E913121143084321680A6927
:100FF00040F2FC739A43104340F001000861E6E7B9
:10100000226A521E11430163E06D20F0020040F09D
:101010000100E0654BE70000C0FFFF5FC0FFFF7FFE
:1010200014000020400D0300000100500004005097
:10103000000500500006005000030050000700505B
:101040000000FEFF0740F0FF10B59CB004461421DD
:1010500015A8FFF758F954216846FFF754F920689E
:10106000B0F1A04F26D14FF40040009080031190C2
:10107000684600F073FA08B1FFF7C8FA0E48C16C71
:1010800041F40051C164C16C01F400511A91C16C6A
:1010900041F00101C164C06C15A900F001001A9073
:1010A0000720159003201690002017904FF09040D5
:1010B00000F004F81CB010BD001002402DE9F04F04
:1010C000DFF82092002301260324A9F1040B85B048
:1010D0000F2709F1040AABF1040EFAE006FA03F552
:1010E0002A407CD091F804C00CF0030CBCF1010F35
:1010F00002D0BCF1020F26D1D0F808C0CDF800C054
:101100004FEA430C04FA0CF8CDF810C0DDF800C02B
:101110002CEA080CCDF800C0D1F80C80DDF810C026
:1011200008FA0CF8DDF800C048EA0C08C0F808809E
:10113000D0F804C02CEA050C0D79C5F300159D40CC
:1011400045EA0C0545600D79ED43AD070ED0C56845
:101150004FEA430804FA08FC25EA0C05D1F808C058
:101160000CFA08FC4CEA050CC0F80CC00D7905F02F
:101170000305022D16D1DD0800EB850CCDF808C063
:10118000DCF820805D074FEAD56C07FA0CF528EAF9
:1011900005080D6905FA0CF5DDF808C045EA0805F3
:1011A000CCF8205005684FEA430CCDF808C004FA8B
:1011B0000CFC25EA0C0591F804C00CF00308DDF8DE
:1011C00008C008FA0CF848EA0508C0F800804D6825
:1011D00015F4403F7CD0444DD5F860C000E077E086
:1011E0004CF0010CC5F860C02D6E23F0030C05F027
:1011F000010500953D4D65440295AD684FEA837C3D
:101200004FEA1C7807FA08FC25EA0C05B0F1904F6C
:1012100006D0DFF8DCC0604505D14FF0010C20E0BE
:101220004FF0000C1DE0DFF8CCC0604502D14FF05C
:10123000020C16E0DFF8C0C0604502D14FF0030C8D
:101240000FE0DFF8B8C0604502D14FF0040C08E0B1
:10125000DFF8ACC0604502D14FF0050C01E04FF063
:10126000060C0CFA08FC4CEA050C029DC5F808C0F7
:10127000D9F80050CC46D1F8048095435FEAC828DD
:1012800000D51543CCF80050DAF80050D446D1F818
:10129000048095435FEA882800D51543CCF80050B8
:1012A000DBF80050DC46D1F8048095435FEA8838CB
:1012B00000D51543CCF80050DEF80050F446D1F8C4
:1012C000048095435FEAC83800D51543CCF8005038
:1012D0005B1C0A6832FA03F57FF400AF05B0BDE885
:1012E000F08F00000804014000100240000001409F
:1012F0000004004800080048000C004800100048A6
:10130000001400480AB18161704781627047000093
:10131000014880687047000008000020024881688A
:1013200042681144816070470800002010B5002415
:10133000032000F09BF80F2000F008F808B101240A
:1013400001E000F047F8204610BD000030B505462A
:101350001B4887B0816D41F010018165806D06A941
:1013600000F01000009001A800F066FB00F084FB84
:101370001449154AB0FBF1F11448491E026041605E
:1013800040F2E7320021C0E90321816001F0BBF89F
:10139000040012D10D4801F0E9F804000DD1362007
:1013A00000F036F8102D07D200222946362000F032
:1013B0003DF80748056000E0012407B0204630BD35
:1013C0000010024040420F0000100040D4010020F5
:1013D000080000200D4808B5016E41F001010166CA
:1013E000016E01F001010091816D41F08051816534
:1013F000806D002200F0805000900F21901E00F0C0
:1014000015F8BDE8084000F0A1B800000010024047
:10141000002809DB00F01F020121914040098000F3
:1014200000F1E020C0F8001170470000F0B40E4B4E
:101430001B680C46C3F30223C3F10705042D00D932
:101440000425191D072901D2002300E0DB1E012617
:1014500006FA05F1491E214099409E40761E16402D
:101460003143F0BC02F065BB0CED00E0064900F032
:10147000070208684FF6FF03184040EA0220034ABB
:1014800010430860704700000CED00E00000FA0512
:101490002B492C4B0A6832214A432B4940B1B0F505
:1014A000007F086829D020F4C06040F480602CE000
:1014B0000868C0F34120022804D051F8800F20F4BE
:1014C000807022E0D1F8800020F48070C1F88000A4
:1014D000086820F4C06040F400700860B2FBF3F0CC
:1014E000401C00E0401E4A69520501D50028F9D190
:1014F000486940050AD503207047C0F341200228FF
:1015000006D051F8800F40F48070086000207047CA
:10151000D1F8800040F48070C1F88000086820F4A1
:10152000C06040F400700860B2FBF3F0401C00E0C3
:10153000401E4A695205DBD50028F9D1D8E70000E2
:101540001400002040420F000070004002488168F3
:1015500041F4804181607047007000402DE9F843FC
:10156000044600680026BB4D00035ED5A86D002729
:10157000C00008D4A86D40F08050A865A86D012770
:1015800000F080500090DFF8D092D9F8001041F4BC
:101590008071C9F80010FFF7BBFE804606E000BF6F
:1015A000FFF7B6FEA0EB080002282BD8D9F8000000
:1015B000C005F5D5D5F8900010F4407014D0216D19
:1015C000814211D0D5F89000D5F8901020F44070E9
:1015D00041F48031C5F89010D5F8901021F4803195
:1015E000C5F89010C5F89000C00711D0FFF790FE25
:1015F000804641F2883907E0FFF78AFEA0EB080138
:10160000494501D903260BE0D5F890008007F3D5B2
:10161000D5F89000216D20F440700843C5F8900083
:101620001FB1A86D20F08050A8652078C00707D0B2
:10163000D5F88800616820F003000843C5F88800E9
:101640002078800707D5D5F88800A16820F00C0025
:101650000843C5F888002078400707D5D5F88800EA
:10166000E16820F030000843C5F8880020780007C2
:1016700007D5D5F88800216920F0C0000843C5F8D7
:1016800088002078C00607D5D5F88800616920F465
:1016900040700843C5F888002078800607D5D5F843
:1016A0008800A16920F440600843C5F888002078CC
:1016B000400607D5D5F88800E16920F4405008437A
:1016C000C5F888002078000607D5D5F88800216A7B
:1016D00020F440400843C5F888002088C00507D59D
:1016E000D5F88800616A20F440300843C5F88800C6
:1016F0002068800307D5D5F89C00A16A20F003007C
:101700000843C5F89C002088800507D5D5F88800D7
:10171000E16A20F440200843C5F88800208840058D
:101720000FD5D5F88800216B20F440100843C5F888
:101730008800206BB0F5801F03D1E86840F480106A
:10174000E860208800050FD5D5F88800616B20F48B
:1017500040000843C5F88800606BB0F5800F03D1E6
:10176000E86840F48010E8602088C0040FD5D5F800
:101770008800A16B20F040700843C5F88800A06B7A
:10178000B0F1807F03D1E86840F48010E8602088E1
:101790004FF0006180040ED5D5F88800E26B20F090
:1017A00040601043C5F88800E06B884203D1E868C8
:1017B00040F48010E860208840040ED5D5F88800F9
:1017C000226C20F040601043C5F88800206C8842ED
:1017D00003D1E86840F48010E860208800040FD549
:1017E000D5F88800616C20F040500843C5F88800A7
:1017F000606CB0F1805F03D1E86840F48030E8604D
:101800002068C0030FD5D5F88800A16C20F04040B7
:101810000843C5F88800A06CB0F1804F03D1E86898
:1018200040F48030E860206840030FD5D5F89C0074
:10183000E16C20F440100843C5F89C00E06CB0F562
:10184000001F03D1E86840F48010E8603046BDE82E
:10185000F883000000100240007000402DE9F047BE
:101860000E4605004FF0000725D0DFF8AC81D8F810
:10187000000000F00F00B0420CD2D8F8001021F0A8
:101880000F013143C8F80010D8F8000000F00F0035
:10189000B04210D12968614CC80741F2883A5AD049
:1018A0006868DFF87C91032808D0022820682DD0D2
:1018B000400500282CDB0120BDE8F087206880016E
:1018C000F9D5E06800F00302E068C0F30310401CA3
:1018D000032A19D0534A00BFB2FBF0F0E268C2F30A
:1018E00006225043E268C2F34162521C5200B0FB30
:1018F000F2F0484517D9A06810F0F00F0CD0880717
:1019000011D5A86840B10EE0474AE5E78003D0E76B
:1019100000F0C4F8484506D9A06820F0F00040F077
:101920008000A0608027A068696820F00300084359
:10193000A060FFF7EDFC814606E000BFFFF7E8FC82
:10194000A0EB090151453AD8A068696800F00C0085
:10195000B0EB810FF2D12868810714D5400703D579
:10196000A06840F4E060A0602878000705D5A06872
:1019700020F4605040F4E060A060A068A96820F006
:10198000F000084304E0802F03D1A06820F0F000AD
:10199000A060D8F80010404601F00F01B14216D9FE
:1019A000016821F00F0131430160FFF7B1FC0746E8
:1019B00007E000BFFFF7ACFCC11B514501D9032074
:1019C0007AE7D8F8000000F00F00B042F2D1287892
:1019D000400705D5A068E96820F4E0600843A060EE
:1019E0002878000706D5A068296920F4605040EAED
:1019F000C100A06000F052F8A1680C4AC1F30311C5
:101A0000515C01F01F01C84009490860094800689D
:101A1000BDE8F047FFF79ABC0020024000100240EA
:101A200000B4C4040024F40000127A006C590008C9
:101A300014000020080000200F2202600C4A936866
:101A400003F003034360936803F0F003836093683B
:101A500003F4E063C36092684FF4E06303EAD202E8
:101A600002610448006800F00F0008607047000041
:101A700000100240002002400548064900688968BD
:101A8000054AC1F30221515C01F01F01C8407047B3
:101A900014000020001002407C590008184910B5BD
:101AA0008868C0F381021748012A0BD08A68431066
:101AB000C2F38102022A06D08A68C2F38102032A95
:101AC00003D0002010BD184610BDCA6802F0030400
:101AD000CA68C2F30312521C032C02D0B0FBF2F00E
:101AE00001E0B3FBF2F0CA68C968C2F306225043B2
:101AF000C1F34161491C4900B0FBF1F010BD000089
:101B0000001002400024F4002DE9F84304007AD0CC
:101B10002078F84DC00747D0A868E96800F00C00AD
:101B200001F003010C2802D0082817D001E0032996
:101B300014D06068B0F5803F17D0B0F5A02F2868AA
:101B400017D020F480302860286820F48020286096
:101B50006068E0B1FFF7DCFB064614E0286880030C
:101B600022D560680028D2D01EE0286840F480307A
:101B7000EDE740F480202860F7E700BFFFF7C8FBDF
:101B8000801B642870D828688003F7D50CE0FFF725
:101B9000BFFB064605E000BFFFF7BAFB801B6428C9
:101BA000F0D828688003F7D4207880074CD5A8683F
:101BB000E96800F00C0001F003010C2802D00428B1
:101BC0000DD001E002290AD0E068002828682BD057
:101BD00040F480702860FFF79BFB064619E02868F8
:101BE000400502D5E068002891D06868217C20F08B
:101BF000FE4040EA01606860BF480068FFF7A6FB4E
:101C0000002800D120E072E1FFF782FB801B022850
:101C1000B8D828684005F7D56868217C20F0FE40D8
:101C200040EA016068600FE020F480702860FFF7F0
:101C30006FFB064605E000BFFFF76AFB801B02282A
:101C4000A0D828684005F7D42078000729D5606916
:101C50000028D5F8940013D040F00100C5F8940096
:101C6000FFF756FB064606E090E000BFFFF750FB8B
:101C7000801B022886D8D5F894008007F6D510E09E
:101C800020F00100C5F89400FFF742FB064604E08F
:101C9000FFF73EFB801B022878D8D5F89400800718
:101CA000F6D42078400761D5A86D0026C00008D47E
:101CB000A86D40F08050A865A86D012600F0805006
:101CC00000908E480168C90511D40168804641F42E
:101CD00080710160FFF71CFB074604E0FFF718FB6B
:101CE000C01B022852D8D8F80000C005F6D5A0685D
:101CF000012815D00528D5F8900016D020F0010055
:101D0000C5F89000D5F8900020F00400C5F89000C8
:101D1000A06841F28838B8B1FFF7FAFA07460EE03A
:101D2000D5F8900040F00100F0E740F00400C5F85D
:101D30009000F5E7FFF7ECFAC11B414526D8D5F82E
:101D400090008007F6D50CE0FFF7E2FA074604E0C2
:101D5000FFF7DEFAC11B414518D8D5F8900080077F
:101D6000F6D41EB1A86D20F08050A86520788006BA
:101D700029D5A0690028D5F8980013D040F00100BB
:101D8000C5F89800FFF7C4FA064606E075E000BF04
:101D9000FFF7BEFA801B02286FD8D5F8980080079D
:101DA000F6D510E020F00100C5F89800FFF7B0FA72
:101DB000064604E0FFF7ACFA801B02285DD8D5F890
:101DC00098008007F6D4E069F0B3A968C1F38101F7
:101DD00003295DD00228286820F08070286003D095
:101DE000FFF796FA04464BE0FFF792FA064604E046
:101DF000FFF78EFA801B02283FD828688001F7D4AD
:101E0000F4E908016FF00F0202EB01110843218A87
:101E10005204490802EB4151A26841EA02210843F9
:101E2000217D4FF07E42490802EB41610843217B4E
:101E300040EAC160E968324A11400843E860286816
:101E400040F08070286000E05EE0E86840F080705C
:101E5000E860FFF75DFA044605E000BFFFF758FAB7
:101E6000001B022809D828688001F7D54CE000BF84
:101E7000FFF74EFA001B022802D90320BDE8F883C1
:101E800028688001F4D4E8681E490840E8603BE017
:101E90000128F3D0E868226A00F00301914226D1BC
:101EA000616A00F0F0020901103991421FD1A26A63
:101EB00000F4FE41B1EB022F19D194F82C2000F070
:101EC0007841B1EBC26F12D1218E00F4C0024908F3
:101ED0004905A1F50011914209D194F8341000F0A0
:101EE000C06049084906A1F1007181420CD001206F
:101EF000C4E700000010024008000020007000400D
:101F00000C809F01FCFFEEFE0020B7E770B50400D7
:101F100009D0606A002540B125616561A56294F829
:101F20005D0040B10CE0012070BD6068B0F5827FBB
:101F3000F4D0E561F2E784F85C50204600F05CF8EC
:101F4000022084F85D002068016821F040010160F2
:101F5000E1684FF4E062914201D9002001E04FF4C2
:101F60008050B1F5706F02D0914200D0A562A18877
:101F7000228901F4827102F404421143227C02F0AE
:101F800002021143227D02F001021143228B02F46E
:101F900000721143227F02F03802114394F820208E
:101FA00002F080021143228D02F400521143226894
:101FB0001160A169042202EA114194F8242000F47E
:101FC000805002F01002114394F8342002F008020D
:101FD0001143A28902F470621143014320684160F9
:101FE0002068C16921F40061C1612566012084F87F
:101FF0005D00002070BD000010B586B004461421BD
:102000006846FEF780F91249206888421DD11148C0
:10201000016E41F480510166016E01F48051059119
:10202000C16C41F00201C164C06C694600F002005D
:10203000059038200090022001900020029003902B
:10204000052004900448FFF739F806B010BD0000E1
:102050000030014000100240000400482DE9FF5FFD
:10206000044690F85C0000260E9F1D4693464FF0F4
:10207000010901280FD04FF0010A84F85CA0FFF796
:1020800047F9804694F85D00616801280DD0B1F5EC
:10209000827F08D103E0022004B0BDE8F09FA16870
:1020A00009B9042801D0022609E10198002876D058
:1020B000BBF1000FFBD0002DF9D094F85D0004288F
:1020C00002D0052084F85D0000202066C4F840B0EE
:1020D000A4F84650A4F844500199A163E587A58768
:1020E000E0642065E0684FF4E061884201D8012D8A
:1020F00004D92068426822F4805203E020684268D4
:1021000042F48052426020680268520603D402689A
:1021100042F040020260E0688842606848D908B135
:10212000012D3DD1A06B21680088C860A06B801C88
:10213000A063E08F401EE08732E020688168890755
:102140000FD5E18F69B1B9F1010F0AD1A16B0988EF
:10215000C160A06B801CA063E08F401EE0874FF041
:10216000000920688168C9070FD0B4F8461061B132
:10217000C068216C0880206C801C2064B4F8460084
:10218000401EA4F846004FF00109FFF7C1F8A0EB8C
:102190000800B84204D3781C02D003268DE08AE000
:1021A000E08F0028C9D1B4F846000028C5D177E0F7
:1021B00008B1012D6DD1E08F0128A06B08D92168ED
:1021C0000088C860A06B801CA063E08F801E07E0C1
:1021D000216800780873A06B401CA063E08F401E4C
:1021E000E08756E02068816889071AD5E18FC1B180
:1021F000B9F1010F15D1E18F0129A16B07D9098828
:10220000C160A06B801CA063E08F801E06E009788F
:102210000173A06B401CA063E08F401EE0874FF06D
:10222000000920688168C90728D0B4F8461029B38E
:10223000B4F84610012914D9C068216C0880206CBC
:10224000801C2064B4F84600801EA4F84600B4F850
:102250004600012810D82068416841F4805141604F
:102260000AE0007B216C0870206C401C2064B4F8EC
:102270004600401EA4F846004FF00109FFF748F859
:10228000A0EB0800B84202D3781C02D085E7002FEB
:1022900083D0E08F0028A5D1B4F846000028A1D152
:1022A00042463946204600F09FFF10B1012620200B
:1022B0002066206E08B1012601E084F85DA00020B0
:1022C00084F85C003046E7E67047704770470000CE
:1022D00030B590F83C20012A45D0012280F83C20FE
:1022E000CA688B6822F440721A434B6822F48062F9
:1022F0001A430B6822F400621A430B6922F48052DD
:102300001A434B6922F400521A430B6B22F48042A9
:102310001A430B8B22F4702242EA0342CB6922F06B
:1023200080521A43114D03680024AB4205D0104D72
:10233000AB4202D00F4DAB4210D10D8D22F4700292
:1023400042EA05520D6A22F080722A434D6A22F059
:1023500000722A43C96A22F000520A435A6480F884
:102360003C40002030BD022030BD0000002C014068
:102370000034014000500140704770477047000032
:10238000F0B590F83C20012A43D0012580F83C505C
:10239000022280F83D2003685A689C681E4E1F4F39
:1023A000DFF87CC0B34203D0BB4201D0634504D107
:1023B00022F4700E4A6842EA0E02DFF868E002EA90
:1023C0000E02D1F800E04EEA020EC3F804E0026803
:1023D000B24212D0B2F1804F0FD0134B9A420CD0C0
:1023E000124B9A4209D0124B9A4206D0BA4204D0FC
:1023F000104B9A4201D0624504D1896824F08003D1
:102400001943916080F83D50002180F83C10084647
:10241000F0BD0220F0BD0000002C0140003401405E
:10242000005001408FFFFFFD000400400008004005
:10243000000C00400040014010B50446022249B1A2
:1024400004290ED0082913D094F84700012816D08B
:10245000012010BD94F844000128F9D184F84420EB
:102460000FE094F845000128F2D184F8452008E0F7
:1024700094F846000128EBD184F8462001E084F866
:1024800047200422206801F086F92068416C41F45D
:102490000041416413492068884214D0B0F1804F54
:1024A00011D0114988420ED0104988420BD01049F2
:1024B000884208D00F49884205D00F49884202D08F
:1024C0000E49884207D181680D4A1140062906D07D
:1024D000B1F5803F03D0016841F0010101600020A7
:1024E00010BD0000002C0140000400400008004026
:1024F000000C004000340140004001400050014009
:1025000007000100704710B5040003D094F83D00A7
:1025100010B107E0012010BD002084F83C002046E7
:1025200000F022F8022084F83D00211D206801F00F
:10253000B3F8012084F8480084F83E0084F83F0096
:1025400084F8400084F8410084F8420084F8430095
:1025500084F8440084F8450084F8460084F8470075
:1025600084F83D00002010BD7047000090F83D1039
:10257000012901D001207047022180F83D10016837
:10258000CA6842F00102CA6000681349884214D048
:10259000B0F1804F11D0114988420ED010498842C5
:1025A0000BD01049884208D00F49884205D00F4906
:1025B000884202D00E49884207D181680D4A1140F5
:1025C000062906D0B1F5803F03D0016841F0010132
:1025D0000160002070470000002C01400004004012
:1025E00000080040000C0040003401400040014061
:1025F000005001400700010070472DE9F0410446FA
:102600000068C66805694FF00007A90713D5B10730
:1026100011D5F91E016101202077206880698007AB
:10262000204602D0FFF7E8FF04E000F001F9204661
:1026300000F0E0F92777680716D5700714D52168F0
:102640006FF004000861022020772068806910F490
:10265000407F204602D0FFF7CFFF04E000F0E8F80B
:10266000204600F0C7F92777280715D5300713D57E
:1026700021686FF008000861042020772068C06995
:102680008007204602D0FFF7B7FF04E000F0D0F843
:10269000204600F0AFF92777E80616D5F00614D5E6
:1026A00021686FF010000861082020772068C06959
:1026B00010F4407F204602D0FFF79EFF04E000F0B8
:1026C000B7F8204600F096F92777E80708D0F0071A
:1026D00006D021686FF001000861204600F016FA6C
:1026E000280601D4A80408D5300606D521686FF461
:1026F000025008612046FFF7E8FDE80508D53006DE
:1027000006D521686FF4807008612046FFF7DCFD74
:10271000680608D5700606D521686FF0400008618C
:10272000204600F0FDF9A80608D5B00606D52168B8
:102730006FF0200008612046FFF7C8FDE80208D5C9
:10274000F00206D521686FF4801008612046FFF77B
:1027500014FEA80208D5B00206D521686FF4001057
:1027600008612046FFF708FE680208D5700206D50A
:1027700021686FF4800008612046FFF7FFFD280202
:102780000AD5300208D521686FF4000008612046A0
:10279000BDE8F041FFF7B6BEBDE8F081F0B587B007
:1027A000044614216846FDF7AEFD1E4920688842A4
:1027B00036D11D48C16C41F00201C164C16C01F009
:1027C00002010591C16C41F00101C164C06C022598
:1027D00000F0010005904FF4C04000900024CDE9C6
:1027E00001540626114FCDE9034669463846FEF7E7
:1027F00065FCA8030090CDE901540420CDE9034015
:1028000069463846FEF75AFC4FF4E0600090CDE987
:102810000154CDE9034669464FF09040FEF74EFC67
:1028200007B0F0BD002C0140001002400004004839
:10283000704770B5044690F83C0000260D4601280C
:102840000BD0012084F83C000C2A4AD007DC82B16E
:10285000042A20D0082A06D131E0022070BD102AB7
:1028600053D0142A63D00126002084F83C0030465F
:1028700070BD206800F09CFF2068816941F008016C
:1028800081612068816921F004018161206881698A
:102890002A69114311E0206800F0E0FF2068816997
:1028A00041F4006181612068816921F48061816166
:1028B000206881692A6941EA02218161D4E72068A0
:1028C00001F01CF82068C16941F00801C16120686D
:1028D000C16921F00401C1612068C1692A691143FD
:1028E00011E0206801F05AF82068C16941F40061E4
:1028F000C1612068C16921F48061C1612068C1693A
:102900002A6941EA0221C161AEE7206801F096F828
:102910002068016D41F0080101652068016D21F01A
:10292000040101652068016D2A69114311E02068E6
:1029300001F0C0F82068016D41F400610165206874
:10294000016D21F4806101652068016D2A6941EA09
:102950000221016588E710B5040003D094F83D001A
:1029600010B107E0012010BD002084F83C00204693
:1029700000F022F8022084F83D00211D206800F0BC
:102980008BFE012084F8480084F83E0084F83F0064
:1029900084F8400084F8410084F8420084F8430041
:1029A00084F8440084F8450084F8460084F8470021
:1029B00084F83D00002010BD08B500680B4988422E
:1029C00012D10B48016E41F400610166006E0022D5
:1029D00000F40060009005211920FEF727FDBDE8F6
:1029E00008401920FEF714BD08BD0000002C01406E
:1029F000001002407047000070B50446022269B121
:102A0000042912D0082917D00C291CD0102921D054
:102A100094F84300012824D0012070BD94F83E00B2
:102A20000128F9D184F83E201DE094F83F000128E8
:102A3000F2D184F83F2016E094F840000128EBD151
:102A400084F840200FE094F841000128E4D184F894
:102A5000412008E094F842000128DDD184F84220AA
:102A600001E084F843200122206800F087FE1D4920
:102A700020681D4A1D4B1E4D88420BD0904209D044
:102A8000984207D01B4EB04204D01B4EB04201D03A
:102A9000A84203D1466C46F400464664206888424A
:102AA00011D0B0F1804F0ED0144988420BD0144998
:102AB000884208D01349884205D0904203D09842FA
:102AC00001D0A84207D181680F4A1140062906D0DB
:102AD000B1F5803F03D0016841F0010101600020A1
:102AE00070BD0000002C0140003401400040014056
:102AF00000500140004401400048014000040040F3
:102B000000080040000C0040070001000068034975
:102B1000884201D1FEF702BC70470000001000405F
:102B20007047FEE700EB8100006E00F0F840704750
:102B30008068C0F3C00070478068C0F3C000704771
:102B40008068C0F3800070478068C0F380007047E1
:102B5000042303EAD15310B518444369C1F3045167
:102B600007248C40A3438A401343436110BD00EB0C
:102B70008100016E21F000411143016670470000A1
:102B800030B593B000240F9410943C216846119402
:102B9000FDF7B9FB2F484FF0A041042501604FF429
:102BA0004031C0E9011485610121C460C0E90441DC
:102BB00004774477016280F8244080F83840C46389
:102BC00080F84040FEF728F908B1FDF71FFD0FA976
:102BD00020480F94FEF770F808B1FDF717FD1E4866
:102BE00000900920CDE901047F200594CDE903057B
:102BF0000320089084200A908DF824404FF48070C0
:102C00008DF825400B908DF826408DF830406946B0
:102C10001048FDF711FD08B1FDF7F8FC0F480090D2
:102C200040F20F10019069460A48FDF705FD08B112
:102C3000FDF7ECFC0A48009040F21520019069462F
:102C40000448FDF7F9FC002801D0FDF7DFFC13B0C4
:102C500030BD0000B80000200800900C040060089F
:102C60000200300410B5074A0021074801F050F96E
:102C7000064C044A002120602432054801F048F93E
:102C8000606010BD24590008C53500080000002010
:102C9000C9330008F0B587B014216846FDF733FB4F
:102CA0002548C16C41F02001C164C16C01F02001D4
:102CB0000591C16C41F00401C164C16C01F00401D3
:102CC0000591C16C41F00101C164C16C01F00101C9
:102CD0000591C16C41F00201C164C16C01F00201B7
:102CE0000591C16C41F00801C164C06C134E00F045
:102CF00008000590002208213046FEF703FB104F24
:102D0000002204213846FEF7FDFA082001240025A0
:102D10008DE831000320039069463046FEF7CEF976
:102D20000420CDE900040220CDE9020569463846B9
:102D3000FEF7C4F907B0F0BD0010024000080048DB
:102D4000000C0048124810B5104901604FF4827120
:102D5000416000214FF47062C0E902120222026158
:102D600001224261520282611822C0E90721072232
:102D70004162C0E90A1201634163FFF7C7F8002806
:102D800003D0BDE81040FDF741BC10BD003001404C
:102D90002401002010B598B00024149415941C212F
:102DA00068461694FDF7AFFA342107A8FDF7ABFA91
:102DB00030482F49C0E900142021816040F6485175
:102DC000C0E9031444618461FFF7C5FD08B1FDF754
:102DD0001DFC1494159414A926481694FFF7D0FAF4
:102DE00008B1FDF713FC6020CDE9000402940394C0
:102DF00004940594002269461E480694FFF719FDC5
:102E000008B1FDF703FC042269461A48FFF711FDDB
:102E100008B1FDF7FBFB082269461648FFF709FDDC
:102E200008B1FDF7F3FB0C2269461248FFF701FDDC
:102E300008B1FDF7EBFB0794089409944FF4005098
:102E40000A94CDE90B400D9400030E94CDE90F4098
:102E50001194129407A907481394FFF739FA08B19F
:102E6000FDF7D4FB0348FFF799FC18B010BD000034
:102E7000002C014088010020FEE7FEE79FED0B4A91
:102E800080ED004A80ED014A80ED024A80ED034A60
:102E900080ED044A80ED054A80ED064AC0ED071A30
:102EA0002030A0EC030A80EC042A704700000000E8
:102EB00030EE600A80ED040AD0ED060A70EE800A5A
:102EC000C0ED060A90ED081A61EE001AC0ED001A76
:102ED00090ED0B1AF4EEC11AF1EE10FA01DD80ED5F
:102EE000001AD0ED001AB1EE411AF4EEC11AF1EE5B
:102EF00010FA01D280ED001A90ED091A61EE201A45
:102F0000C0ED011A90ED0C1AF4EEC11AF1EE10FAB0
:102F100001DD80ED011AD0ED011AB1EE411AF4EE97
:102F2000C11AF1EE10FA01D280ED011A90ED071AE4
:102F3000F4EEC10AF1EE10FA01DD80ED061AD0EDD3
:102F4000061AF1EE410AF4EEE01AF1EE10FA01D29F
:102F5000C0ED060AD0ED050A90ED0A1A70EE600A7F
:102F600020EE811A80ED021AD0ED0D0AB4EEE01ABF
:102F7000F1EE10FA01DDC0ED020A90ED021AF1EE59
:102F8000600AB4EEE01AF1EE10FA01D2C0ED020AC6
:102F9000D0EC020A70EE810A90ED021A30EE811A2E
:102FA00080ED031AD0ED0E0AB4EEE01AF1EE10FA3D
:102FB00001DDC0ED030A90ED031AF1EE600AB4EEF4
:102FC000E01AF1EE10FA01D2C0ED030A80ED050A15
:102FD00090ED030A704790ED070A70479FED0A3A9B
:102FE00060EE830A60EE810A80EE823AC1EE810AC9
:102FF00080ED033A20EE800A80ED040A80ED092A74
:10300000C0ED082A70470000DB0FC94090EC020AAF
:1030100030EE600A80ED020AD0ED030A20EE800A4D
:1030200080ED050AD0ED060A30EE801A80ED061A12
:10303000D0ED080AB4EEE01AF1EE10FA01DBC0EDB3
:10304000060A90ED061AF1EE600AB4EEE01AF1EE0F
:1030500010FA02D9F0EE410A01E0C0ED060A70EE66
:10306000200AC0ED070A90ED090AF4EEC00AF1EE5D
:1030700010FA01DB80ED070AD0ED070AB1EE400A35
:10308000F4EEC00AF1EE10FA01D880ED070A70479D
:1030900080EC020A704700009FED0C1A80ED050AD3
:1030A000C0ED080A60EE811A61EEA00A21EE802AC6
:1030B00060EE810AB6EE001A80ED062A60EE810A03
:1030C00020EE800A80ED070A7047000066660E4118
:1030D00010B504462DED028B90ED020A9FED308B6A
:1030E000B4EE400AF1EE10FA04D0B0EE480AF0EE69
:1030F000680A05E010EE100AFDF710F941EC100B1C
:1031000051EC100BFDF71DF900EE100A04F10C0054
:1031100084ED020A94ED001A84ED011AD4ED050A3B
:10312000D4ED041A00EEA10A31EE400A84ED030A40
:1031300001F07CFC94ED040AB4EE400AF1EE10FAC2
:1031400005D110EE100AFDF7E9F841EC180B51EC2F
:10315000180BFDF7F6F800EE100A04F1080084EDF4
:10316000040AD4ED050A94ED031A20EE200AD4EDEA
:10317000060A00EE810AD4ED020A30EE200A84ED40
:10318000020A01F053FC94ED040AD4ED070A94ED11
:10319000031A00EE810A84ED040ABDEC028B10BD17
:1031A000000000000000000080ED000A70470000F1
:1031B0009FED0C1A80ED000AC0ED030A60EE811A43
:1031C00061EEA00A21EE802A60EE810AB6EE001AB6
:1031D00080ED012A60EE810A20EE800A80ED020A6D
:1031E0007047000066660E41F8B515460E460B4660
:1031F0000092044600224FF4C05100F019F888B93B
:103200003346002280212046009500F081F848B91D
:10321000334600224FF4C0612046009500F008F8C4
:10322000002804D0206E40F0200020660320F8BD66
:103230002DE9FE4F4FF0000A984617460E46044609
:103240000C9D8DF804A0FEF763F8411BA8EB010567
:10325000FEF75EF8814620684FF4C06B0C30029098
:103260002A480068C0EBC00000EB8000000D6843F6
:10327000009043E05E4506D12FB9029800788DF8A2
:1032800004009DF80400B8F1FF3F37D0FEF740F886
:10329000A0EB0900A84203D215B1009858B32BE067
:1032A0002068416821F0E00141606068B0F5827FEC
:1032B0000BD1A068B0F5004F02D0B0F5806F04D1FB
:1032C0002068016821F040010160A06AB0F5005F4C
:1032D00009D12068016821F400510160206801686B
:1032E00041F400510160012084F85D0084F85CA085
:1032F0000320BDE8FE8F0025401E009020688068F6
:103300003040B842B6D10020F3E70000140000209E
:103310002DE9F8431E46914688460446089DFDF770
:10332000F7FF401B351AFDF7F3FF074625480068F5
:10333000C0F3CB30684338E0701C37D0FDF7E8FFAE
:10334000C01BA84203D215B1009860B32CE02068DE
:10335000416821F0E00141606068B0F5827F0BD1E7
:10336000A068B0F5004F02D0B0F5806F04D120689E
:10337000016821F040010160A06AB0F5005F09D149
:103380002068016821F4005101602068016841F45F
:1033900000510160012084F85D00002084F85C0089
:1033A0000320BDE8F8830025401E00902068816856
:1033B00038EA010004D000214945BDD10020F0E7E2
:1033C0000121F9E7140000202DED068B82B00024C6
:1033D000664D28684463286884632868C463642051
:1033E00000F05AFD624E00274FF0A048DFED618AE1
:1033F000012000F051FD404696ED060A50F8801F6E
:1034000000EE901AF8EE600A00EEA80A86ED060AB1
:1034100096ED070A416800EE901AF8EE600A00EE99
:10342000A80A86ED070A96ED080A80687F1C00EE60
:10343000900A642FF8EE600A00EEA80A86ED080AEA
:10344000D6DB28684463286884632868C4636420E2
:1034500000F022FDF2EE043A9FED478AF1EE042AD5
:10346000B1EE042AB0EE483ADFED441AB0EE481A45
:10347000F0EE680A9FED420A4248FFF7FFFC9FED1D
:10348000422AF0EE423A9FED413A3E48F0EE482A99
:10349000F0EE481AB1EE041AF0EE480AB1EE000A56
:1034A0003C30FFF7EBFC9FED3A8ADFED3A8A9FED67
:1034B0003AAA9FED3A9A3348F2EE042AB3EE082A6C
:1034C000F0EE481AB0EE681AF0EE4A0AB0EE490A79
:1034D0005038FFF783FDDFED329A2A48F2EE042AD6
:1034E000B3EE082AF0EE481AB0EE691AF0EE4A0A76
:1034F000B0EE490A2838FFF771FDDFED2A0AB0EE79
:10350000490A2948FFF7C8FD1E48DFED280AB0EE3A
:10351000490A7838FFF74CFE1A48F0EE492A9FED29
:10352000242ADFED241AB0EE481AF0EE690AB0EE54
:10353000680A7830FDF76CF8642000F0ADFC1E4995
:103540000120086002F046F8174C1C4D1C4E0090FC
:10355000D4ED040A95ED000A0A48FFF7A9FC86EDB0
:10356000000A0121684601F0DBFBF1E78801002039
:10357000F41A00200AD7233C000000000000FA43A0
:10358000CDCCCC3D241C0020000048430000484224
:10359000F931A63ECD61AD3900409C45ACC5273818
:1035A000BEAF003A00009643881B00200000704226
:1035B000405D464B33190E3C98000020B4000020BB
:1035C000A0000020012000F067FCFBE710B54FF0E1
:1035D000E020006901F0F0FF012803D0BDE81040B1
:1035E00001F01EBD10BD10B594B038216846FCF73F
:1035F0008AFE14210EA8FCF786FE0020FDF748FF86
:10360000012000900004019002200324CDE907046A
:103610005521CDE909010B900C900D906846FEF7FD
:1036200073FA08B172B6FEE70F20CDE90E04002050
:1036300010901190129004210EA8FEF70FF90028A7
:1036400001D072B6FEE714B010BD00000248016858
:1036500041F470010160704788ED00E010B5094841
:10366000FEF7CBFF084C012208212046FDF74AFE59
:1036700000F09CFA20460022BDE810400821FDF72A
:1036800041BE000088010020000800480148FEF704
:10369000B4BF0000D40100202DE9F04F02682E4B8A
:1036A0002E4E2F4FDFF8BCC02F4C304D4FF0804BCB
:1036B00098420BD0584509D0B04207D0B84205D047
:1036C000604503D0A04201D0A84204D122F0700886
:1036D0004A6842EA0802DFF89880DFF89890DFF83D
:1036E00098A0984211D058450FD0B0420DD0B842A2
:1036F0000BD0604509D0A04207D0404505D04845D1
:1037000003D0504501D0A84203D122F44076CA68C4
:1037100032434E6922F08002324302608A68C262FC
:103720000A688262984209D0A04207D0404505D07D
:10373000484503D0504501D0A84201D10969016331
:10374000012141610169C90703D0016921F001012B
:103750000161BDE8F08F0000002C01400004004032
:1037600000080040000C00400034014000500140BF
:1037700000400140004401400048014010B501F004
:103780001F030121046A99408C430462016A9A4034
:103790001143016210BD10B501F00F030421046A4A
:1037A00099408C430462016A9A401143016210BD42
:1037B0002DE9F047056A026A22F0010202624368BD
:1037C00082691F4C25F0020522400C6822F003029A
:1037D00014438A681C4E2A431A4D1C4FDFF870C0F0
:1037E000DFF87090DFF870A0A84209D0B04207D08F
:1037F000B84205D0604503D0484501D0504506D1B8
:1038000022F00808CA6842EA080222F00402A8422C
:1038100009D0B04207D0B84205D0604503D0484532
:1038200001D0504505D14D6923F440731D438B6988
:103830002B4343608461496841630262BDE8F087BD
:103840008FFFFEFF002C014000340140004001408A
:10385000004401400048014000500140F0B5056AB5
:10386000026A22F010020262426883691C4C1E4EFA
:1038700023400C6823F4407343EA042425F020031A
:103880008D681A4F43EA0513164DA84203D0B04283
:1038900001D0B84207D1D1F80CC023F0800343EA2D
:1038A0000C1323F04003A8420CD0B0420AD0104DB4
:1038B000A84207D00F4DA84204D00F4DA84201D016
:1038C000B84207D14D6922F4406242EA85028D690F
:1038D00042EA850242608461496881630362F0BD07
:1038E000FF8FFFFE002C01400034014000500140DA
:1038F000004001400044014000480140F0B5056A25
:10390000026A22F4807202624368C2691C4C1E4E35
:1039100022400C6822F00302144325F400728D68E3
:103920001A4F42EA0522174DA84203D0B04201D0F7
:10393000B84207D1D1F80CC022F4006242EA0C224E
:1039400022F48062A8420CD0B0420AD0104DA842A6
:1039500007D0104DA84204D00F4DA84201D0B84264
:1039600007D14D6923F4405343EA05138D6943EAB7
:1039700005134360C4614968C1630262F0BD000081
:103980008FFFFEFF002C0140003401400050014039
:10399000004001400044014000480140F0B5056A84
:1039A000026A22F4805202624268C3691C4C1E4EB5
:1039B00023400C6823F4407343EA042425F40053A5
:1039C0008D681A4F43EA0533164DA84203D0B04222
:1039D00001D0B84207D1D1F80CC023F4004343EA28
:1039E0000C3323F48043A8420CD0B0420AD0104DCF
:1039F000A84207D00F4DA84204D00F4DA84201D0D5
:103A0000B84207D14D6922F4404242EA85128D69DD
:103A100042EA85124260C461496801640362F0BDF4
:103A2000FF8FFFFE002C0140003401400050014098
:103A300000400140004401400048014030B5056AA3
:103A4000026A22F4803202624268036D124C234003
:103A50000C681C4325F400330D8943EA05430F4DE0
:103A6000A8420ED00E4DA8420BD00E4DA84208D051
:103A70000D4DA84205D00D4DA84202D00C4DA842D4
:103A800004D14D6922F4803242EA05224260046585
:103A900049688164036230BD8FFFFEFF002C014046
:103AA0000034014000400140004401400048014012
:103AB0000050014030B5046A026A22F480120262AA
:103AC0004268036D134D24F400142B400D6843EA43
:103AD00005230D8944EA05540F4DA8420ED00F4D21
:103AE000A8420BD00E4DA84208D00E4DA84205D0DA
:103AF0000D4DA84202D00D4DA84204D14D6922F4CB
:103B0000802242EA8522426003654968C1640462FA
:103B100030BD0000FF8FFFFE002C0140003401404B
:103B20000040014000440140004801400050014075
:103B3000FEE70907090E002804DB00F1E02080F809
:103B40000014704700F00F0000F1E02080F8141D11
:103B5000704702E008C8121F08C1002AFAD1704756
:103B60007047002001E001C1121F002AFBD17047FD
:103B700090ED030A90ED041AD0ED050A9FED092A95
:103B800070EE011A71EEA01A01EEC20A80ED0D0A64
:103B900031EE600ADFED040A20EE200A80ED0E0A05
:103BA00070470000ABAAAA3E3ACD133F70B5794CDE
:103BB000794E2DED048B206801287DD194ED060A05
:103BC000DFED760A30EE200A10EE100A84ED060AC8
:103BD000B0F17E5F03DB9FED720A84ED060A714847
:103BE00000F078FE6F4DD5ED000A9FED6F8AF6EE7E
:103BF000008A80EE880AF2EE000A30EE680A60EE73
:103C0000200A94ED010A9FED699A624800EE890A44
:103C1000143084ED050A00F009FF94ED050A05F162
:103C2000200084ED040A95ED000AC0EE080A30EE8B
:103C3000E80AF0EE000A20EE200A20EE090AFFF75B
:103C4000B3FA05F12000FFF743FA94ED040A503D62
:103C5000284685ED000A00F075FE4FF0A04151F8AE
:103C6000800F00EE100AA5F12400B8EE400AD0ED56
:103C7000060A70EE600AC0ED000A4A6890ED071A65
:103C800000EE102AB8EE400A70EE411AC0ED011A9B
:103C9000896890ED081A00EE101AB8EE400A30EE6E
:103CA000411A80ED021A9FED420A60EE800A61EE31
:103CB000801AC0ED030A00E065E021EE000AC0EDC5
:103CC000041AF1EE600A80ED050AC5ED030AF1EE73
:103CD000610AC5ED040AB1EE400A85ED050A2430FB
:103CE000FFF746FF284600F058F9D5ED0A0A94ED93
:103CF000020A3048FFF7CCF92E48FFF787F92D4824
:103D0000FFF769F9F3EE088A9FED2B8AC0EE280AC7
:103D10002A4820EE880A85ED0C0AD5ED090A94EDB3
:103D2000030AFFF7B5F92548FFF770F92348FFF7B5
:103D300052F9C0EE280A284620EE880A85ED0B0AC3
:103D400000F03EF8284600F00DFE95ED060A3168B9
:103D500030EE080ABCEEC00A10EE100A486395ED7A
:103D6000070A316830EE080ABCEEC00A10EE100AED
:103D7000886395ED080A316830EE080ABCEEC00A87
:103D800010EE100AC863316801200863BDEC048B93
:103D900070BD00009800002088010020ACC52738C5
:103DA00000000000681B00200000B443DB0F494006
:103DB0003808043CD41B00200080BB44FC1B0020BE
:103DC00090ED0B1AD0ED020AD0ED0C1A90ED010A1D
:103DD00021EE202A01EEC02A21EE000A01EEA00AFF
:103DE00080ED0F2A80ED100A70470000FDF79EFA63
:103DF000FFF7F9FBFEF74EFFFEF7CCFFFEF7C0FE24
:103E0000FEF7A0FF2248FCF7C7FE21480068416882
:103E100041F02001416000211E48FEF7EDFD002128
:103E20001C48FEF709FB04211A48FEF7E5FD0421B2
:103E30001848FEF701FB08211648FEF7DDFD0821B2
:103E40001448FEF7F9FA0C211248FEF7D5FD114C83
:103E50002068C16841F00101C160216840F6165038
:103E60000864002205213420FDF7E0FA3420FDF734
:103E7000CFFA216800204863216888632168C863FD
:103E800000F018F8FEF7EEFE00F026F8FEE700005E
:103E9000B80000208801002010B5EFF3058111B1B2
:103EA0006FF0050403E0002408B100F013FF204682
:103EB00010BD0000EFF3058010B16FF005007047F2
:103EC0000448016811B14FF0FF30704701210160D3
:103ED000002070476800002010B5EFF3058010B196
:103EE0006FF0050010BD08480168012902D04FF0AD
:103EF000FF3010BD054A002182F8141D0221016027
:103F000000F096FF002010BD680000200BE000E0EC
:103F10002DE9FF414FEA01034FF00005EFF3058162
:103F2000039549BB40B38027182100244AB3166883
:103F300006B1344696691EB13146761E382E02D23D
:103F40001679F60703D0002004B0BDE8F081566969
:103F500006B1B708D2F808C0BCF1000F0DD0D56883
:103F60005C2D18D312693AB136B18DE806103A4685
:103F7000214601F0F6FA03900DE0D6685EB91269A9
:103F80004AB903AACDE90012BAB2214601F0BCFA3F
:103F9000012800D003950398D6E790ED0D1AD0EDD7
:103FA000020A90ED0E0AD0ED011A21EE202A00EE51
:103FB000212A20EE200A01EE610A80ED092A80ED17
:103FC0000A0A70472DE9F041134C0F460546E66892
:103FD0002068001D00F04AFD681C07D137B1216838
:103FE000BDE8F0410D48091D00F090BD2068354442
:103FF000B5424560216805D2A06BBDE8F041091DBE
:1040000000F06CBD606B091D00F068FDA06A854280
:1040100000D2A562BDE8F081180000201007002042
:104020002DE9F041054600F07DFD2D4CA068401CB7
:10403000A06020682B4F10B1606930B32BE0256081
:10404000A068012827D1002606EB860007EB800038
:1040500000F036FD761C382EF6D3234800F030FDF4
:104060002148143000F02CFD1F48283000F028FDB6
:104070001D483C3000F024FD1B48503000F020FD6E
:10408000194860631430A06305E02068E96AC06ADB
:10409000884200D82560606A401C60626864E86AF3
:1040A0002169884200D9206100EB800007EB800085
:1040B000291D00F02BFD00F055FD606900280CD093
:1040C0002068E96AC06A884207D208494FF08050E8
:1040D0000860BFF34F8FBFF36F8FBDE8F081000022
:1040E0001800002060020020C006002004ED00E05F
:1040F00038B500F017FD104C2068C8B90F4800F023
:10410000DFFC0E48143000F0DBFC0C48E06014309B
:1041100020610A4B0020F03B009003F15002102177
:104120000A2000F093FF206010B105A100F09CFD73
:10413000BDE8384000F016BD5400002014080020EF
:10414000546D72510000000030B4026C0B46002A1E
:104150000BD0C1681144C1608468A14201D30168D9
:10416000C16030BC1846FCF7B5B830BC70472DE9CB
:10417000F041856B174604460026026C82B1C7B138
:10418000E068FCF7A7F8E168206C091AE160226892
:10419000914202D2A168081AE060022F16D017E0FF
:1041A0002068A8B9A06801F07FFA06460020A06048
:1041B0000EE06068FCF78EF8216C6068084460606F
:1041C000A168884204D32068606001E005B16D1EDB
:1041D0006D1CA5633046BDE8F08110B5044690F82B
:1041E000590058B101280CD002280FD0502080F37C
:1041F0001188BFF34F8FBFF36F8FFEE7206B00F086
:10420000C5FC2046BDE8104000F0C0BC10BD000059
:1042100010484FF44061420706D0C01D0D4920F000
:104220000700411AC1F540610B4A00230144C2E96D
:1042300000030839183A21F0070111604B600B6048
:104240000B1AC0E9001393604FF0004053605061B7
:1042500070470000F40E002084000020144E154C1E
:10426000A6F29C474FF08058DFF84C9012E000BF58
:1042700000F058FCF068C568281D00F0F7FBA06846
:10428000401EA0606068401E606000F06BFC284625
:10429000FFF7A3FF60680028EAD138680128F9D940
:1042A000C9F80080BFF34F8FBFF36F8FF2E70000B4
:1042B000FC0600201800002004ED00E070B51D464B
:1042C000049C51B1C4F80020C4E90F01012120462B
:1042D00000F0F0FE84F84C5070BD2460F4E700005C
:1042E0002DE9F05F8846DDE90B9415468346910081
:1042F0009A460A9EA522206BFBF7FEFF6FF0030192
:10430000206B01EB8501084420F00707780707D0F0
:10431000502080F31188BFF34F8FBFF36F8FFEE7FC
:104320000025B8F1000F0FD05FF00000221818F838
:10433000001082F8341018F8001011B1401C102839
:10434000F4D384F8435001E084F83450382E00D37D
:104350003726E662C4E91365201D00F0BCFB04F1BA
:10436000180000F0B8FB2461C6F138006462A06157
:10437000656584F8585052465946384600F05AFA56
:104380002060B9F1000F01D0C9F80040BDE8F09FEE
:1043900030B5114900E011460A688242FBD34B68F0
:1043A0005C18844203D1406818444860084643685A
:1043B0001C18944209D1084C183C2468A24209D028
:1043C00052681A4442600A6812680260814200D052
:1043D000086030BD0460F9E78400002070B5002457
:1043E00041600B4D0061914206D8D11A8269914219
:1043F00006D2011D286907E09A4203D2994201D3EF
:10440000012403E0011DE86800F068FB204670BD50
:104410005400002010B5044600F084FBA06B28B1C6
:104420005FF0000400F09EFB204610BD0124F9E778
:1044300030B589B03C4D6EE00498002806DADDE91D
:104440000601059A90470498002864DB069C606981
:1044500010B1201D00F00AFB03A800F0D7F80246B7
:1044600004980A2857D2DFE800F00505052D334AE5
:1044700005052D3394F8280040F0010084F8280049
:104480000599A069059B01442046FFF7A7FF68B383
:10449000216A2046884794F8280040073BD5002031
:1044A00000900598A169002342181946204601F0A2
:1044B00005FAD8B9502080F31188BFF34F8FBFF3AE
:1044C0006F8FFEE714F8280F20F00100207022E023
:1044D00094F8280040F0010084F828000598A061B5
:1044E00028B1811813462046FFF778FF13E05020CB
:1044F00080F31188BFF34F8FBFF36F8FFEE794F8FF
:104500002800810703D4204600F040FB03E020F0A0
:10451000010084F82800002204A9286800F01EFF8A
:10452000002889D109B030BD540000202DE9FC419C
:104530000F46054600F0C0FC01A800F067F80446ED
:10454000019818B101F028F9BDE8FC81254EAFB102
:1045500030690068D0B30027291B3A46306800F064
:1045600097FB01F019F90028EED11F494FF0805058
:104570000860BFF34F8FBFF36F8FE5E7A542EBD81D
:1045800001F00AF9F0682746C068C468201D00F0F1
:104590006DFA94F82800410719D5A0692B464119F6
:1045A0003A462046FFF71AFFA8B10020034601460D
:1045B00000902A46204601F081F960B9502080F32E
:1045C0001188BFF34F8FBFF36F8FFEE707E020F036
:1045D000010084F82800216A20468847B4E70127B3
:1045E000BAE700005400002004ED00E00648416BEB
:1045F000096829B1416BC968C96849688162704717
:104600004FF0FF31FAE700001800002070B50546B2
:1046100000F0E0FF064E0446B068844203D200F08A
:1046200009F8012000E0002028602046B46070BD39
:1046300054000020F8B5194D20E0C068C468066831
:10464000201D00F013FA216A2046884794F82800BC
:10465000400713D5A0693044B04206D92461606098
:10466000211DE86800F03AFA08E000200346014600
:1046700000903246204601F021F938B1E86801681F
:104680000029DAD12969C5E90310F8BD502080F36B
:104690001188BFF34F8FBFF36F8FFEE754000020E8
:1046A00008484068401C4FF0500080F3118804D047
:1046B000BFF34F8FBFF36F8FFEE7BFF34F8FBFF393
:1046C0006F8FFEE78C000020074CE068016841B165
:1046D000C0680021D0F80000FFF728FFFFF7A8FE10
:1046E000F3E701210020F7E7540000202DE9F04115
:1046F000044600F017FA94F9455004F1240609E045
:10470000606A48B1304601F00FF808B100F056FB7E
:104710006D1E6DB2002DF3DC4FF0FF3684F845605E
:1047200000F020FA00F0FEF994F9445004F110076B
:1047300009E0206948B1384600F0F6FF08B100F002
:104740003DFB6D1E6DB2002DF3DC84F84460BDE8C6
:10475000F04100F007BA00002DE9F04105460027BE
:1047600000F0AAFB324E306808B9FFF751FD7069BE
:1047700005424ED1C5B3083568070ED005F00700D5
:10478000C0F108000544680707D0502080F3118865
:10479000BFF34F8FBFF36F8FFEE72DB37068854275
:1047A00037D82348183001460C6801E020460C46F3
:1047B0006168A94202D221680029F7D131688C4290
:1047C00027D007682168016060680837411B1029FD
:1047D0000FD96019420708D0502080F31188BFF329
:1047E0004F8FBFF36F8FFEE713E041606560FFF707
:1047F000CFFD61687068401A7060B268904200D264
:10480000B060706901430020C4E90001F068401CF9
:10481000F06000F0C1FF780707D0502080F31188C6
:10482000BFF34F8FBFF36F8FFEE73846BDE8F081CF
:104830006C00002010B5031F4FF080741C601B1F1C
:1048400021F001011960191F044B0B6014390A6033
:10485000091F6FF0020244380A6010BDA14600082B
:1048600080ED000AD0ED010A164ADFED171A70EE4E
:10487000600A90ED021AB7EE002A10EE901A9142EB
:1048800006DD31EE421A70EEE10A80ED021A0AE00E
:1048900010EE901A0D4A914205D931EE021A70EECF
:1048A000A10A80ED021A9FED0A1A60EE810AC0ED9E
:1048B000050A80ED010AD0ED020A00EEA10A80EDA2
:1048C000030A7047000034430000B443000034C3BF
:1048D000000096437FB5174D044600220421284668
:1048E000FCF710FD4AF20300ADF80C000A2000901E
:1048F000032301AA03A91048FDF7B0FB01220421FC
:104900002846FCF7FFFCBDF80600BDF80810400182
:1049100040EAD12100EE101ADFED080A2046B8EE79
:10492000400A20EE200ADFED060A20EE200AFFF7FB
:1049300097FF7FBD000C00482401002000000035D7
:104940000000B44310B5044690ED000AFBF7AEFD3D
:1049500084ED010A94ED000AFBF758FD84ED020A8C
:1049600010BD0000D0ED0F0ABEEE000AD0ED101A07
:1049700020EE800A9FED2C2AB0EE401A01EE820A4A
:1049800001EEC21AF4EEC00AF1EE10FA02DDF0EE0A
:10499000601A01E0F0EE401AF4EEC11AF1EE10FADE
:1049A0000ADDF4EEC00AF1EE10FA02DDF0EE601A54
:1049B00004E0F0EE401A01E0F0EE411AF4EEC00A15
:1049C000F1EE10FA02D2B0EE602A01E0B0EE402A19
:1049D000B4EEC12AF1EE10FA0AD2F4EEC00AF1EEFA
:1049E00010FA02D2B0EE602A04E0B0EE402A01E0F4
:1049F000B0EE412A31EE822AF6EE001A22EE212A8A
:104A000070EEC20A30EE420A70EEE10A30EE610A40
:104A1000C0ED060A80ED070A31EE420A30EE610A67
:104A200080ED080A70470000D7B35D3F9FED0C0A88
:104A30000C4AD0ED000A03E070EE800AC0ED000AD7
:104A400010EE901A9142F7D8074A00BF10EE901A64
:104A5000914204DB70EEC00AC0ED000AF6E7704731
:104A6000DB0FC940DB0F49C0DB0F4940D0E9013201
:104A700001699A60D0E901235A604A68824201D1F3
:104A800082684A60002202610868401E0860086867
:104A900070470000034B036003F15C000860802056
:104AA000106070473C080020044B036003F15C0079
:104AB00008604FF48070106070470000980A002072
:104AC00000F108014FF0FF32C0E90112C16001613D
:104AD00000210160704700210161704730B50B680B
:104AE0005A1C02D000F1080202E0026904E02246EA
:104AF000546825689D42FAD953684B6099608A6072
:104B0000516008610168491C016030BD42684A601B
:104B100093688B6093685960916008610168491CD3
:104B200001607047502080F31188BFF34F8FBFF3AF
:104B30006F8F0A494868401C486001280CD108481A
:104B4000006810F0FF0F07D0502080F31188BFF3EA
:104B50004F8FBFF36F8FFEE7704700008C0000207F
:104B600004ED00E00849486828B1401E486001D1C2
:104B700080F311887047502080F31188BFF34F8F66
:104B8000BFF36F8FFEE700008C00002070B5002897
:104B90002AD0164DA0F1080460686969084207D15F
:104BA000502080F31188BFF34F8FBFF36F8FFEE764
:104BB00022683AB1502080F31188BFF34F8FBFF3C2
:104BC0006F8FFEE78843606000F076F9606869687F
:104BD000084468602046FFF7DBFB2869401C286119
:104BE000BDE8704000F0D8BD70BD00006C00002032
:104BF0004FF0E02000210161816105494FF47A7294
:104C00000968B1FBF2F1491E41610721016170475A
:104C10001400002010B5FBF747FB114910280ED3F4
:104C200000F1E02090F8F0030A78904207D250207B
:104C300080F31188BFF34F8FBFF36F8FFEE70948F2
:104C40000068896800F4E060884207D9502080F34A
:104C50001188BFF34F8FBFF36F8FFEE710BD0000C9
:104C60008C0000200CED00E010B5084B002200BFC6
:104C700053F832401CB1521C082AF9D310BD43F836
:104C8000321003EBC201486010BD0000200200207A
:104C900070B515460E460446FFF744FF94F94410DC
:104CA0000020491C01D184F8440094F94510491CA6
:104CB00001D184F84500FFF755FFA06B28B92A46BB
:104CC000314604F1240000F097F82046BDE870401A
:104CD000FFF70CBD10B5020014D00F48006B38B1BF
:104CE000502080F31188BFF34F8FBFF36F8FFEE723
:104CF00000F0E2F800211046FFF764F900F04CFDE7
:104D0000002807D105494FF080500860BFF34F8F4E
:104D1000BFF36F8F10BD00001800002004ED00E00D
:104D200070B50D4604000BD095B11E4A106BB8B19A
:104D3000502080F31188BFF34F8FBFF36F8FFEE7D2
:104D4000502080F31188BFF34F8FBFF36F8FFEE7C2
:104D5000502080F31188BFF34F8FBFF36F8FFEE7B2
:104D600000F0AAF8D26823685919934204D98B42FB
:104D70000AD9914202D807E08B42FAD9881A2160F9
:104D80000021FFF71FF900E0216000F005FD002879
:104D900007D105494FF080500860BFF34F8FBFF334
:104DA0006F8F70BD1800002004ED00E002490A6A10
:104DB0000260C96841607047180000200149012065
:104DC000C86170471800002010B50C4650B1094961
:104DD00009681831FFF782FE2046BDE81040012126
:104DE000FFF7F0B8502080F31188BFF34F8FBFF367
:104DF0006F8FFEE71800002070B514460D4668B1AD
:104E00000A4909681831FFF781FE0CB14FF0FF35F0
:104E100021462846BDE87040FFF7D4B8502080F303
:104E20001188BFF34F8FBFF36F8FFEE7180000208C
:104E300030B587B00024039405AA04A903A80494FC
:104E4000FFF728FEDDE903010094CDE901100023FE
:104E500015A11748059A00F084FB164D0028E8625A
:104E60001FD000F0FBFC012809D0401C19D15020B4
:104E700080F31188BFF34F8FBFF36F8FFEE7502091
:104E800080F31188BFF34F8FBFF36F8F4FF0FF3068
:104E9000A86201206861EC6007B0BDE8304000F016
:104EA00045B807B030BD000049444C450000000043
:104EB0005D420008180000200248016B491C016394
:104EC0007047000018000020164810B5016B11B1A2
:104ED0000121C16110BD0021C1610169124A01E0D7
:104EE000B9B1491E01EB810352F82330002BF7D0F2
:104EF00001EB810302EB830202F1080453685B6853
:104F00005360A34201D15B685360DA6802600161BB
:104F100010BD502080F31188BFF34F8FBFF36F8F08
:104F2000FEE7000018000020600200201CB5374892
:104F30000168374A914207D1502080F31188BFF3AE
:104F40004F8FBFF36F8FFEE700683149491E8842DB
:104F500007D1502080F31188BFF34F8FBFF36F8FBD
:104F6000FEE72C4908780190FF20087008788DF83A
:104F700000009DF800009DF8002000F0F000904235
:104F800007D0502080F31188BFF34F8FBFF36F8F8E
:104F9000FEE79DF80000204C00F050002070072034
:104FA000A06005E09DF8002052008DF80020401E12
:104FB0009DF800201206F5D4A060032807D05020E9
:104FC00080F31188BFF34F8FBFF36F8FFEE74FF46D
:104FD0004070A060019808700C482030016841F4CE
:104FE00070010160016841F070410160FFF700FE4F
:104FF00000206060FBF720F90848016841F040415B
:105000000160FBF705F900201CBD000000ED00E089
:1050100071C20F4100E400E08C00002034EF00E09A
:1050200010B5502080F31188BFF34F8FBFF36F8FFF
:1050300000F0D6FA18B104494FF080500860002003
:1050400080F3118810BD000004ED00E038B5049D28
:1050500018B153B1CAB181B120E0502080F311885A
:10506000BFF34F8FBFF36F8FFEE7502080F311889F
:10507000BFF34F8FBFF36F8FFEE7502080F311888F
:10508000BFF34F8FBFF36F8FFEE739B1502080F32E
:105090001188BFF34F8FBFF36F8FFEE750241C467C
:1050A000012384F846302B460094FFF707F9204689
:1050B00038BD000070B50D46040025D0FFF732FD65
:1050C000D4E90F20216802FB0011A1600021A16337
:1050D000216861600A46D4E90F01401E00FB0121EE
:1050E000E16021464FF0FF3001F8440F487004F1B1
:1050F00010008DB1FFF7E4FC04F12400FFF7E0FCA1
:10510000FFF730FD012070BD502080F31188BFF300
:105110004F8FBFF36F8FFEE721690029F0D000F0B9
:1051200003FB0028ECD004494FF080500860BFF327
:105130004F8FBFF36F8FE3E704ED00E02DE9FF47EA
:1051400082B01D468A464FF00008040003D0BAF131
:10515000000F08D011E0502080F31188BFF34F8F6B
:10516000BFF36F8FFEE7206C38B1502080F31188B9
:10517000BFF34F8FBFF36F8FFEE7022D0AD1E06BB5
:10518000012807D0502080F31188BFF34F8FBFF361
:105190006F8FFEE700F010FA3F4F4FF000094FF01D
:1051A000805648B9049838B1502080F31188BFF375
:1051B0004F8FBFF36F8FFEE7FFF7B4FCA06BE16B7F
:1051C000884207D3022D05D00498D0B1B8F1000F62
:1051D0001AD01EE02A4651462046FEF7C8FF616AF3
:1051E00019B104F1240000F09FFA20B13E60BFF332
:1051F0004F8FBFF36F8FFFF7B5FC012006B0BDE8FE
:10520000F087FFF7AFFC22E06846FFF7CFFD4FF0D5
:105210000108FFF7A7FCFFF74FFEFFF783FC94F9A7
:105220004400401C01D184F8449094F94500401C8E
:1052300001D184F84590FFF795FC04A9684600F079
:1052400029F930B12046FFF751FA00F0A5FA002005
:10525000D4E7FFF767FCA06BE16B884213D1FFF73F
:1052600081FC04F110000499FFF7AEFD2046FFF722
:105270003DFA00F091FA00289ED13E60BFF34F8FB7
:10528000BFF36F8F98E7FFF76DFC2046FFF72EFA0C
:1052900000F082FA90E7000004ED00E02DE9F0470D
:1052A0001F4690468946040003D0B9F1000F08D08C
:1052B00011E0502080F31188BFF34F8FBFF36F8F41
:1052C000FEE7206C38B1502080F31188BFF34F8F78
:1052D000BFF36F8FFEE7022F0AD1E06B012807D0E2
:1052E000502080F31188BFF34F8FBFF36F8FFEE71D
:1052F000FFF790FC5020EFF3118680F31188BFF385
:105300004F8FBFF36F8FA06BE16B884206D3022FE4
:1053100004D0002086F31188BDE8F08794F9455049
:10532000A06B3A4649462046FEF721FF681C04D090
:105330006D1C84F845500120ECE7606A0028FAD023
:1053400004F1240000F0F0F90028F4D0B8F1000FC7
:10535000F1D00121C8F80010EDE700002DE9F74772
:10536000002683B08A46040003D0BAF1000F08D0AB
:1053700011E0502080F31188BFF34F8FBFF36F8F80
:10538000FEE7206C38B1502080F31188BFF34F8FB7
:10539000BFF36F8FFEE700F00FF9DFF8F4804FF0F6
:1053A00000094FF0805748B9059838B1502080F374
:1053B0001188BFF34F8FBFF36F8FFEE7FFF7B2FB8C
:1053C000A56BC5B151462046FEF7BEFE6D1EA56316
:1053D000206950B104F1100000F0A6F928B1C8F816
:1053E0000070BFF34F8FBFF36F8FFFF7BBFB012040
:1053F00006B0BDE8F087059808B11EB106E0FFF7DA
:10540000B1FB27E06846FFF7D1FC0126FFF7AAFBB6
:10541000FFF752FDFFF786FB94F94400401C01D1D1
:1054200084F8449094F94500401C01D184F84590DB
:10543000FFF798FB05A9684600F02CF800282046E5
:105440000AD0FFF753F900F0A7F92046FEF7E2FF74
:105450000028B3D00020CBE7FEF7DCFF90B104F1C9
:1054600024000599FFF7B0FC2046FFF73FF900F054
:1054700093F90028A2D1C8F80070BFF34F8FBFF393
:105480006F8F9BE72046FFF731F900F085F995E72C
:1054900004ED00E02DE9F0410C46050011D0C4B147
:1054A000FFF740FB174BDA686E682068911B471CBA
:1054B00017D02F681B6A9F4219D0964217D8012433
:1054C00010E0502080F31188BFF34F8FBFF36F8F30
:1054D000FEE7502080F31188BFF34F8FBFF36F8F2B
:1054E000FEE70024FFF73EFB2046BDE8F08188423E
:1054F00005D9401A20602846FFF758FCF1E7002044
:105500002060DCE7180000202DE9FF5F8346DDE91D
:105510000E87994616468A469000FFF71DF905004A
:105520001CD05C20FFF718F9040014D0002025637C
:1055300084F85900CDE90240CDE900874B46324658
:1055400051465846FEF7CCFE2046FEF769FD012085
:1055500004B0BDE8F09F2846FFF718FB4FF0FF307E
:10556000F6E7F0B585B0DDE90B640A9DA6B1DCB1C4
:105570005C2700972663022684F85960002604AF52
:10558000CDE90246CDE90057FEF7AAFE2046FEF718
:1055900047FD049805B0F0BD502080F31188BFF39B
:1055A0004F8FBFF36F8FFEE7502080F31188BFF35A
:1055B0004F8FBFF36F8FFEE70548416919B1006B4C
:1055C00018B100207047012070470220704700008A
:1055D000180000200148C068704700001800002033
:1055E0002DE9F0412E4C0027206B28B1A069401C0A
:1055F000A0613846BDE8F081E668761CE66013D10C
:10560000606B006838B1502080F31188BFF34F8F72
:10561000BFF36F8FFEE7606BA16B6163A063206ACD
:10562000401C2062FEF7E2FFA06ADFF87880864225
:1056300009D3606B0068A0B1606BC068C56868681A
:10564000864211D2A0622068C06A00EB800158F83F
:105650002100012800D90127E0690028C9D00127CD
:10566000C7E74FF0FF30EDE7281DFFF7FFF9A86A05
:1056700018B105F11800FFF7F9F9E86A21698842C5
:1056800000D9206100EB800108EB8100291DFFF7A4
:105690003DFAE86A2168C96A8842CAD30127C8E787
:1056A000180000206002002070B504004FF00001D7
:1056B00033D01B4D2868844207D0502080F31188D6
:1056C000BFF34F8FBFF36F8FFEE7206D38B1401EE1
:1056D0002065E36CE26A9A421FD040B11DE0502081
:1056E00080F31188BFF34F8FBFF36F8FFEE7201D4C
:1056F000FFF7BCF9E06CE062C0F13800A061E06A3D
:105700002969884200D92861064900EB800001EB35
:105710008000211DFFF7FAF90121084670BD000045
:10572000180000206002002070B5C068C46854B141
:1057300004F118000646FFF799F9144D286B50B193
:105740003146134815E0502080F31188BFF34F8F86
:10575000BFF36F8FFEE7201DFFF788F9E06A296924
:10576000884200D928610B4900EB800001EB8000E2
:10577000211DFFF7CBF9E06A2968C96A884202D97E
:105780000120E86170BD002070BD000018000020FD
:10579000E8060020600200202DE9F0472C4D00248F
:1057A0002746286B38B1FFF7BDF9286B401E2863E8
:1057B000286B40B146E0502080F31188BFF34F8F33
:1057C000BFF36F8FFEE7A968224E0120D1B3A6F583
:1057D000916980463068E0B1F068C46804F118004F
:1057E000FFF744F9201DFFF741F9E06A2969884273
:1057F00000D9286100EB800109EB8100211DFFF732
:1058000085F9E06A2968C96A8842E3D3C5F81C8033
:10581000E0E70CB1FEF7EAFEAC694CB14FEA0806CE
:10582000FFF7DEFE00B1EE61641EF9D10020A86131
:10583000E86938B10849012738070860BFF34F8F7E
:10584000BFF36F8FFFF78EF93846BDE8F087000091
:1058500018000020E806002004ED00E010B586B036
:10586000FEF746FC114C2068B8B10020039004906C
:1058700005AA04A903A8FFF717F9DDE9032102200F
:105880008DE8070000230AA10B48059AFFF769FE7F
:10589000606010B106B0012010BD502080F3118867
:1058A000BFF34F8FBFF36F8FFEE70000540000205F
:1058B000546D722053766300C94600082DE9FF41FC
:1058C0001E46134602000A9D4FF0000016D0144CED
:1058D0002768002F0FD0CDE900130292062917DAAE
:1058E000FFF76AFE02284FF000030FD0002269463E
:1058F0002068FFF723FC04B0BDE8F081502080F35E
:105900001188BFF34F8FBFF36F8FFEE72A46EEE794
:105910000023324669463846FFF7C0FCEBE700003B
:105920005400002090590008000000000000000012
:10593000000000000000000000020000080000005D
:105940000000000000000000845900080000000072
:105950000000000000000000000000000004000043
:10596000280000000000000000000000000000000F
:1059700000000000010203040607080900000000FF
:1059800001020304464F435F5461736B0000000043
:105990004B45595F4C45445F5461736B00000000F8
:1059A00000000000920E493CB10AC93C2BC3163DD1
:1059B0002EFB483D752B7B3D04A9963D80B6AF3D3F
:1059C00036BDC83D2FBCE13D73B2FA3D87CF093EDD
:1059D0008340163EB5AB223EA2102F3ECF6E3B3E1B
:1059E000C2C5473E0115543E135C603E7F9A6C3E33
:1059F000CCCF783EC07D823E938E883E229A8E3EEA
:105A000032A0943E86A09A3EE59AA03E128FA63E12
:105A1000D47CAC3EEF63B23E2A44B83E491DBE3E44
:105A200015EFC33E53B9C93ECA7BCF3E4136D53E82
:105A300080E8DA3E4F92E03E7533E63EBBCBEB3E6C
:105A4000EA5AF13ECBE0F63E275DFC3EE4E7003F3C
:105A50003D9C033F824B063F9BF5083F6B9A0B3FF3
:105A6000DA390E3FCDD3103F2A68133FD9F6153FE0
:105A7000C07F183FC6021B3FD17F1D3FCBF61F3FA3
:105A80009967223F25D2243F5636273F1594293F58
:105A90004AEB2B3FDE3B2E3FBB85303FC9C8323F30
:105AA000F304353F233A373F4268393F3B8F3B3F52
:105AB000F9AE3D3F67C73F3F70D8413F01E2433FEA
:105AC00003E4453F65DE473F12D1493FF8BB4B3FFA
:105AD000029F4D3F207A4F3F3D4D513F4918533F64
