:020000040800F2
:10000000F0180020B1020008AB350008BF3100082D
:10001000A935000809060008A541000800000000F5
:10002000000000000000000000000000F1010008D6
:100030000B060008000000004D0200084D3C0008BF
:10004000CB020008CB020008CB020008CB0200085C
:10005000CB020008CB020008CB020008CB0200084C
:10006000CB020008CB020008CB020008CB0200083C
:10007000CB020008CB020008CB020008CB0200082C
:10008000CB020008CB020008CB020008CB0200081C
:10009000CB02000811060008CB020008CB020008C2
:1000A000CB020008ED3C0008CB020008CB020008A0
:1000B000CB020008CB020008CB020008CB020008EC
:1000C000CB020008CB020008CB020008CB020008DC
:1000D000CB020008CB020008CB020008CB020008CC
:1000E000CB020008CB020008CB020008CB020008BC
:1000F000CB020008CB020008CB020008CB020008AC
:10010000CB020008CB020008CB020008CB0200089B
:10011000CB020008CB020008013D0008CB0200081A
:10012000CB020008CB020008CB020008CB0200087B
:10013000CB020008CB020008CB020008CB0200086B
:10014000CB020008CB020008CB020008CB0200085B
:10015000CB020008CB020008CB020008CB0200084B
:10016000CB020008CB020008CB020008CB0200083B
:10017000CB020008CB020008CB020008CB0200082B
:10018000CB020008CB020008CB020008CB0200081B
:10019000CB02000800000000CB020008CB020008E0
:1001A000CB020008CB020008CB020008CB020008FB
:1001B000CB020008CB020008CB020008CB020008EB
:1001C000CB020008CB020008CB020008CB020008DB
:1001D000CB020008CB020008DFF810D000F004F9D1
:1001E0000048004715440008AFF30080F0180020D5
:1001F0002C4B19680868B0E8F04F80F30988BFF30A
:100200006F8F4FF0000080F31188704700000000EE
:1002100008480068006880F308884FF0000080F309
:10022000148862B661B6BFF34F8FBFF36F8F00DFE4
:1002300000BF00BF08ED00E0DFF80C00016841F4EA
:1002400070010160704700BF88ED00E0EFF30980A6
:10025000BFF36F8F134B1A681EF0100F08BF20ED0D
:10026000108A20E9F04F106009B44FF0500080F37D
:100270001188BFF34F8FBFF36F8F04F0E5FD4FF090
:10028000000080F3118809BC19680868B0E8F04FD5
:100290001EF0100F08BFB0EC108A80F30988BFF37E
:1002A0006F8F704720000020EFF30580704700003B
:1002B0000648804706480047FEE7FEE7FEE7FEE700
:1002C000FEE7FEE7FEE7FEE7FEE7FEE7DD3C0008AF
:1002D000D901000840EA01039B0703D009E008C9DF
:1002E000121F08C0042AFAD203E011F8013B00F8FB
:1002F000013B521EF9D27047D2B201E000F8012B47
:10030000491EFBD270470022F6E710B513460A4695
:1003100004461946FFF7F0FF204610BD00F00042EA
:1003200030F000400AD0C10D01F56071C0F3160035
:1003300042EA0151C20840071143704700200146BC
:10034000704701F0004330B421F0004150EA01024F
:1003500006D00A0DA2F56072C1F31301002A02DC77
:1003600030BC00207047440F44EAC104C100E018CB
:1003700030BC00EBC250AFF300800029A8BF70472B
:10038000401C490008BF20F00100704710B4B0FACB
:1003900080FC00FA0CF050EA010404BF10BC704766
:1003A00049B1CCF1200421FA04F411FA0CF118BF80
:1003B000012121430843A3EB0C01CB1D4FEA00614F
:1003C0004FEA102042BF002010BC704700EBC35022
:1003D00010440029A4BF10BC7047401C490008BF4E
:1003E00020F0010010BC7047064C074D06E0E068A5
:1003F00040F0010394E8070098471034AC42F6D36C
:10040000FFF7EEFEFC5900081C5A00089FED241A65
:10041000B5EE002A45F2F8130021B7EE004AC0F607
:10042000000320EE010A30EE020ABDEEC01AB5EE5E
:10043000C00A11EE100AF1EE10FA9FED1A1AB8BFB9
:10044000013802EE100AB8EEC22A30EE420A9FEDE1
:10045000162A20EE010ABDEEC01A11EE100A30EE87
:10046000021A0246B1EB502F18BF002202EE102AEA
:1004700003EB8203B1EB502F18BFB0EE410AB8EE88
:10048000421A93ED002A93ED013A30EE410A34EE20
:10049000401A20EE030A21EE021A31EE000A7047DC
:1004A00083F9223E00000044000000C49FED221AA0
:1004B00045F2F8130021B7EE004AC0F6000320EE23
:1004C000010ABDEEC01AB5EEC00A11EE100AF1EE37
:1004D00010FA9FED1A1AB8BF013802EE100AB8EEF2
:1004E000C22A30EE420A9FED162A20EE010ABDEE26
:1004F000C01A11EE100A30EE021A0246B1EB502F6C
:1005000018BF002202EE102A03EB8203B1EB502F3A
:1005100018BFB0EE410AB8EE421A93ED002A93EDEF
:10052000013A30EE410A34EE401A20EE030A21EE81
:10053000021A31EE000A704783F9223E000000449F
:10054000000000C4F8B504460020009020688168CF
:1005500011F0010F4AD18168254A114237D18168D3
:10056000D5432940491C81602068B0F1A04F02D0DA
:100570002049884201D1204800E02048806800F0EE
:10058000E07000020DD51E481E490068B0FBF1F076
:10059000401C00EB4000800000E0401E009000285E
:1005A000FBD101F003FA06461BE0816811F0010F50
:1005B00003D181682940491C816001F0F7F9801B53
:1005C00002280ED920680068C043C00709D0E06D3A
:1005D00040F01000E065206E40F001002066012030
:1005E000F8BD20680168C943C907DED10020F8BD05
:1005F0003F00008000010050000300500007005041
:100600001C000020400D0300FEE7704772B6FEE7B5
:10061000014800F070BE00005C0100202DE9F84F99
:100620004FF000090446CDF800900D4694F858208C
:10063000DFF8EC8361694F464846012A0AD001265B
:10064000F84A84F8586041B1296A012905D0A36E9F
:10065000EBB129E00220BDE8F88F6868092838D19D
:10066000A96A4FF4785041B12B6801F07C0100EA8F
:1006700053400843E96A084302E0296800EA514010
:100680002368D96C11400143D964606621E0C4E954
:100690001971A96A286A31B101F07C01401E084332
:1006A000E96A084300E0401E29682B79C1F38461A0
:1006B00003F01F0399400143A06E401EA066636EC5
:1006C00043EA0103636604D12168C86C10401843F3
:1006D000C864206802F07EFD58B995F8250098B1ED
:1006E0002068C16895F8262021F4401141EA425162
:1006F000C160206802F076FD8246206802F06AFD43
:100700005AEA00000DD0FCE095F8260095F8241078
:10071000400540EA01512068C26822F440121143AA
:10072000E6E7A86A30B1E86A20B195F8250001280B
:100730005ED003E095F82500012804D02068C16848
:1007400021F0007103E02068C16841F00071C160D0
:1007500095F83000012852D02068016921F002018B
:100760000161AA6829682068B2F1004F38D002F010
:100770003DFD2068416921F00041416120686969BF
:10078000C268C2F3C102520091402A69042A45D0CE
:1007900000EB82002B68026EDFF88CC203F0F84396
:1007A00002EA0C020B431A4342F000410166206842
:1007B0002A69A96900EB8200026E22F080720A4366
:1007C0000266297F22682869012924D05FF0000190
:1007D00002EB8000026E22F000720A43026690E093
:1007E000002202F003FD2068416941F00041C4E7A6
:1007F000E06D40F02000E0654FF00109A8E7D5E981
:100800000D01084321680A6922F4FF7242F00202D6
:1008100010430861A5E74FF00071D9E7002102F00D
:10082000CFFC400320684FF0000172D002F0C8FCFA
:1008300090FAA0F0B0FA80F1286842036ED090FAE6
:10084000A0F0B0FA80F0814204D100221146206865
:1008500002F0DBFC0121206802F0B2FC40032068BA
:100860004FF001015DD002F0ABFC90FAA0F0B0FABD
:1008700080F12868420359D090FAA0F0B0FA80F0D5
:10088000814204D100220121206802F0BEFC022135
:10089000206802F095FC400320684FF0020148D028
:1008A00002F08EFC90FAA0F0B0FA80F128684203C2
:1008B00044D090FAA0F0B0FA80F0814204D1002236
:1008C0000221206802F0A1FC0321206802F078FCDC
:1008D000400320684FF0030133D002F071FC90FA1E
:1008E000A0F0B0FA80F1286842032FD090FAA0F06F
:1008F000B0FA80F0814204D100220321206802F086
:1009000084FC2068816811F0010F22D0B5E000E07E
:1009100004E002F055FCC0F384618DE7C0F384600D
:1009200091E702F04DFCC0F38461A2E7C0F384605C
:10093000A6E702F045FCC0F38461B7E7C0F384602A
:10094000BBE702F03DFCC0F38461CCE7C0F38460F8
:10095000D0E72A7B296850F8B03FC1F3120C23EA94
:100960000C0302F0180C314A22FA0CF20A4013432D
:100970000360E96841457DD1286841031BD090FAA6
:10098000A0F1B1FA81F1491C01F01F0109294FEAD8
:10099000403131D8002911D090FAA0F1B1FA81F19B
:1009A00001F1010101F01F0106FA01F609D100BFB2
:1009B000C0F3846109E0C0F38461E4E7C0F38461BB
:1009C000EEE790FAA0F1B1FA81F101F1010101F035
:1009D0001F0146EA816102D1C0F3846003E090FA0E
:1009E000A0F0B0FA80F000F1010000F01F0000EB71
:1009F000400041EA00513AE000290ED090FAA0F1FF
:100A0000B1FA81F101F1010101F01F0106FA01F6CD
:100A10000ED100BFC0F384610EE0C0F38461F1E742
:100A200000007F400040100400F0FF03FFFF0700BC
:100A300090FAA0F1B1FA81F101F1010101F01F0179
:100A400046EA816102D1C0F3846003E090FAA0F02D
:100A5000B0FA80F000F1010000F01F003A4A00EB0C
:100A6000400002EB005041EA000141F00071AA6829
:100A7000206800E001E002F0B9FB34482B68034233
:100A80005ED022684FF0A04C3148324E324D624564
:100A900001D0AA4201D1014600E031468968DFF861
:100AA000BC8001F0E071434503D0DFF8B4804345DA
:100AB00020D15FEA01281DD4624505D0294B9A4216
:100AC0003ED1AA4200D0304641F40001826822F0B3
:100AD000E0720A438260244824490068B0FBF1F0C8
:100AE000801C00EB4000800000E0401E00900028C9
:100AF000FBD125E0DFF8788043450FD15FEAC118CC
:100B00000CD4AA4202D11B4B9A4219D0624502D0A2
:100B1000AA4200D0304641F080710CE0DFF85880E6
:100B200043450DD14B020BD4AA4209D0624500D0F7
:100B3000304641F48001826822F0E0720A4382600C
:100B400084F85870484686E5000020FE00000880C2
:100B5000000300500007005000010050000021C3B6
:100B60001000C090000600501C000020400D030043
:100B7000000052C700050050000084CB2DE9F04171
:100B8000044600684FF0A0453E4FA84201D0B8424D
:100B900001D13D4900E03D49896801F01F0602F09E
:100BA00019FB08BB2168C868C96C00F0004011F44B
:100BB000C07F00D190B194F85800012814D00120D2
:100BC00084F858002046FFF7BDFC01004FF00002FA
:100BD0000CD084F858200846BDE8F081E06D40F064
:100BE0002000E0650120F7E70220F5E7E06DC00591
:100BF00004D5206E20F00800206600E02266E06D3B
:100C000042F20103984340F48050E0652068204B95
:100C1000DFF880C0B84201D1AE4604E0984201D16D
:100C2000E64600E08646864500D02EB9D4F85CE062
:100C30002EF4801EC4F85CE04FF0600EC0F800E0B7
:100C400084F858202068B84204D0984201D1654603
:100C500000E00546854209D046B1062E06D0072E93
:100C600004D0E06D40F48010E065B4E7C26812F093
:100C7000007FB0D18268084B1A4042F008028260BF
:100C8000A9E70000000100500003005000070050D9
:100C90000005005000040050C0FFFF7F2DE9F04F19
:100CA000044690F858009BB00F464FF0000B012807
:100CB00012D0012084F85800002617961896206854
:100CC0004FF0A048DFF81C91DFF81CA1474D4045CC
:100CD00006D12846009508E002201BB0BDE8F08F41
:100CE00048450AD15046CDF800A002F07BFA0090AA
:100CF000206802F077FA40B109E0E06D40F0200092
:100D0000E06584F858600120E7E7009850B1E06D95
:100D100040F02000E0654FF0010B00BF84F8586000
:100D20005846DAE720684146884201D0A84201D1FE
:100D30002F4800E02F48D7F800C02F4B40F61F7215
:100D4000BCF1000F2DD0D0F808C094F838802CF4F6
:100D5000604C4CEA483CD7F804804CEA080CC0F8D8
:100D600008C0D4F800C08C4501D0AC4504D18968D6
:100D7000AB6801F0010109E0D9F80810DAF8085071
:100D800001F0010105F001059B68294303F001030F
:100D90001943C3D1BB683968194383689343194326
:100DA0001DE0876827F46047876027688F4201D07D
:100DB000AF4204D18968AB6801F0010109E0D9F8BC
:100DC0000810DAF8085001F0010105F001059B68F0
:100DD000294303F001031943A0D181689143816045
:100DE0009CE7000000040050000500500001005086
:100DF000000300500007005000060050F8B54FF007
:100E0000000504002E46009502D0E06D10B107E009
:100E10000120F8BD204600F009F9266684F85860E4
:100E200020688168C1F3407119B18168734A11402B
:100E3000816020688168C1F3007189B98168704A56
:100E4000114041F0805181606E486F490068B0FBED
:100E5000F1F04000801C00E0401E00900028FBD113
:100E600020688168C1F3007141B9E16D41F0100162
:100E7000E165216E41F001012166012502F0AEF924
:100E8000E16DC90600D430B1E06D40F01000E065BE
:100E900001252846F8BDE06D20F4807040F0020086
:100EA000E0652068816811F0010F27D14FF0A04361
:100EB000564A984201D0904204D19968966801F050
:100EC00001010AE052498968524E01F00101B668F9
:100ED00006F001063143504EB66806F00106314374
:100EE0000CD1984201D0904201D14C4800E04C48CE
:100EF0006168826822F47C120A438260E168E06BD8
:100F0000627F0843A16841EA4231084394F8241003
:100F100040EA0140012904D1218D424A02EB4141BE
:100F20000843E16A29B101F47871226B014342EA76
:100F300001002268D1683C4B19400143D160206810
:100F40000169626B21F0406111430161206802F088
:100F50003DF970BB207F94F838102268800340EA86
:100F60004100D16844F2020399430143D1602069F2
:100F70000028206801690AD041F4803101612068AD
:100F800050F8C01F22696FF30D01114307E021F4EF
:100F900080310161206850F8C01F6FF30D010160BE
:100FA00094F8400001280CD02068016921F001016B
:100FB0000161606901282068016B21F00F0111D0E7
:100FC00013E0D4E911010843D4E913121143084393
:100FD00021680A6940F2FC739A43104340F0010013
:100FE0000861E6E7226A521E11430163E06D20F0BA
:100FF000020040F00100E0654BE70000C0FFFF5F2A
:10100000C0FFFF7F1C000020400D030000010050C6
:10101000000400500005005000060050000300507E
:10102000000700500000FEFF0740F0FF10B59CB025
:101030000446142115A8FFF766F954216846FFF706
:1010400062F92068B0F1A04F26D14FF40040009023
:1010500080031190684600F0CFFD08B1FFF7D6FA83
:101060000E48C16C41F40051C164C16C01F40051DF
:101070001A91C16C41F00101C164C06C15A900F066
:1010800001001A9007201590032016900020179059
:101090004FF0904000F060FB1CB010BD001002400B
:1010A00030B590F85C30012B07D0022B05D0016ED3
:1010B00041F002010166012030BD0468A36D4D07B7
:1010C00001D0DD071DD011F0380F01D09D0718D5D4
:1010D00011F4E07F01D05D0713D511F4F05F01D06A
:1010E0001D070ED511F4604F01D0DD0609D511F4AE
:1010F000403F01D09D0604D511F47C0F05D05D065C
:1011000003D4E56D45F00105E5654C0701D0DC072A
:101110001DD111F0380F01D09C0718D411F4E07FD5
:1011200001D05C0713D411F4F05F01D01C070ED47A
:1011300011F4604F01D0DC0609D411F4403F01D016
:101140009C0604D411F47C0F06D05B0604D503681A
:10115000DC6D44F00204DC650B0604D5036853F82B
:10116000DC4F14431C60CB0504D5036853F8E04FF3
:1011700014431C600068426D0A434265002030BD84
:1011800010B590F85C20012A07D0022A05D0016E24
:1011900041F002010166012010BD0A687AB10B7BA3
:1011A0000A690C7A42EA43734A69406C496842EA28
:1011B000847200EBC100C0E90032002010BD0B7A40
:1011C0004A690C8A42EA83720B7B006CDB06496831
:1011D00043EA04431A4340F82120EEE77047704782
:1011E000F0B590F85C400025022C03D0016E41F070
:1011F000080160E00468402946D0D4F898603607BA
:1012000056D0D4F89860F60104D5D4F88060F6057D
:1012100000D50125D4F89840C4F301246619C46CA4
:1012200006EBC60504EBC504256815F0804555603E
:10123000256843D025F06045156025682C4F05F0E2
:101240000055956020CC05F00045156134F8045B2D
:10125000ADB2D56154F8045CC5F30345D56054F8CC
:10126000045C05F48015556154F8045C05F4001520
:10127000956154F8045CC5F30665156254F8045C86
:10128000ED0F5562002522E0D4F8906036070FD0AC
:10129000D4F89060F60104D5D4F88060B60500D586
:1012A0000125D4F89040C4F301246619846CB7E793
:1012B000016E41F4807101660120F0BDC5F38A45DD
:1012C000BAE700BF14F805C003F805C06D1CD2F8DA
:1012D0000CC017F80CC0AC45F4D80068402903D006
:1012E000C0F89C600020F0BDC0F89460FAE70000F0
:1012F000B451000870472DE9F05F04460068016DA5
:10130000426D01F4E05102EA0108016D426D01F005
:10131000070102EA0109016D426D01F0380102EA9C
:10132000010A016D476D01F471010F40016D426DBD
:1013300001F46021456D02EA010B016DCE43710697
:1013400007D4E943490604D4402101652046FFF74C
:10135000D1FFF0050ED4E843C0050BD42068D0F8C7
:10136000D820D0F8E01011404FF48072026520467A
:1013700000F0EDF9B8F1000005D02168086541469C
:10138000204600F0E6F9B9F1000005D021680865B3
:101390004946204600F0B6F9BAF1000005D02168B0
:1013A00008655146204600F0B9F9B00509D4E84374
:1013B000800506D421684FF400700865204600F0CF
:1013C000C9F930060DD4E84300060AD42068D0F8E5
:1013D000D420D0F8DC10114080220265204600F0B5
:1013E000B7F9B00409D4E843800406D421684FF467
:1013F00000500865204600F0A9F9300409D4E843FC
:10140000000406D421684FF400400865204600F02F
:101410009CF970040AD4E843400407D421684FF4CF
:1014200080400865206E40F080002066BBF100001F
:1014300005D02168086559462046FFF7D0FE27B140
:1014400020680765206E38432066206E002802D091
:101450002046FFF7C3FEBDE8F09F00002DE9F041F4
:10146000040006D0DFF8F48194F85C00002518B180
:1014700007E00120BDE8F08184F85D50204600F0CF
:10148000F9F82068816921F01001816100F08EFA7D
:101490000646032705E000BF00F088FA801B0A28F3
:1014A00011D8206880690007F6D42068816941F06E
:1014B0000101816100F07AFA06460BE000F076FA4D
:1014C000801B0A2806D9206E40F00100206684F8AF
:1014D0005C70CEE720688069C007EFD02068816922
:1014E00041F0020181612168414502D15C49606897
:1014F0000860207C01282068816937D041F04001D4
:101500008161607C01282068816932D021F48041AA
:101510008161A07C0128206881692DD041F480512F
:10152000816120688169A26821F440711143816161
:101530002068816921F0A40181612068016921F09E
:1015400010010161E068012819D010B302281BD0F6
:101550002068816941F0800181612068016941F062
:1015600010010161E06803280ED012E021F0400173
:10157000C6E741F48041CBE721F48051D0E72068F1
:10158000816941F0040103E02068816941F0200194
:101590008161207EE26940066FF0FF0101EB0222CB
:1015A000A0F100701043226AA38A521E10430A025F
:1015B00002EB034318432368D861A068B0F5407F6D
:1015C00010D1D4E90A0301EB0321401E0843216B2B
:1015D000131303EB01110843A18C02EB01410843F3
:1015E0002168C860206850F8C01FE26B1143016099
:1015F0001D4A21681B48914200D11C481C4A914257
:1016000001D100F5D460206451F8802FA38E22F41C
:10161000F81242EA03420A6000F170016164216835
:1016200051F8802F94F8383022F0706242EA036259
:101630000A6000F1B001A164D831E164D8312165BC
:1016400018316165D83100E020C08842FCD3A5651F
:101650002566012084F85C0000200BE70064004050
:101660000065004000A400400068004050A7004012
:10167000006C004010B59CB00446142115A8FEF77C
:1016800042FE54216846FEF73EFE1B492068884210
:1016900030D18014009040030E90684600F0ACFA00
:1016A00008B1FEF7B3FF1548816D41F00071816507
:1016B000816D01F000711A91C16C41F00201C164A9
:1016C000C06C15A900F002001A904FF440701590FC
:1016D00002201690002017901890092019900848B1
:1016E00000F03AF800220521152000F0EDF9152050
:1016F00000F0DCF91CB010BD006400400010024096
:1017000000040048C90704D0024B034A4021FFF7F8
:1017100067BD70470800002010010020704790F856
:101720005C10012905D0016E41F004010166012021
:101730007047022180F85C1001688A6922F001027A
:101740008A610021016608467047704770477047FC
:1017500070477047704700002DE9F04FDFF8209286
:10176000002301260324A9F1040B85B00F2709F1FA
:10177000040AABF1040EFAE006FA03F52A407CD025
:1017800091F804C00CF0030CBCF1010F02D0BCF1C5
:10179000020F26D1D0F808C0CDF800C04FEA430CA4
:1017A00004FA0CF8CDF810C0DDF800C02CEA080CE3
:1017B000CDF800C0D1F80C80DDF810C008FA0CF8A4
:1017C000DDF800C048EA0C08C0F80880D0F804C072
:1017D0002CEA050C0D79C5F300159D4045EA0C0572
:1017E00045600D79ED43AD070ED0C5684FEA43085B
:1017F00004FA08FC25EA0C05D1F808C00CFA08FC2C
:101800004CEA050CC0F80CC00D7905F00305022D5B
:1018100016D1DD0800EB850CCDF808C0DCF820807F
:101820005D074FEAD56C07FA0CF528EA05080D6943
:1018300005FA0CF5DDF808C045EA0805CCF820509B
:1018400005684FEA430CCDF808C004FA0CFC25EA01
:101850000C0591F804C00CF00308DDF808C008FA84
:101860000CF848EA0508C0F800804D6815F4403FC0
:101870007CD0444DD5F860C000E077E04CF0010C1E
:10188000C5F860C02D6E23F0030C05F0010500952E
:101890003D4D65440295AD684FEA837C4FEA1C7864
:1018A00007FA08FC25EA0C05B0F1904F06D0DFF8E6
:1018B000DCC0604505D14FF0010C20E04FF0000C7A
:1018C0001DE0DFF8CCC0604502D14FF0020C16E0FD
:1018D000DFF8C0C0604502D14FF0030C0FE0DFF825
:1018E000B8C0604502D14FF0040C08E0DFF8ACC08E
:1018F000604502D14FF0050C01E04FF0060C0CFAE8
:1019000008FC4CEA050C029DC5F808C0D9F8005047
:10191000CC46D1F8048095435FEAC82800D515432A
:10192000CCF80050DAF80050D446D1F80480954342
:101930005FEA882800D51543CCF80050DBF800504A
:10194000DC46D1F8048095435FEA883800D515431A
:10195000CCF80050DEF80050F446D1F804809543EE
:101960005FEAC83800D51543CCF800505B1C0A6804
:1019700032FA03F57FF400AF05B0BDE8F08F000048
:10198000080401400010024000000140000400482B
:1019900000080048000C00480010004800140048EF
:1019A0000AB1816170478162704700000148806818
:1019B000704700001000002002488168426811440E
:1019C000816070471000002010B50024032000F053
:1019D0009BF80F2000F008F808B1012401E000F0A6
:1019E00047F8204610BD000030B505461B4887B0BB
:1019F000816D41F010018165806D06A900F0100035
:101A0000009001A800F066FB00F084FB1449154A21
:101A1000B0FBF1F11448491E0260416040F2E73228
:101A20000021C0E90321816001F0BBF8040012D15C
:101A30000D4801F0E9F804000DD1362000F036F829
:101A4000102D07D200222946362000F03DF8074825
:101A5000056000E0012407B0204630BD00100240C0
:101A600040420F00001000407002002010000020D3
:101A70000D4808B5016E41F001010166016E01F0EB
:101A800001010091816D41F080518165806D0022DE
:101A900000F0805000900F21901E00F015F8BDE876
:101AA000084000F0A1B8000000100240002809DB47
:101AB00000F01F02012191404009800000F1E02068
:101AC000C0F8001170470000F0B40E4B1B680C46C4
:101AD000C3F30223C3F10705042D00D90425191D02
:101AE000072901D2002300E0DB1E012606FA05F1DA
:101AF000491E214099409E40761E16403143F0BC5D
:101B000002F051BB0CED00E0064900F00702086846
:101B10004FF6FF03184040EA0220034A10430860D2
:101B2000704700000CED00E00000FA052B492C4B3B
:101B30000A6832214A432B4940B1B0F5007F08685A
:101B400029D020F4C06040F480602CE00868C0F325
:101B50004120022804D051F8800F20F4807022E048
:101B6000D1F8800020F48070C1F88000086820F46B
:101B7000C06040F400700860B2FBF3F0401C00E06D
:101B8000401E4A69520501D50028F9D1486940052F
:101B90000AD503207047C0F34120022806D051F82F
:101BA000800F40F48070086000207047D1F88000FA
:101BB00040F48070C1F88000086820F4C06040F4F0
:101BC00000700860B2FBF3F0401C00E0401E4A6960
:101BD0005205DBD50028F9D1D8E700001C00002011
:101BE00040420F00007000400248816841F480418B
:101BF00081607047007000402DE9F843044600689A
:101C00000026BB4D00035ED5A86D0027C00008D498
:101C1000A86D40F08050A865A86D012700F08050A5
:101C20000090DFF8D092D9F8001041F48071C9F823
:101C30000010FFF7BBFE804606E000BFFFF7B6FED0
:101C4000A0EB080002282BD8D9F80000C005F5D574
:101C5000D5F8900010F4407014D0216D814211D05D
:101C6000D5F89000D5F8901020F4407041F4803100
:101C7000C5F89010D5F8901021F48031C5F8901077
:101C8000C5F89000C00711D0FFF790FE804641F2E2
:101C9000883907E0FFF78AFEA0EB0801494501D922
:101CA00003260BE0D5F890008007F3D5D5F8900017
:101CB000216D20F440700843C5F890001FB1A86D55
:101CC00020F08050A8652078C00707D0D5F888009C
:101CD000616820F003000843C5F888002078800779
:101CE00007D5D5F88800A16820F00C000843C5F896
:101CF00088002078400707D5D5F88800E16820F0F3
:101D000030000843C5F888002078000707D5D5F8CB
:101D10008800216920F0C0000843C5F888002078B9
:101D2000C00607D5D5F88800616920F440700843E3
:101D3000C5F888002078800607D5D5F88800A16905
:101D400020F440600843C5F888002078400607D595
:101D5000D5F88800E16920F440500843C5F88800B0
:101D60002078000607D5D5F88800216A20F4404085
:101D70000843C5F888002088C00507D5D5F8880035
:101D8000616A20F440300843C5F888002068800369
:101D900007D5D5F89C00A16A20F003000843C5F8D8
:101DA0009C002088800507D5D5F88800E16A20F4DA
:101DB00040200843C5F88800208840050FD5D5F895
:101DC0008800216B20F440100843C5F88800206B80
:101DD000B0F5801F03D1E86840F48010E8602088E7
:101DE00000050FD5D5F88800616B20F4400008434A
:101DF000C5F88800606BB0F5800F03D1E86840F447
:101E00008010E8602088C0040FD5D5F88800A16B49
:101E100020F040700843C5F88800A06BB0F1807FC7
:101E200003D1E86840F48010E86020884FF000613A
:101E300080040ED5D5F88800E26B20F04060104396
:101E4000C5F88800E06B884203D1E86840F4801050
:101E5000E860208840040ED5D5F88800226C20F078
:101E600040601043C5F88800206C884203D1E868C0
:101E700040F48010E860208800040FD5D5F8880071
:101E8000616C20F040500843C5F88800606CB0F1E8
:101E9000805F03D1E86840F48030E8602068C003C8
:101EA0000FD5D5F88800A16C20F040400843C5F854
:101EB0008800A06CB0F1804F03D1E86840F4803016
:101EC000E860206840030FD5D5F89C00E16C20F451
:101ED00040100843C5F89C00E06CB0F5001F03D12A
:101EE000E86840F48010E8603046BDE8F883000000
:101EF00000100240007000402DE9F0470E4605003A
:101F00004FF0000725D0DFF8AC81D8F8000000F0D2
:101F10000F00B0420CD2D8F8001021F00F0131436D
:101F2000C8F80010D8F8000000F00F00B04210D13F
:101F30002968614CC80741F2883A5AD06868DFF8CE
:101F40007C91032808D0022820682DD04005002865
:101F50002CDB0120BDE8F08720688001F9D5E0681E
:101F600000F00302E068C0F30310401C032A19D0FC
:101F7000534A00BFB2FBF0F0E268C2F306225043BE
:101F8000E268C2F34162521C5200B0FBF2F04845D5
:101F900017D9A06810F0F00F0CD0880711D5A868E9
:101FA00040B10EE0474AE5E78003D0E700F0C4F80F
:101FB000484506D9A06820F0F00040F08000A060FD
:101FC0008027A068696820F003000843A060FFF73D
:101FD000EDFC814606E000BFFFF7E8FCA0EB09013D
:101FE00051453AD8A068696800F00C00B0EB810F49
:101FF000F2D12868810714D5400703D5A06840F4C2
:10200000E060A0602878000705D5A06820F4605043
:1020100040F4E060A060A068A96820F0F0000843E8
:1020200004E0802F03D1A06820F0F000A060D8F871
:102030000010404601F00F01B14216D9016821F0AD
:102040000F0131430160FFF7B1FC074607E000BF15
:10205000FFF7ACFCC11B514501D903207AE7D8F842
:10206000000000F00F00B042F2D12878400705D5FB
:10207000A068E96820F4E0600843A06028780007C1
:1020800006D5A068296920F4605040EAC100A0602C
:1020900000F052F8A1680C4AC1F30311515C01F041
:1020A0001F01C8400949086009480068BDE8F047B9
:1020B000FFF79ABC002002400010024000B4C404A4
:1020C0000024F40000127A00C45100081C00002013
:1020D000100000200F2202600C4A936803F00303F3
:1020E0004360936803F0F0038360936803F4E06354
:1020F000C36092684FF4E06303EAD20202610448CD
:10210000006800F00F0008607047000000100240F7
:10211000002002400548064900688968054AC1F365
:102120000221515C01F01F01C84070471C000020D3
:1021300000100240D4510008184910B58868C0F357
:1021400081021748012A0BD08A684310C2F381022A
:10215000022A06D08A68C2F38102032A03D0002033
:1021600010BD184610BDCA6802F00304CA68C2F365
:102170000312521C032C02D0B0FBF2F001E0B3FBBF
:10218000F2F0CA68C968C2F306225043C1F3416144
:10219000491C4900B0FBF1F010BD000000100240E6
:1021A0000024F4002DE9F84304007AD02078F84D9B
:1021B000C00747D0A868E96800F00C0001F00301EF
:1021C0000C2802D0082817D001E0032914D0606839
:1021D000B0F5803F17D0B0F5A02F286817D020F4B5
:1021E00080302860286820F4802028606068E0B192
:1021F000FFF7DCFB064614E02868800322D5606800
:102200000028D2D01EE0286840F48030EDE740F48A
:1022100080202860F7E700BFFFF7C8FB801B642819
:1022200070D828688003F7D50CE0FFF7BFFB06469F
:1022300005E000BFFFF7BAFB801B6428F0D82868D0
:102240008003F7D4207880074CD5A868E96800F0AF
:102250000C0001F003010C2802D004280DD001E08D
:1022600002290AD0E068002828682BD040F480704A
:102270002860FFF79BFB064619E02868400502D559
:10228000E068002891D06868217C20F0FE4040EA98
:1022900001606860BF480068FFF7A6FB002800D116
:1022A00020E072E1FFF782FB801B0228B8D8286883
:1022B0004005F7D56868217C20F0FE4040EA0160C7
:1022C00068600FE020F480702860FFF76FFB06461F
:1022D00005E000BFFFF76AFB801B0228A0D8286832
:1022E0004005F7D42078000729D560690028D5F883
:1022F000940013D040F00100C5F89400FFF756FB9E
:10230000064606E090E000BFFFF750FB801B022866
:1023100086D8D5F894008007F6D510E020F00100AB
:10232000C5F89400FFF742FB064604E0FFF73EFBCA
:10233000801B022878D8D5F894008007F6D420783E
:10234000400761D5A86D0026C00008D4A86D40F0F4
:102350008050A865A86D012600F0805000908E483E
:102360000168C90511D40168804641F4807101609B
:10237000FFF71CFB074604E0FFF718FBC01B022811
:1023800052D8D8F80000C005F6D5A068012815D0AD
:102390000528D5F8900016D020F00100C5F890006F
:1023A000D5F8900020F00400C5F89000A06841F234
:1023B0008838B8B1FFF7FAFA07460EE0D5F8900072
:1023C00040F00100F0E740F00400C5F89000F5E7A8
:1023D000FFF7ECFAC11B414526D8D5F890008007DD
:1023E000F6D50CE0FFF7E2FA074604E0FFF7DEFA65
:1023F000C11B414518D8D5F890008007F6D41EB10E
:10240000A86D20F08050A8652078800629D5A069A5
:102410000028D5F8980013D040F00100C5F89800C6
:10242000FFF7C4FA064606E075E000BFFFF7BEFA04
:10243000801B02286FD8D5F898008007F6D510E0E9
:1024400020F00100C5F89800FFF7B0FA064604E056
:10245000FFF7ACFA801B02285DD8D5F898008007FA
:10246000F6D4E069F0B3A968C1F3810103295DD016
:102470000228286820F08070286003D0FFF796FAC1
:1024800004464BE0FFF792FA064604E0FFF78EFAA7
:10249000801B02283FD828688001F7D4F4E908019E
:1024A0006FF00F0202EB01110843218A5204490820
:1024B00002EB4151A26841EA02210843217D4FF01D
:1024C0007E42490802EB41610843217B40EAC1603A
:1024D000E968324A11400843E860286840F080709B
:1024E000286000E05EE0E86840F08070E860FFF798
:1024F0005DFA044605E000BFFFF758FA001B02280A
:1025000009D828688001F7D54CE000BFFFF74EFAE4
:10251000001B022802D90320BDE8F8832868800147
:10252000F4D4E8681E490840E8603BE00128F3D095
:10253000E868226A00F00301914226D1616A00F046
:10254000F0020901103991421FD1A26A00F4FE4144
:10255000B1EB022F19D194F82C2000F07841B1EBA7
:10256000C26F12D1218E00F4C00249084905A1F5BD
:102570000011914209D194F8341000F0C06049086C
:102580004906A1F1007181420CD00120C4E700008E
:102590000010024010000020007000400C809F01DD
:1025A000FCFFEEFE0020B7E770B5040009D0606ABA
:1025B000002540B125616561A56294F85D0040B1D8
:1025C0000CE0012070BD6068B0F5827FF4D0E56159
:1025D000F2E784F85C50204600F05CF8022084F8B2
:1025E0005D002068016821F040010160E1684FF45E
:1025F000E062914201D9002001E04FF48050B1F532
:10260000706F02D0914200D0A562A188228901F4A6
:10261000827102F404421143227C02F0020211434F
:10262000227D02F001021143228B02F40072114359
:10263000227F02F03802114394F8202002F0800239
:102640001143228D02F40052114322681160A169E6
:10265000042202EA114194F8242000F4805002F090
:102660001002114394F8342002F008021143A289A9
:1026700002F4706211430143206841602068C1691F
:1026800021F40061C1612566012084F85D0000200D
:1026900070BD000010B586B0044614216846FDF7F1
:1026A00032FE1249206888421DD11148016E41F462
:1026B00080510166016E01F480510591C16C41F0B9
:1026C0000201C164C06C694600F002000590382028
:1026D00000900220019000200290039005200490B9
:1026E0000448FFF739F806B010BD00000030014083
:1026F00000100240000400482DE9FF5F044690F8F6
:102700005C0000260E9F1D4693464FF001090128EC
:102710000FD04FF0010A84F85CA0FFF747F980461C
:1027200094F85D00616801280DD0B1F5827F08D171
:1027300003E0022004B0BDE8F09FA16809B90428B5
:1027400001D0022609E10198002876D0BBF1000FE4
:10275000FBD0002DF9D094F85D00042802D00520AC
:1027600084F85D0000202066C4F840B0A4F846500C
:10277000A4F844500199A163E587A587E06420652A
:10278000E0684FF4E061884201D8012D04D9206847
:10279000426822F4805203E02068426842F480528A
:1027A000426020680268520603D4026842F0400288
:1027B0000260E0688842606848D908B1012D3DD1C7
:1027C000A06B21680088C860A06B801CA063E08FAC
:1027D000401EE08732E02068816889070FD5E18FCD
:1027E00069B1B9F1010F0AD1A16B0988C160A06B71
:1027F000801CA063E08F401EE0874FF00009206836
:102800008168C9070FD0B4F8461061B1C068216C67
:102810000880206C801C2064B4F84600401EA4F898
:1028200046004FF00109FFF7C1F8A0EB0800B842DD
:1028300004D3781C02D003268DE08AE0E08F0028C4
:10284000C9D1B4F846000028C5D177E008B1012D00
:102850006DD1E08F0128A06B08D921680088C8607D
:10286000A06B801CA063E08F801E07E021680078C9
:102870000873A06B401CA063E08F401EE08756E009
:102880002068816889071AD5E18FC1B1B9F1010FBC
:1028900015D1E18F0129A16B07D90988C160A06B0F
:1028A000801CA063E08F801E06E009780173A06B96
:1028B000401CA063E08F401EE0874FF000092068B5
:1028C0008168C90728D0B4F8461029B3B4F8461077
:1028D000012914D9C068216C0880206C801C2064F8
:1028E000B4F84600801EA4F84600B4F8460001285B
:1028F00010D82068416841F4805141600AE0007BB3
:10290000216C0870206C401C2064B4F84600401E06
:10291000A4F846004FF00109FFF748F8A0EB0800C3
:10292000B84202D3781C02D085E7002F83D0E08F15
:102930000028A5D1B4F846000028A1D14246394666
:10294000204600F0CCFF10B1012620202066206E2A
:1029500008B1012601E084F85DA0002084F85C0045
:102960003046E7E6704770477047000030B590F892
:102970003C20012A45D0012280F83C20CA688B689F
:1029800022F440721A434B6822F480621A430B68A7
:1029900022F400621A430B6922F480521A434B69F5
:1029A00022F400521A430B6B22F480421A430B8B21
:1029B00022F4702242EA0342CB6922F080521A4389
:1029C000114D03680024AB4205D0104DAB4202D03C
:1029D0000F4DAB4210D10D8D22F4700242EA055228
:1029E0000D6A22F080722A434D6A22F000722A4357
:1029F000C96A22F000520A435A6480F83C40002021
:102A000030BD022030BD0000002C014000340140E8
:102A1000005001407047704770470000F0B590F8D3
:102A20003C20012A43D0012580F83C50022280F846
:102A30003D2003685A689C681E4E1F4FDFF87CC01B
:102A4000B34203D0BB4201D0634504D122F4700EDF
:102A50004A6842EA0E02DFF868E002EA0E02D1F8A4
:102A600000E04EEA020EC3F804E00268B24212D05F
:102A7000B2F1804F0FD0134B9A420CD0124B9A42B6
:102A800009D0124B9A4206D0BA4204D0104B9A4257
:102A900001D0624504D1896824F080031943916014
:102AA00080F83D50002180F83C100846F0BD02201F
:102AB000F0BD0000002C01400034014000500140F6
:102AC0008FFFFFFD0004004000080040000C0040A4
:102AD0000040014010B50446022249B104290ED03D
:102AE000082913D094F84700012816D0012010BD02
:102AF00094F844000128F9D184F844200FE094F8B8
:102B000045000128F2D184F8452008E094F84600F9
:102B10000128EBD184F8462001E084F84720042204
:102B2000206801F072F92068416C41F40041416471
:102B300013492068884214D0B0F1804F11D0114958
:102B400088420ED0104988420BD01049884208D0E4
:102B50000F49884205D00F49884202D00E49884269
:102B600007D181680D4A1140062906D0B1F5803F92
:102B700003D0016841F001010160002010BD000098
:102B8000002C01400004004000080040000C004000
:102B900000340140004001400050014007000100A6
:102BA000704710B5040003D094F83D0010B107E061
:102BB000012010BD002084F83C00204600F022F8DF
:102BC000022084F83D00211D206801F09FF80120BB
:102BD00084F8480084F83E0084F83F0084F8400000
:102BE00084F8410084F8420084F8430084F84400EB
:102BF00084F8450084F8460084F8470084F83D00D6
:102C0000002010BD7047000090F83D10012901D050
:102C100001207047022180F83D100168CA6842F027
:102C20000102CA6000681349884214D0B0F1804F95
:102C300011D0114988420ED0104988420BD010495A
:102C4000884208D00F49884205D00F49884202D0F7
:102C50000E49884207D181680D4A1140062906D0E5
:102C6000B1F5803F03D0016841F00101016000200F
:102C700070470000002C01400004004000080040A4
:102C8000000C004000340140004001400050014071
:102C90000700010070472DE9F04104460068C6684E
:102CA00005694FF00007A90713D5B10711D5F91E23
:102CB000016101202077206880698007204602D0CA
:102CC000FFF7E8FF04E000F001F9204600F0E0F92A
:102CD0002777680716D5700714D521686FF00400B0
:102CE0000861022020772068806910F4407F204628
:102CF00002D0FFF7CFFF04E000F0E8F8204600F034
:102D0000C7F92777280715D5300713D521686FF045
:102D100008000861042020772068C06980072046E9
:102D200002D0FFF7B7FF04E000F0D0F8204600F033
:102D3000AFF92777E80616D5F00614D521686FF0AD
:102D400010000861082020772068C06910F4407FD7
:102D5000204602D0FFF79EFF04E000F0B7F82046BF
:102D600000F096F92777E80708D0F00706D0216829
:102D70006FF001000861204600F016FA280601D421
:102D8000A80408D5300606D521686FF40250086102
:102D90002046FFF7E8FDE80508D5300606D521688E
:102DA0006FF4807008612046FFF7DCFD680608D5E7
:102DB000700606D521686FF040000861204600F0DB
:102DC000FDF9A80608D5B00606D521686FF02000E9
:102DD00008612046FFF7C8FDE80208D5F00206D5D5
:102DE00021686FF4801008612046FFF714FEA802E6
:102DF00008D5B00206D521686FF40010086120469E
:102E0000FFF708FE680208D5700206D521686FF446
:102E1000800008612046FFF7FFFD28020AD5300236
:102E200008D521686FF4000008612046BDE8F04134
:102E3000FFF7B6BEBDE8F081F0B587B004461421B7
:102E40006846FDF760FA1E492068884236D11D4861
:102E5000C16C41F00201C164C16C01F00201059135
:102E6000C16C41F00101C164C06C022500F0010099
:102E700005904FF4C04000900024CDE9015406268F
:102E8000114FCDE9034669463846FEF765FCA803B5
:102E90000090CDE901540420CDE90340694638464D
:102EA000FEF75AFC4FF4E0600090CDE90154CDE903
:102EB000034669464FF09040FEF74EFC07B0F0BD68
:102EC000002C01400010024000040048704770B51B
:102ED000044690F83C0000260D4601280BD0012046
:102EE00084F83C000C2A4AD007DC82B1042A20D0A6
:102EF000082A06D131E0022070BD102A53D0142ACE
:102F000063D00126002084F83C00304670BD206864
:102F100000F088FF2068816941F008018161206824
:102F2000816921F004018161206881692A69114366
:102F300011E0206800F0CCFF2068816941F4006155
:102F400081612068816921F48061816120688169E3
:102F50002A6941EA02218161D4E7206801F008F87A
:102F60002068C16941F00801C1612068C16921F090
:102F70000401C1612068C1692A69114311E0206818
:102F800001F046F82068C16941F40061C161206820
:102F9000C16921F48061C1612068C1692A6941EA7F
:102FA0000221C161AEE7206801F082F82068016D5E
:102FB00041F0080101652068016D21F004010165FF
:102FC0002068016D2A69114311E0206801F0ACF816
:102FD0002068016D41F4006101652068016D21F4F4
:102FE000806101652068016D2A6941EA022101655D
:102FF00088E710B5040003D094F83D0010B107E055
:10300000012010BD002084F83C00204600F022F88A
:10301000022084F83D00211D206800F077FE012089
:1030200084F8480084F83E0084F83F0084F84000AB
:1030300084F8410084F8420084F8430084F8440096
:1030400084F8450084F8460084F8470084F83D0081
:10305000002010BD08B500680B49884212D10B480A
:10306000016E41F400610166006E002200F4006010
:10307000009005211920FEF727FDBDE80840192022
:10308000FEF714BD08BD0000002C014000100240F6
:103090007047000070B50446022269B1042912D0BD
:1030A000082917D00C291CD0102921D094F84300EE
:1030B000012824D0012070BD94F83E000128F9D1E8
:1030C00084F83E201DE094F83F000128F2D184F8F6
:1030D0003F2016E094F840000128EBD184F840200E
:1030E0000FE094F841000128E4D184F8412008E081
:1030F00094F842000128DDD184F8422001E084F8F0
:1031000043200122206800F073FE1D4920681D4AFB
:103110001D4B1E4D88420BD0904209D0984207D0DB
:103120001B4EB04204D01B4EB04201D0A84203D186
:10313000466C46F4004646642068884211D0B0F1DF
:10314000804F0ED0144988420BD01449884208D0D1
:103150001349884205D0904203D0984201D0A8423A
:1031600007D181680F4A1140062906D0B1F5803F8A
:1031700003D0016841F001010160002070BD000032
:10318000002C01400034014000400140005001404B
:103190000044014000480140000400400008004095
:1031A000000C00400700010000680349884201D17B
:1031B000FEF702BC70470000001000407047FEE7B9
:1031C00000EB8100006E00F0F84070478068C0F3AB
:1031D000C00070478068C0F3C00070478068C0F3CB
:1031E000800070478068C0F380007047042303EAC2
:1031F000D15310B518444369C1F3045107248C40DE
:10320000A3438A401343436110BD00EB8100016E6C
:1032100021F00041114301667047000030B593B0C2
:1032200000240F9410943C2168461194FDF76BF82C
:103230002F484FF0A041042501604FF44031C0E910
:10324000011485610121C460C0E904410477447719
:10325000016280F8244080F83840C46380F8404020
:10326000FDF7CCFD08B1FDF7D1F90FA920480F9467
:10327000FDF714FD08B1FDF7C9F91E4800900920BB
:10328000CDE901047F200594CDE9030503200890D2
:1032900084200A908DF824404FF480708DF82540EA
:1032A0000B908DF826408DF8304069461048FDF7A8
:1032B000B5F908B1FDF7AAF90F48009040F20F10D8
:1032C000019069460A48FDF7A9F908B1FDF79EF992
:1032D0000A48009040F21520019069460448FDF725
:1032E0009DF9002801D0FDF791F913B030BD000021
:1032F000A400002002003004040060080800900CC4
:1033000030B51B4887B019490024C0E90014846017
:10331000C4600474447484740A210125C0E905154D
:103320000821C161C0E908158562C562C0E90C5475
:103330008463C463FEF792F808B1FDF767F900945F
:103340000194CDE902450494694609480594FDF7C6
:1033500017FF08B1FDF75AF90548FEF7E0F900221A
:1033600001210348FDF79CFE07B030BD006400401A
:103370005C01002010B58AB014220B496846FCF7A6
:10338000A9FF0021684601F0ADF8084C0649142257
:103390002060143105A8FCF79DFF002105A801F06D
:1033A000A1F860600AB010BD8C5100080000002038
:1033B000F0B587B014216846FCF7A5FF2A48C16C18
:1033C00041F00401C164C16C01F004010591C16CBC
:1033D00041F02001C164C16C01F020010591C16C74
:1033E00041F00101C164C16C01F001010591C16CA2
:1033F00041F00201C164C16C01F002010591C16C90
:1034000041F00801C164C06C184E00F008004FF490
:1034100060440590002221463046FEF7C1FA144F61
:10342000002204213846FEF7BBFA0125CDE900450C
:1034300000240294694630460394FEF78DF94FF458
:103440007070CDE90004694630460294FEF784F9B5
:103450000420CDE900050220CDE902046946384682
:10346000FEF77AF907B0F0BD0010024000080048EE
:10347000000C0048124810B5104901604FF48271E9
:10348000416000214FF47062C0E902120222026121
:1034900001224261520282611822C0E907210722FB
:1034A0004162C0E90A1201634163FFF77DF8002819
:1034B00003D0BDE81040FDF7A9B810BD00300140B1
:1034C000C001002010B598B00024149415941C215C
:1034D00068461694FCF717FF342107A8FCF713FF82
:1034E00030482F49C0E900142021816040F648513E
:1034F000C0E9031444618461FFF77BFD08B1FDF767
:1035000085F81494159414A926481694FFF786FAA2
:1035100008B1FDF77BF86020CDE900040294039424
:1035200004940594002269461E480694FFF7CFFCD8
:1035300008B1FDF76BF8042269461A48FFF7C7FC8B
:1035400008B1FDF763F8082269461648FFF7BFFC8B
:1035500008B1FDF75BF80C2269461248FFF7B7FC8B
:1035600008B1FDF753F80794089409944FF40050FC
:103570000A94CDE90B400D9400030E94CDE90F4061
:103580001194129407A907481394FFF7EFF908B1B3
:10359000FDF73CF80348FFF74FFC18B010BD0000E2
:1035A000002C014024020020FEE7FEE79FED0B4ABD
:1035B00080ED004A80ED014A80ED024A80ED034A29
:1035C00080ED044A80ED054A80ED064AC0ED071AF9
:1035D0002030A0EC030A80EC042A704700000000B1
:1035E00030EE600A80ED040AD0ED060A70EE800A23
:1035F000C0ED060A90ED081A61EE001AC0ED001A3F
:1036000090ED0B1AF4EEC11AF1EE10FA01DD80ED27
:10361000001AD0ED001AB1EE411AF4EEC11AF1EE23
:1036200010FA01D280ED001A90ED091A61EE201A0D
:10363000C0ED011A90ED0C1AF4EEC11AF1EE10FA79
:1036400001DD80ED011AD0ED011AB1EE411AF4EE60
:10365000C11AF1EE10FA01D280ED011A90ED071AAD
:10366000F4EEC10AF1EE10FA01DD80ED061AD0ED9C
:10367000061AF1EE410AF4EEE01AF1EE10FA01D268
:10368000C0ED060AD0ED050A90ED0A1A70EE600A48
:1036900020EE811A80ED021AD0ED0D0AB4EEE01A88
:1036A000F1EE10FA01DDC0ED020A90ED021AF1EE22
:1036B000600AB4EEE01AF1EE10FA01D2C0ED020A8F
:1036C000D0EC020A70EE810A90ED021A30EE811AF7
:1036D00080ED031AD0ED0E0AB4EEE01AF1EE10FA06
:1036E00001DDC0ED030A90ED031AF1EE600AB4EEBD
:1036F000E01AF1EE10FA01D2C0ED030A80ED050ADE
:1037000090ED030A704790ED070A70479FED0A3A63
:1037100060EE830A60EE810A80EE823AC1EE810A91
:1037200080ED033A20EE800A80ED040A80ED092A3C
:10373000C0ED082A70470000DB0FC94090EC020A78
:1037400030EE600A80ED020AD0ED030A20EE800A16
:1037500080ED050AD0ED060A30EE801A80ED061ADB
:10376000D0ED080AB4EEE01AF1EE10FA01DBC0ED7C
:10377000060A90ED061AF1EE600AB4EEE01AF1EED8
:1037800010FA02D9F0EE410A01E0C0ED060A70EE2F
:10379000200AC0ED070A90ED090AF4EEC00AF1EE26
:1037A00010FA01DB80ED070AD0ED070AB1EE400AFE
:1037B000F4EEC00AF1EE10FA01D880ED070A704766
:1037C00080EC020A704700009FED0C1A80ED050A9C
:1037D000C0ED080A60EE811A61EEA00A21EE802A8F
:1037E00060EE810AB6EE001A80ED062A60EE810ACC
:1037F00020EE800A80ED070A7047000066660E41E1
:1038000010B504462DED028B90ED020A9FED308B32
:10381000B4EE400AF1EE10FA04D0B0EE480AF0EE31
:10382000680A05E010EE100AFCF778FD41EC100B79
:1038300051EC100BFCF785FD00EE100A04F10C00B2
:1038400084ED020A94ED001A84ED011AD4ED050A04
:10385000D4ED041A00EEA10A31EE400A84ED030A09
:1038600001F06CF994ED040AB4EE400AF1EE10FA9E
:1038700005D110EE100AFCF751FD41EC180B51EC8C
:10388000180BFCF75EFD00EE100A04F1080084ED51
:10389000040AD4ED050A94ED031A20EE200AD4EDB3
:1038A000060A00EE810AD4ED020A30EE200A84ED09
:1038B000020A01F043F994ED040AD4ED070A94EDED
:1038C000031A00EE810A84ED040ABDEC028B10BDE0
:1038D000000000000000000080ED000A7047F8B50D
:1038E00015460E460B460092044600224FF4C05186
:1038F00000F01AF888B9334600228021204600954E
:1039000000F082F848B9334600224FF4C0612046E7
:10391000009500F009F8002804D0206E40F0200047
:1039200020660320F8BD00002DE9FE4F4FF0000A8D
:10393000984617460E4604460C9D8DF804A0FEF7E7
:1039400035F8411BA8EB0105FEF730F881462068E9
:103950004FF4C06B0C3002902A480068C0EBC000E6
:1039600000EB8000000D6843009043E05E4506D107
:103970002FB9029800788DF804009DF80400B8F182
:10398000FF3F37D0FEF712F8A0EB0900A84203D2A0
:1039900015B1009858B32BE02068416821F0E00190
:1039A00041606068B0F5827F0BD1A068B0F5004F30
:1039B00002D0B0F5806F04D12068016821F0400189
:1039C0000160A06AB0F5005F09D12068016821F4A8
:1039D000005101602068016841F40051016001203C
:1039E00084F85D0084F85CA00320BDE8FE8F00250C
:1039F000401E0090206880683040B842B6D1002058
:103A0000F3E700001C0000202DE9F8431E46914614
:103A100088460446089DFDF7C9FF401B351AFDF78F
:103A2000C5FF074625480068C0F3CB30684338E03F
:103A3000701C37D0FDF7BAFFC01BA84203D215B1E6
:103A4000009860B32CE02068416821F0E0014160FB
:103A50006068B0F5827F0BD1A068B0F5004F02D04E
:103A6000B0F5806F04D12068016821F04001016049
:103A7000A06AB0F5005F09D12068016821F4005107
:103A800001602068016841F400510160012084F860
:103A90005D00002084F85C000320BDE8F883002569
:103AA000401E00902068816838EA010004D000219F
:103AB0004945BDD10020F0E70121F9E71C000020B5
:103AC000504D00242DED048B82B028684463286893
:103AD00084632868C463642000F0F8FC4A4E002721
:103AE0004FF0A0489FED498A012000F0EFFC4046CE
:103AF00096ED060A50F8801F00EE901AF8EE600A64
:103B000000EE880A86ED060A96ED070A416800EE87
:103B1000901AF8EE600A00EE880A86ED070A96ED24
:103B2000080A80687F1C00EE900A642FF8EE600A95
:103B300000EE880A86ED080AD6DB28684463286808
:103B400084632868C463642000F0C0FC9FED301AD1
:103B5000F1EE043AF1EE042AB0EE413AB1EE042A55
:103B6000DFED2C1ADFED2C0AB0EE480A2B48FFF7E8
:103B70001DFD9FED2B8ADFED2B8A9FED2B9ADFED4C
:103B80002B9A2648F2EE042AB3EE082AF0EE481AE1
:103B9000B0EE681AF0EE490AB0EE690A5038FFF745
:103BA000B5FD1E48F2EE042AB3EE082AF0EE481ADC
:103BB000B0EE681AF0EE490AB0EE690A2838FFF74D
:103BC000A5FDDFED1B0AB0EE690A1A48FFF7FCFD00
:103BD000642000F07BFC18490120086001F008FA1D
:103BE000144C164D164E0090D4ED040A95ED000AC3
:103BF0000A48FFF7F5FC86ED000A0121684601F04E
:103C0000A1F8F1E724020020AC0F00200AD7233CE2
:103C10000000000000409C456F12833AB410002061
:103C2000D122DB3D3065E03800007A44ACC527384E
:103C300000009643401000208C000020A0000020CF
:103C400098000020012000F041FCFBE710B5502057
:103C500080F31188BFF34F8FBFF36F8F01F0CEF960
:103C600018B104494FF080500860002080F311889B
:103C700010BD000004ED00E010B594B03821684696
:103C8000FCF741FB14210EA8FCF73DFB0020FDF7DB
:103C90004DFF012000900004019002200324CDE993
:103CA00007045521CDE909010B900C900D90684651
:103CB000FEF778FA08B172B6FEE70F20CDE90E04E0
:103CC000002010901190129004210EA8FEF714F914
:103CD000002801D072B6FEE714B010BD024801689A
:103CE00041F470010160704788ED00E010B50348B1
:103CF000FEF7D1FFBDE8104000F088BA2402002092
:103D00000148FEF7C8BF0000700200202DE9F04F07
:103D100002682E4B2E4E2F4FDFF8BCC02F4C304D7B
:103D20004FF0804B98420BD0584509D0B04207D095
:103D3000B84205D0604503D0A04201D0A84204D1CA
:103D400022F070084A6842EA0802DFF89880DFF83B
:103D50009890DFF898A0984211D058450FD0B04203
:103D60000DD0B8420BD0604509D0A04207D04045E5
:103D700005D0484503D0504501D0A84203D122F4D4
:103D80004076CA6832434E6922F0800232430260B4
:103D90008A68C2620A688262984209D0A04207D04B
:103DA000404505D0484503D0504501D0A84201D137
:103DB00009690163012141610169C90703D00169F2
:103DC00021F001010161BDE8F08F0000002C0140ED
:103DD0000004004000080040000C00400034014096
:103DE00000500140004001400044014000480140B3
:103DF00010B501F01F030121046A99408C4304624D
:103E0000016A9A401143016210BD10B501F00F0321
:103E10000421046A99408C430462016A9A40114368
:103E2000016210BD2DE9F047056A026A22F0010225
:103E30000262436882691F4C25F0020522400C682B
:103E400022F0030214438A681C4E2A431A4D1C4F69
:103E5000DFF870C0DFF87090DFF870A0A84209D0DA
:103E6000B04207D0B84205D0604503D0484501D0E4
:103E7000504506D122F00808CA6842EA080222F03A
:103E80000402A84209D0B04207D0B84205D060452C
:103E900003D0484501D0504505D14D6923F4407306
:103EA0001D438B692B43436084614968416302620F
:103EB000BDE8F0878FFFFEFF002C01400034014079
:103EC00000400140004401400048014000500140D2
:103ED000F0B5056A026A22F0100202624268836944
:103EE0001C4C1E4E23400C6823F4407343EA042408
:103EF00025F020038D681A4F43EA0513164DA8429A
:103F000003D0B04201D0B84207D1D1F80CC023F0A1
:103F1000800343EA0C1323F04003A8420CD0B042C4
:103F20000AD0104DA84207D00F4DA84204D00F4D23
:103F3000A84201D0B84207D14D6922F4406242EA5A
:103F400085028D6942EA8502426084614968816325
:103F50000362F0BDFF8FFFFE002C014000340140E2
:103F60000050014000400140004401400048014031
:103F7000F0B5056A026A22F4807202624368C2697F
:103F80001C4C1E4E22400C6822F00302144325F400
:103F900000728D681A4F42EA0522174DA84203D0DD
:103FA000B04201D0B84207D1D1F80CC022F400626F
:103FB00042EA0C2222F48062A8420CD0B0420AD01D
:103FC000104DA84207D0104DA84204D00F4DA84272
:103FD00001D0B84207D14D6923F4405343EA051399
:103FE0008D6943EA05134360C4614968C163026295
:103FF000F0BD00008FFFFEFF002C014000340140A7
:104000000050014000400140004401400048014090
:10401000F0B5056A026A22F4805202624268C369FE
:104020001C4C1E4E23400C6823F4407343EA0424C6
:1040300025F400538D681A4F43EA0533164DA84204
:1040400003D0B04201D0B84207D1D1F80CC023F45C
:10405000004343EA0C3323F48043A8420CD0B0421F
:104060000AD0104DA84207D00F4DA84204D00F4DE2
:10407000A84201D0B84207D14D6922F4404242EA39
:1040800085128D6942EA85124260C4614968016403
:104090000362F0BDFF8FFFFE002C014000340140A1
:1040A00000500140004001400044014000480140F0
:1040B00030B5056A026A22F4803202624268036DFA
:1040C000124C23400C681C4325F400330D8943EA4D
:1040D00005430F4DA8420ED00E4DA8420BD00E4DF9
:1040E000A84208D00D4DA84205D00D4DA84202D0DF
:1040F0000C4DA84204D14D6922F4803242EA0522D7
:104100004260046549688164036230BD8FFFFEFF31
:10411000002C0140003401400040014000440140B7
:10412000004801400050014030B5046A026A22F4A0
:10413000801202624268036D134D24F400142B4078
:104140000D6843EA05230D8944EA05540F4DA84242
:104150000ED00F4DA8420BD00E4DA84208D00E4DE8
:10416000A84205D00D4DA84202D00D4DA84204D161
:104170004D6922F4802242EA852242600365496843
:10418000C164046230BD0000FF8FFFFE002C0140BF
:10419000003401400040014000440140004801401B
:1041A00000500140FEE70907090E002804DB00F17A
:1041B000E02080F80014704700F00F0000F1E020CC
:1041C00080F8141D704702E008C8121F08C1002AB9
:1041D000FAD170477047002001E001C1121F002A88
:1041E000FBD1704790ED030A80ED0D0A90ED040AB3
:1041F000D0ED050A30EE600ADFED030A20EE200A5A
:1042000080ED0E0A704700003ACD133F70B56C4C3C
:104210006C4E2DED028B606801287DD16A4800F05C
:10422000E1FB694894ED000AB2EE0C1AD0ED000AE9
:1042300000EE810A84ED020ADFED640A02E000BFAD
:1042400030EE200AB5EEC00AF1EE10FAF8D384ED94
:10425000020A5F4902E000BF30EE600A10EE100A69
:104260008842F9DA84ED020ADFED5A0A564820EE58
:10427000200A203084ED030AFFF72EFB524820303D
:10428000FFF7BEFA4FF0A04151F8800F00EE100A80
:104290004D487438B8EE400AD0ED060A30EE601A88
:1042A00080ED001A4A68D0ED070A00EE102AB8EE39
:1042B000400A70EE601AC0ED011A8968D0ED080A54
:1042C00000EE101AB8EE400A70EE600A9FED420A46
:1042D00000F1080100F1240561EE801A21EE001AB8
:1042E00020EE800AC1EC030A80ED050A85ED041A70
:1042F000C5ED031A85ED050A2430FFF773FF94ED31
:10430000030A284685ED000A00F0A4FB284600F0C9
:1043100000F9D5ED0A0A00E04BE094ED040A2F48BD
:10432000FFF74EFA2D48FFF709FA2C48FFF7EBF993
:10433000F3EE088A9FED2A8AC0EE280A294820EE6B
:10434000880A85ED0C0AD5ED090A94ED050AFFF7F8
:1043500037FA2448FFF7F2F92248FFF7D4F9C0EE04
:10436000280A284620EE880A85ED0B0A00F03CF862
:10437000284600F07FFB95ED060A316830EE080A0A
:10438000BCEEC00A10EE100A486395ED070A3168CA
:1043900030EE080ABCEEC00A10EE100A886395EDF4
:1043A000080A316830EE080ABCEEC00A10EE100AA6
:1043B000C863316801200863BDEC028B70BD00004A
:1043C0008800002024020020201000200000B443B8
:1043D0000000B44335FA8E3C3808043C64100020D9
:1043E0000080BB448C10002090ED0B1AD0ED020A27
:1043F000D0ED0C1A90ED010A21EE202A01EEC02A20
:1044000021EE000A01EEA00A80ED0F2A80ED100ACD
:1044100070470000FDF7D8FAFFF72EFCFEF7C8FF43
:10442000FFF750F8FEF7FAFEFFF724F8FEF768FFF3
:104430002148FCF7A3FB20480068416841F02001B7
:10444000416000211D48FEF725FE00211B48FEF7B4
:1044500041FB04211948FEF71DFE04211748FEF711
:1044600039FB08211548FEF715FE08211348FEF711
:1044700031FB0C211148FEF70DFE104C2068C1687D
:1044800041F00101C160216840F6E4400864002267
:1044900005213420FDF718FB3420FDF707FB2168C8
:1044A00000204863216888632168C863FEF762FFC3
:1044B00000F013F8FEE70000A40000202402002012
:1044C00001460020842900D0C81C704710B500B9EF
:1044D000012000F011FC002010BD10B500F078FCA8
:1044E000002010BD3EB504460D46B0F90800FFF7A8
:1044F000E7FF02A9CDE90001208A2B4682B2D4E968
:10450000001000F049FD012801D000203EBD0298B6
:104510003EBD90ED0D1AD0ED020A90ED0E0AD0EDE1
:10452000011A21EE202A00EE212A20EE200A01EEB7
:10453000610A80ED092A80ED0A0A70472DE9F041F1
:10454000184C0F460546E6682068001D00F016FB73
:1045500038B9206890F82C100120884021698143E7
:104560002161681C07D137B12168BDE8F0410E48D0
:10457000091D00F03CBB20683544B5424560216808
:1045800005D2A06BBDE8F041091D00F018BB606BBF
:10459000091D00F014FBA06A854200D2A562BDE8A7
:1045A000F081000020000020980300202DE9F04158
:1045B000054600F029FB2E4CA068401CA060206836
:1045C0002C4F10B1606940B32DE02560A068012830
:1045D00029D1002606EB860007EB800000F0E1FA07
:1045E000761C072EF6D323488C3000F0DAFA2148E7
:1045F000A03000F0D6FA1F48B43000F0D2FA1D48BF
:10460000C83000F0CEFA1B48DC3000F0CAFA194876
:104610008C3060631430A06305E02068E96AC06AEA
:10462000884200D82560606A401C6062E96A012007
:10463000226988401043206101EB810007EB800074
:10464000291D00F0D4FA00F0FFFA606900280CD0B0
:104650002068E96AC06A884207D207494FF0805053
:104660000860BFF34F8FBFF36F8FBDE8F08100008C
:1046700020000020BC02002004ED00E010B504463C
:10468000006B00F0F5FA2046BDE8104000F0F0BAEB
:1046900010484FF44061420706D0C01D0D4920F07C
:1046A0000700411AC1F540610B4A00230144C2E9E9
:1046B00000030839183A21F0070111604B600B60C4
:1046C0000B1AC0E9001393604FF000405360506133
:1046D00070470000AC03002074000020144E154CFD
:1046E000A6F1C8074FF08058DFF84C9012E000BFE9
:1046F00000F08AFAF068C568281D00F03FFAA0684B
:10470000401EA0606068401E606000F09DFA284670
:10471000FFF7B4FF60680028EAD138680128F9D9AA
:10472000C9F80080BFF34F8FBFF36F8FF2E700002F
:10473000840300202000002004ED00E02DE9F04774
:104740009A46DDE9098481466FF00303206B03EB91
:1047500082021044089E20F00707780707D05020F7
:1047600080F31188BFF34F8FBFF36F8FFEE70025F3
:1047700061B1002023180A5C83F834200A5C12B16E
:10478000401C1028F6D384F8435001E084F83450DC
:10479000072E00D30626E662C4E91165201D00F04D
:1047A0000BFA04F1180000F007FA2461C6F10700C3
:1047B0006462A061E56484F8505052464946384628
:1047C00000F0C0F82060B8F1000F01D0C8F8004038
:1047D000BDE8F08730B5114900E011460A68824211
:1047E000FBD34B685C18844203D14068184448608E
:1047F000084643681C18944209D1084C183C2468A8
:10480000A24209D052681A4442600A6812680260E3
:10481000814200D0086030BD0460F9E774000020D8
:104820000648416B096829B1416BC968C968496884
:10483000816270474FF0FF31FAE70000200000204E
:1048400008484068401C4FF0500080F3118804D0A5
:10485000BFF34F8FBFF36F8FFEE7BFF34F8FBFF3F1
:104860006F8FFEE77C0000202DE9F0410546002710
:1048700000F0E2FA324E306808B9FFF709FF7069BC
:1048800005424ED1C5B3083568070ED005F00700C4
:10489000C0F108000544680707D0502080F3118854
:1048A000BFF34F8FBFF36F8FFEE72DB37068854264
:1048B00037D82348183001460C6801E020460C46E2
:1048C0006168A94202D221680029F7D131688C427F
:1048D00027D007682168016060680837411B1029EC
:1048E0000FD96019420708D0502080F31188BFF318
:1048F0004F8FBFF36F8FFEE713E041606560FFF7F6
:1049000069FF61687068401A7060B268904200D2B6
:10491000B060706901430020C4E90001F068401CE8
:10492000F06000F0D1FB780707D0502080F31188A9
:10493000BFF34F8FBFF36F8FFEE73846BDE8F081BE
:104940005C00002010B5031F4FF080741C601B1F1B
:1049500021F001011960191F044B0B6014390A6022
:10496000091F6FF0020244380A6010BD4148000878
:1049700080ED000AD0ED010A164ADFED171A70EE3D
:10498000600A90ED021AB7EE002A10EE901A9142DA
:1049900006DD31EE421A70EEE10A80ED021A0AE0FD
:1049A00010EE901A0D4A914205D931EE021A70EEBE
:1049B000A10A80ED021A9FED0A1A60EE810AC0ED8D
:1049C000050A80ED010AD0ED020A00EEA10A80ED91
:1049D000030A7047000034430000B443000034C3AE
:1049E000000096437FB5174D044600220421284657
:1049F000FCF7D6FF4AF20300ADF80C000A20009045
:104A0000032301AA03A91048FDF776FE0122042121
:104A10002846FCF7C5FFBDF80600BDF808104001A8
:104A200040EAD12100EE101ADFED080A2046B8EE68
:104A3000400A20EE200ADFED060A20EE200AFFF7EA
:104A400097FF7FBD000C0048C0010020000000352A
:104A50000000B44310B5044690ED000AFBF726FDB4
:104A600084ED010A94ED000AFBF7D0FC84ED020A04
:104A700010BD0000D0ED0F0ABEEE000AD0ED101AF6
:104A800020EE800A9FED2C2AB0EE401A01EE820A39
:104A900001EEC21AF4EEC00AF1EE10FA02DDF0EEF9
:104AA000601A01E0F0EE401AF4EEC11AF1EE10FACD
:104AB0000ADDF4EEC00AF1EE10FA02DDF0EE601A43
:104AC00004E0F0EE401A01E0F0EE411AF4EEC00A04
:104AD000F1EE10FA02D2B0EE602A01E0B0EE402A08
:104AE000B4EEC12AF1EE10FA0AD2F4EEC00AF1EEE9
:104AF00010FA02D2B0EE602A04E0B0EE402A01E0E3
:104B0000B0EE412A31EE822AF6EE001A22EE212A78
:104B100070EEC20A30EE420A70EEE10A30EE610A2F
:104B2000C0ED060A80ED070A31EE420A30EE610A56
:104B300080ED080A70470000D7B35D3F9FED0C0A77
:104B40000C4AD0ED000A03E070EE800AC0ED000AC6
:104B500010EE901A9142F7D8074A00BF10EE901A53
:104B6000914204DB70EEC00AC0ED000AF6E7704720
:104B7000DB0FC940DB0F49C0DB0F4940D0E90132F0
:104B800001699A60D0E901235A604A68824201D1E2
:104B900082684A60002202610868401E0860086856
:104BA000704700F108014FF0FF32C0E90112C16007
:104BB000016100210160704700210161704730B53B
:104BC0000B685A1C02D000F1080202E0026904E0FE
:104BD0002246546825689D42FAD953684B60996013
:104BE0008A60516008610168491C016030BD4268FB
:104BF0004A6093688B6093685960916008610168AE
:104C0000491C016070470000502080F31188BFF3F9
:104C10004F8FBFF36F8F0A494868401C48600128D6
:104C20000CD10848006810F0FF0F07D0502080F327
:104C30001188BFF34F8FBFF36F8FFEE770470000FF
:104C40007C00002004ED00E00849486828B1401EBF
:104C5000486001D180F311887047502080F311889B
:104C6000BFF34F8FBFF36F8FFEE700007C00002083
:104C700070B500282AD0164DA0F108046068696953
:104C8000084207D1502080F31188BFF34F8FBFF344
:104C90006F8FFEE722683AB1502080F31188BFF38E
:104CA0004F8FBFF36F8FFEE78843606000F0C4F85A
:104CB00060686968084468602046FFF78BFD2869D2
:104CC000401C2861BDE8704000F0FEB970BD0000D6
:104CD0005C0000204FF0E020002101618161054966
:104CE0004FF47A720968B1FBF2F1491E4161072164
:104CF000016170471C00002010B5020014D00F485D
:104D0000006B38B1502080F31188BFF34F8FBFF391
:104D10006F8FFEE700F090F800211046FFF70EFCC1
:104D200000F0D2F9002807D105494FF08050086003
:104D3000BFF34F8FBFF36F8F10BD00002000002026
:104D400004ED00E070B50D4604000BD095B11E4A8D
:104D5000106BB8B1502080F31188BFF34F8FBFF3B1
:104D60006F8FFEE7502080F31188BFF34F8FBFF3A2
:104D70006F8FFEE7502080F31188BFF34F8FBFF392
:104D80006F8FFEE700F058F8D268236859199342F4
:104D900004D98B420AD9914202D807E08B42FAD952
:104DA000881A21600021FFF7C9FB00E0216000F0B4
:104DB0008BF9002807D105494FF080500860BFF3F8
:104DC0004F8FBFF36F8F70BD2000002004ED00E017
:104DD0001CB515480024CDE900402346802213A1CC
:104DE000144800F0D9F8012809D0401C1AD15020ED
:104DF00080F31188BFF34F8FBFF36F8FFEE7502012
:104E000080F31188BFF34F8FBFF36F8F06484FF0C9
:104E1000FF312C38816201214161C460BDE81C4032
:104E200000F040B81CBD00004C00002049444C4537
:104E300000000000DD4600080248016B491C0163C8
:104E400070470000200000201448016B11B10121BF
:104E5000C16170470021C1610169B1FA81F1C1F1FD
:104E60001F0101EB81020E4951F822306BB101EBB9
:104E7000820101F108034A6852684A609A4201D1EE
:104E800052684A60D16801607047502080F31188F1
:104E9000BFF34F8FBFF36F8FFEE7000020000020AD
:104EA000BC0200201CB537480168374A914207D13F
:104EB000502080F31188BFF34F8FBFF36F8FFEE751
:104EC00000683149491E884207D1502080F311887B
:104ED000BFF34F8FBFF36F8FFEE72C490878019027
:104EE000FF20087008788DF800009DF800009DF8FC
:104EF000002000F0F000904207D0502080F311888D
:104F0000BFF34F8FBFF36F8FFEE79DF80000204C7B
:104F100000F0500020700720A06005E09DF8002000
:104F200052008DF80020401E9DF800201206F5D496
:104F3000A060032807D0502080F31188BFF34F8F63
:104F4000BFF36F8FFEE74FF44070A06001980870C8
:104F50000C482030016841F470010160016841F0A3
:104F600070410160FFF7B6FE00206060FBF764F956
:104F70000848016841F040410160FBF749F9002011
:104F80001CBD000000ED00E071C20F4100E400E034
:104F90007C00002034EF00E02DE9FF5F8346DDE96F
:104FA0000E87994616468A469000FFF75DFC05007D
:104FB0001AD05420FFF758FC040012D025630021BA
:104FC000CDE90241CDE900874B463246514658466D
:104FD000FFF7B4FB2046FFF7E9FA012004B0BDE873
:104FE000F09F2846FFF744FE4FF0FF30F6E7000041
:104FF0000148C06870470000200000202DE9F04102
:105000002F4C0026206B28B1A069401CA0613046BF
:10501000BDE8F081E5686D1CE56013D1606B006848
:1050200038B1502080F31188BFF34F8FBFF36F8FDB
:10503000FEE7606BA16B6163A063206A401C206285
:10504000FFF7EEFBA06ADFF87C80854209D3606B36
:105050000068A0B1606BC068C7687868854211D2EB
:10506000A0622068C06A00EB800158F82100012886
:1050700000D90126E0690028C9D00126C7E74FF012
:10508000FF30EDE7381DFFF779FDB86A18B107F179
:105090001800FFF773FDF96A012022698840104368
:1050A000206101EB810108EB8100391DFFF79FFDB5
:1050B000F86A2168C96A8842C9D30126C7E7000097
:1050C00020000020BC0200202DE9F0472C4D0024D8
:1050D0002746286B38B1FFF797FD286B401E2863E1
:1050E000286B40B146E0502080F31188BFF34F8F0A
:1050F000BFF36F8FFEE7A968224E0120D1B3A6F15E
:10510000B40980463068E8B1F068C46804F118005A
:10511000FFF734FD201DFFF731FDE06A2A6908FA28
:1051200000F11143296100EB800109EB8100211D91
:10513000FFF75DFDE06A2968C96A8842E2D3C5F8D5
:105140001C80DFE70CB1FFF76BFBAC6944B146464E
:10515000FFF754FF00B1EE61641EF9D10020A86191
:10516000E86938B10849012738070860BFF34F8F55
:10517000BFF36F8FFFF768FD3846BDE8F08700008A
:10518000200000207003002004ED00E0E85100083A
:10519000453C0008FEFF0000000000008000000009
:1051A000DC510008C13A00080200000000000000C5
:1051B000000100000001020304050607080C10149A
:1051C000182030400000000000000000010203042D
:1051D000060708090000000001020304464F435F70
:1051E0005461736B000000004B45595F4C45445FB0
:1051F0005461736B0000000000000000920E493CF7
:10520000B10AC93C2BC3163D2EFB483D752B7B3D97
:1052100004A9963D80B6AF3D36BDC83D2FBCE13DEB
:1052200073B2FA3D87CF093E8340163EB5AB223EAE
:10523000A2102F3ECF6E3B3EC2C5473E0115543EE5
:10524000135C603E7F9A6C3ECCCF783EC07D823E40
:10525000938E883E229A8E3E32A0943E86A09A3E3D
:10526000E59AA03E128FA63ED47CAC3EEF63B23EE0
:105270002A44B83E491DBE3E15EFC33E53B9C93E50
:10528000CA7BCF3E4136D53E80E8DA3E4F92E03EC3
:105290007533E63EBBCBEB3EEA5AF13ECBE0F63E41
:1052A000275DFC3EE4E7003F3D9C033F824B063F09
:1052B0009BF5083F6B9A0B3FDA390E3FCDD3103F79
:1052C0002A68133FD9F6153FC07F183FC6021B3F1F
:1052D000D17F1D3FCBF61F3F9967223F25D2243F48
:1052E0005636273F1594293F4AEB2B3FDE3B2E3F96
:1052F000BB85303FC9C8323FF304353F233A373FBF
:105300004268393F3B8F3B3FF9AE3D3F67C73F3F68
:1053100070D8413F01E2433F03E4453F65DE473F2C
:1053200012D1493FF8BB4B3F029F4D3F207A4F3F80
:105330003D4D513F4918533F31DB543FE595563FB2
:105340005348583F6AF2593F1A945B3F532D5D3FD3
:1053500005BE5E3F2146603F97C5613F5A3C633FB3
:1053600059AA643F880F663FD86B673F3CBF683FD0
:10537000A7096A3F0C4B6B3F5E836C3F93B26D3F56
:105380009ED86E3F73F56F3F0809713F5213723F0D
:105390004714733FDD0B743F0BFA743FC6DE753F55
:1053A00007BA763FC58B773FF853783F9812793F1D
:1053B0009DC7793F02737A3FBE147B3FCDAC7B3FE4
:1053C000283B7C3FC9BF7C3FAC3A7D3FCCAB7D3FA7
:1053D00023137E3FB0707E3F6DC47E3F580E7F3FEB
:1053E0006D4E7F3FAB847F3F0FB17F3F97D37F3FB1
:1053F00043EC7F3F11FB7F3F0000803F11FB7F3F6D
:1054000043EC7F3F97D37F3F0FB17F3FAB847F3F1C
:105410006D4E7F3F580E7F3F6DC47E3FB0707E3F24
:1054200023137E3FCCAB7D3FAC3A7D3FC9BF7C3F71
:10543000283B7C3FCDAC7B3FBE147B3F02737A3F61
:105440009DC7793F9812793FF853783FC58B773FD6
:1054500007BA763FC6DE753F0BFA743FDD0B743F2B
:105460004714733F5213723F0809713F73F56F3F42
:105470009ED86E3F93B26D3F5E836C3F0C4B6B3F8B
:10548000A7096A3F3CBF683FD86B673F880F663FFC
:1054900059AA643F5A3C633F97C5613F2146603F2C
:1054A00005BE5E3F532D5D3F1A945B3F6AF2593F44
:1054B0005348583FE595563F31DB543F4918533F19
:1054C0003D4D513F207A4F3F029F4D3FF8BB4B3F30
:1054D00012D1493F65DE473F03E4453F01E2433FC8
:1054E00070D8413F67C73F3FF9AE3D3F3B8F3B3FE1
:1054F0004268393F233A373FF304353FC9C8323F4A
:10550000BB85303FDE3B2E3F4AEB2B3F1594293FB6
:105510005636273F25D2243F9967223FCBF61F3FBF
:10552000D17F1D3FC6021B3FC07F183FD9F6153FF4
:105530002A68133FCDD3103FDA390E3F6B9A0B3FE9
:105540009BF5083F824B063F3D9C033FE4E7003F4D
:10555000275DFC3ECBE0F63EEA5AF13EBBCBEB3E8C
:105560007533E63E4F92E03E80E8DA3E4136D53E66
:10557000CA7BCF3E53B9C93E15EFC33E491DBE3E5F
:105580002A44B83EEF63B23ED47CAC3E128FA63EB6
:10559000E59AA03E86A09A3E32A0943E229A8E3E84
:1055A000938E883EC07D823ECCCF783E7F9A6C3E03
:1055B000135C603E0115543EC2C5473ECF6E3B3E74
:1055C000A2102F3EB5AB223E8340163E87CF093E48
:1055D00073B2FA3D2FBCE13D36BDC83D80B6AF3D4C
:1055E00004A9963D752B7B3D2EFB483D2BC3163DF4
:1055F000B10AC93C920E493C00000000920E49BC21
:10560000B10AC9BC2BC316BD2EFB48BD752B7BBD93
:1056100004A996BD80B6AFBD36BDC8BD2FBCE1BDE7
:1056200073B2FABD87CF09BE834016BEB5AB22BEAA
:10563000A2102FBECF6E3BBEC2C547BE011554BEE1
:10564000135C60BE7F9A6CBECCCF78BEC07D82BE3C
:10565000938E88BE229A8EBE32A094BE86A09ABE39
:10566000E59AA0BE128FA6BED47CACBEEF63B2BEDC
:105670002A44B8BE491DBEBE15EFC3BE53B9C9BE4C
:10568000CA7BCFBE4136D5BE80E8DABE4F92E0BEBF
:105690007533E6BEBBCBEBBEEA5AF1BECBE0F6BE3D
:1056A000275DFCBEE4E700BF3D9C03BF824B06BF05
:1056B0009BF508BF6B9A0BBFDA390EBFCDD310BF75
:1056C0002A6813BFD9F615BFC07F18BFC6021BBF1B
:1056D000D17F1DBFCBF61FBF996722BF25D224BF44
:1056E000563627BF159429BF4AEB2BBFDE3B2EBF92
:1056F000BB8530BFC9C832BFF30435BF233A37BFBB
:10570000426839BF3B8F3BBFF9AE3DBF67C73FBF64
:1057100070D841BF01E243BF03E445BF65DE47BF28
:1057200012D149BFF8BB4BBF029F4DBF207A4FBF7C
:105730003D4D51BF491853BF31DB54BFE59556BFAE
:10574000534858BF6AF259BF1A945BBF532D5DBFCF
:1057500005BE5EBF214660BF97C561BF5A3C63BFAF
:1057600059AA64BF880F66BFD86B67BF3CBF68BFCC
:10577000A7096ABF0C4B6BBF5E836CBF93B26DBF52
:105780009ED86EBF73F56FBF080971BF521372BF09
:10579000471473BFDD0B74BF0BFA74BFC6DE75BF51
:1057A00007BA76BFC58B77BFF85378BF981279BF19
:1057B0009DC779BF02737ABFBE147BBFCDAC7BBFE0
:1057C000283B7CBFC9BF7CBFAC3A7DBFCCAB7DBFA3
:1057D00023137EBFB0707EBF6DC47EBF580E7FBFE7
:1057E0006D4E7FBFAB847FBF0FB17FBF97D37FBFAD
:1057F00043EC7FBF11FB7FBF000080BF11FB7FBF69
:1058000043EC7FBF97D37FBF0FB17FBFAB847FBF18
:105810006D4E7FBF580E7FBF6DC47EBFB0707EBF20
:1058200023137EBFCCAB7DBFAC3A7DBFC9BF7CBF6D
:10583000283B7CBFCDAC7BBFBE147BBF02737ABF5D
:105840009DC779BF981279BFF85378BFC58B77BFD2
:1058500007BA76BFC6DE75BF0BFA74BFDD0B74BF27
:10586000471473BF521372BF080971BF73F56FBF3E
:105870009ED86EBF93B26DBF5E836CBF0C4B6BBF87
:10588000A7096ABF3CBF68BFD86B67BF880F66BFF8
:1058900059AA64BF5A3C63BF97C561BF214660BF28
:1058A00005BE5EBF532D5DBF1A945BBF6AF259BF40
:1058B000534858BFE59556BF31DB54BF491853BF15
:1058C0003D4D51BF207A4FBF029F4DBFF8BB4BBF2C
:1058D00012D149BF65DE47BF03E445BF01E243BFC4
:1058E00070D841BF67C73FBFF9AE3DBF3B8F3BBFDD
:1058F000426839BF233A37BFF30435BFC9C832BF46
:10590000BB8530BFDE3B2EBF4AEB2BBF159429BFB2
:10591000563627BF25D224BF996722BFCBF61FBFBB
:10592000D17F1DBFC6021BBFC07F18BFD9F615BFF0
:105930002A6813BFCDD310BFDA390EBF6B9A0BBFE5
:105940009BF508BF824B06BF3D9C03BFE4E700BF49
:10595000275DFCBECBE0F6BEEA5AF1BEBBCBEBBE88
:105960007533E6BE4F92E0BE80E8DABE4136D5BE62
:10597000CA7BCFBE53B9C9BE15EFC3BE491DBEBE5B
:105980002A44B8BEEF63B2BED47CACBE128FA6BEB2
:10599000E59AA0BE86A09ABE32A094BE229A8EBE80
:1059A000938E88BEC07D82BECCCF78BE7F9A6CBEFF
:1059B000135C60BE011554BEC2C547BECF6E3BBE70
:1059C000A2102FBEB5AB22BE834016BE87CF09BE44
:1059D00073B2FABD2FBCE1BD36BDC8BD80B6AFBD48
:1059E00004A996BD752B7BBD2EFB48BD2BC316BDF0
:1059F000B10AC9BC920E49BC000000801C5A0008C4
:105A000000000020A4000000C6410008C05A0008A1
:105A1000A40000204C180000D6410008000000003F
:105A20000000000000000000000000001000000066
:105A300001000000000000000024F400000000004D
:105A40000000000000000000000000000000000056
:105A50000000000000000000000000000000000046
:105A60000000000000000000000000000000000036
:105A70000000000000000000000000000000000026
:105A80000000000000000000000000000000000016
:105A9000000000000000000000000000AAAAAAAA5E
:105AA0000000000000004143000000000000000072
:105AB00000000000000000000000000000000000E6
:04000005080001D915
:00000001FF
