:020000040800F2
:1000000060250020B10200087F300008CF2B0008D7
:100010007D300008A1040008A53800080000000099
:10002000000000000000000000000000F1010008D6
:10003000A3040008000000004D020008413300083E
:10004000CB020008CB020008CB020008CB0200085C
:10005000CB020008CB020008CB020008CB0200084C
:10006000CB020008CB020008CB020008CB0200083C
:10007000CB020008CB020008CB020008CB0200082C
:10008000CB020008CB020008CB020008CB0200081C
:10009000CB020008CB020008CB020008CB0200080C
:1000A000CB020008D1330008CB020008CB020008C5
:1000B000CB020008CB020008CB020008CB020008EC
:1000C000CB020008CB020008CB020008CB020008DC
:1000D000CB020008CB020008CB020008CB020008CC
:1000E000CB020008CB020008CB020008CB020008BC
:1000F000CB020008CB020008CB020008CB020008AC
:10010000CB020008CB020008CB020008CB0200089B
:10011000CB020008CB02000801340008CB02000823
:10012000CB020008CB020008CB020008CB0200087B
:10013000CB020008CB020008CB020008CB0200086B
:10014000CB020008CB020008CB020008CB0200085B
:10015000CB020008CB020008CB020008CB0200084B
:10016000CB020008CB020008CB020008CB0200083B
:10017000CB020008CB020008CB020008CB0200082B
:10018000CB020008CB020008CB020008CB0200081B
:10019000CB02000800000000CB020008CB020008E0
:1001A000CB020008CB020008CB020008CB020008FB
:1001B000CB020008CB020008CB020008CB020008EB
:1001C000CB020008CB020008CB020008CB020008DB
:1001D000CB020008CB020008DFF810D000F09EF838
:1001E0000048004721430008AFF30080602500204D
:1001F0002C4B19680868B0E8F04F80F30988BFF30A
:100200006F8F4FF0000080F31188704700000000EE
:1002100008480068006880F308884FF0000080F309
:10022000148862B661B6BFF34F8FBFF36F8F00DFE4
:1002300000BF00BF08ED00E0DFF80C00016841F4EA
:1002400070010160704700BF88ED00E0EFF30980A6
:10025000BFF36F8F134B1A681EF0100F08BF20ED0D
:10026000108A20E9F04F106009B44FF0500080F37D
:100270001188BFF34F8FBFF36F8F04F0F1FF4FF082
:10028000000080F3118809BC19680868B0E8F04FD5
:100290001EF0100F08BFB0EC108A80F30988BFF37E
:1002A0006F8F70471C000020EFF30580704700003F
:1002B0000648804706480047FEE7FEE7FEE7FEE700
:1002C000FEE7FEE7FEE7FEE7FEE7FEE7C1330008D4
:1002D000D901000840EA01039B0703D009E008C9DF
:1002E000121F08C0042AFAD203E011F8013B00F8FB
:1002F000013B521EF9D27047D2B201E000F8012B47
:10030000491EFBD270470022F6E710B513460A4695
:1003100004461946FFF7F0FF204610BD064C074D76
:1003200006E0E06840F0010394E8070098471034C5
:10033000AC42F6D3FFF754FFC8650008E865000833
:100340009FED221A45F6C4530021B7EE004AC0F6CD
:10035000000320EE010ABDEEC01AB5EEC00A11EE90
:10036000100AF1EE10FA9FED1A1AB8BF013802EE2A
:10037000100AB8EEC22A30EE420A9FED162A20EE8D
:10038000010ABDEEC01A11EE100A30EE021A024642
:10039000B1EB502F18BF002202EE102A03EB8203AC
:1003A000B1EB502F18BFB0EE410AB8EE421A93EDF0
:1003B000002A93ED013A30EE410A34EE401A20EE65
:1003C000030A21EE021A31EE000A704783F9223E39
:1003D00000000044000000C4F8B50446002000906E
:1003E000206802F009FCE8BB20688168264A1142B7
:1003F00037D18168D6433140491C81602068B0F113
:10040000A04F02D02149884201D1214800E0214873
:10041000806800F0E07000020DD51F481F49006899
:10042000B0FBF1F0401C00EB4000800000E0401EFB
:1004300000900028FBD101F0EBF805461DE002F02A
:10044000DBFB20B9206881683140491C816001F0E4
:10045000DFF8401B022810D920680068C043C0079D
:100460000BD000E00EE0E06D40F01000E065206E83
:1004700040F0010020660120F8BD20680168C943F2
:10048000C907DCD10020F8BD3F000080000100500A
:10049000000300500007005018000020400D03002A
:1004A000FEE7704772B6FEE730EE203AF6EE003A0D
:1004B00030EEC00A00F1240123EE233A80ED073A22
:1004C00080ED080AC0ED022A81EC031A7047000093
:1004D0002DE9F84F4FF000090446CDF800900D4685
:1004E00094F85820DFF8008461694F464846012A95
:1004F0000AD00126FD4A84F8586041B1296A0129D1
:1005000005D0A36EEBB129E00220BDE8F88F686842
:10051000092838D1A96A4FF4785041B12B6801F00D
:100520007C0100EA53400843E96A084302E0296875
:1005300000EA51402168CB6C13400343CB646066F2
:1005400021E0C4E91971A96A286A31B101F07C017E
:10055000401E0843E96A084300E0401E2968C1F3D1
:100560008463297901F01F018B40A16E0343491E6A
:10057000A166606E40EA0300606604D12168CB6C1E
:1005800013400343CB64206802F032FB58B995F85E
:10059000250098B12068C16895F8262021F4401103
:1005A00041EA4251C160206802F032FB8246206875
:1005B00002F01EFB5AEA00010DD0FAE095F8260081
:1005C00095F82410400540EA01512068C26822F4E1
:1005D00040121143E6E7A86A30B1E86A20B195F805
:1005E000250001285DD003E095F82500012804D0FE
:1005F0002068C16821F0007103E02068C16841F003
:100600000071C16095F83000012851D0206801695F
:1006100021F002010161AA6829682068B2F1004F47
:1006200037D002F008FB2068416921F000414161A8
:1006300020686969C268C2F3C102520091402A6908
:10064000042A43D000EB82002B68026EDFF8A0C2C0
:1006500003F0F84302EA0C020B431A4342F0004154
:10066000016622682869A96902EB8000026E22F007
:1006700080720A430266297F22682869012922D0F4
:10068000002102EB8000026E22F000720A43026633
:100690008FE0002202F0CFFA2068416941F000416A
:1006A000C5E7E06D40F02000E0654FF00109A9E7E3
:1006B000D5E90D1001432068026922F4FF7242F06F
:1006C00002021143A6E74FF00071DAE7002102F0C1
:1006D00085FA400320684FF0000171D002F07EFAE5
:1006E00090FAA0F0B0FA80F1286842036DD090FA39
:1006F000A0F0B0FA80F0814204D1002211462068B7
:1007000002F0B0FA0121206802F068FA4003206884
:100710004FF001015CD002F061FA90FAA0F0B0FA5B
:1007200080F12868420358D090FAA0F0B0FA80F027
:10073000814204D100220121206802F093FA0221B3
:10074000206802F04BFA400320684FF0020147D0C6
:1007500002F044FA90FAA0F0B0FA80F1286842035F
:1007600043D090FAA0F0B0FA80F0814204D1002288
:100770000221206802F076FA0321206802F02EFAA6
:10078000400320684FF0030132D002F027FA90FABC
:10079000A0F0B0FA80F1286842032ED090FAA0F0C1
:1007A000B0FA80F0814204D100220321206802F0D7
:1007B00059FA206802F024FA10B3B3E000E004E034
:1007C00002F00CFAC0F384618EE7C0F3846092E714
:1007D00002F004FAC0F38461A3E7C0F38460A7E7E2
:1007E00002F0FCF9C0F38461B8E7C0F38460BCE7B1
:1007F00002F0F4F9C0F38461CDE7C0F38460D1E77F
:1008000021682A7B286851F8B03FC0F3120C23EA14
:100810000C0302F0180C374A22FA0CF20240134380
:100820000B60E96841457DD1286841031AD090FAF0
:10083000A0F1B1FA81F1491C01F01F0109294FEA29
:10084000403130D8002910D090FAA0F1B1FA81F1EE
:1008500001F1010101F01F0106FA01F608D1C0F310
:10086000846109E0C0F38461E5E7C0F38461EFE7E8
:1008700090FAA0F1B1FA81F101F1010101F01F013B
:1008800046EA816102D1C0F3846003E090FAA0F0EF
:10089000B0FA80F000F1010000F01F0000EB400012
:1008A00041EA00513AE000290DD090FAA0F1B1FAE6
:1008B00081F101F1010101F01F0106FA01F605D1F4
:1008C000C0F3846106E0C0F38461F2E790FAA0F11E
:1008D000B1FA81F101F1010101F01F0146EA8161E4
:1008E0000BD1C0F384600CE000007F400040100496
:1008F00000F0FF03FFFF070014E090FAA0F0B0FA49
:1009000080F000F1010000F01F003A4A00EB4000C7
:1009100002EB005041EA000141F00071AA68206832
:1009200002F089F934482A6802425ED020684FF00C
:10093000A04C324B324E334D604501D0A84201D11C
:10094000194600E031468968DFF8BC8001F0E071AB
:10095000424503D0DFF8B480424520D15FEA012848
:100960001DD4604505D02A4A90423ED1A84200D00D
:10097000334641F40000996821F0E0710143996029
:10098000244825490068B0FBF1F0801C00EB4000D2
:10099000800000E0401E00900028FBD125E0DFF839
:1009A0007C8042450FD15FEAC1180CD4A84202D125
:1009B0001B4A904219D0604502D0A84200D033466D
:1009C00041F080700CE0DFF85C8042450DD14A02B6
:1009D0000BD4A84209D0604500D0334641F48000D2
:1009E000996821F0E0710143996084F85870484695
:1009F0008BE50000000020FE00000880000300508E
:100A00000007005000010050000021C31000C090FA
:100A10000006005018000020400D0300000052C7DF
:100A200000050050000084CB2DE9F0410446006829
:100A30004FF0A0463E4FB04201D0B84201D13D49EF
:100A400000E03D49896801F01F0502F0D1F808BBBC
:100A50002068C168C06C01F0004110F4C07F00D173
:100A600091B194F85800012814D0012084F858005E
:100A70002046FFF7B1FC01004FF000020CD084F8D3
:100A800058200846BDE8F081E06D40F02000E065A8
:100A90000120F7E70220F5E7E06DC00504D5206EE0
:100AA00020F00800206600E02266E06D42F20103BB
:100AB000984340F48050E0652068204BDFF880C008
:100AC000B84201D1B64604E0984201D1E64600E0C2
:100AD0008646864500D02DB9D4F85CE02EF4801E01
:100AE000C4F85CE04FF0600EC0F800E084F85820D5
:100AF0002068B84204D0984201D1664600E006461C
:100B0000864209D045B1062D06D0072D04D0E06DF0
:100B100040F48010E065B4E7C26812F0007FB0D105
:100B20008268084B1A4042F008028260A9E7000080
:100B30000001005000030050000700500005005065
:100B400000040050C0FFFF7F2DE9F04F044690F8ED
:100B500058009BB00D464FF0000B012812D0012029
:100B600084F8580000271797189720684FF0A0487E
:100B7000DFF80C91DFF80CA1434E404506D130461A
:100B8000009608E002201BB0BDE8F08F48450AD16E
:100B90005046CDF800A002F03BF80090206802F02B
:100BA00037F840B109E0E06D40F02000E06584F8DE
:100BB00058700120E7E7009848B1E06D40F0200050
:100BC000E0654FF0010B84F858705846DBE7206869
:100BD000C446604501D0B04201D12C4800E02C4809
:100BE00029682C4B0029816840F61F7221F460416E
:100BF00028D094F8388041EA4831D5F8048041EA99
:100C0000080181602168614501D0B14205D1DCF85D
:100C10000810B368C1F3000109E0D9F80810DAF848
:100C20000860C1F30001C6F300069B683143C3F3BB
:100C300000031943C7D1AB682968194383689343FC
:100C400019431BE081602168614501D0B14205D1A3
:100C5000DCF80810B368C1F3000109E0D9F8081006
:100C6000DAF80850C1F30001C5F300059B68294379
:100C7000C3F300031943A6D1816891438160A2E7C1
:100C80000004005000050050000100500003005017
:100C900000070050000600502DE9F84F00270446D9
:100CA000009790F85800DFF814840D46B9460128E3
:100CB00010D0012684F85860206801F0A5FF58B1D3
:100CC000E06D40F02000E065012784F85890384638
:100CD000BDE8F88F0220FBE7D5E900200C2321684E
:100CE00003EA901319440B6B00F01F004FF01F0C28
:100CF0000CFA00FCC2F3846223EA0C038240134323
:100D00000B63206801F080FF8246206801F06CFFD1
:100D10005AEA00013CD1AA6829682068B2F1004F64
:100D200037D001F079FF2068416921F0004141612D
:100D300020686A69C168C1F3C10149008A40296914
:100D4000042931D000EB81002B68016EDFF870C3FD
:100D500003F0F84301EA0C011343194341F0004149
:100D6000016620682A69A96900EB8200026E22F000
:100D700080720A430266297F22682869012910D0FF
:100D8000002102EB8000026E22F000720A4302662C
:100D90007DE0002201F040FF2068416941F0004100
:100DA000C5E74FF00071ECE7002101F011FF4003AF
:100DB00020684FF0000171D001F00AFF90FAA0F016
:100DC000B0FA80F1286842036DD090FAA0F0B0FA32
:100DD00080F0814204D100221146206801F03AFFE0
:100DE0000121206801F0F4FE400320684FF001016A
:100DF0005CD001F0EDFE90FAA0F0B0FA80F1286826
:100E0000420358D090FAA0F0B0FA80F0814204D1A9
:100E100000220121206801F01DFF0221206801F05D
:100E2000D7FE400320684FF0020147D001F0D0FE0A
:100E300090FAA0F0B0FA80F12868420343D090FA0B
:100E4000A0F0B0FA80F0814204D100220221206893
:100E500001F000FF0321206801F0BAFE4003206882
:100E60004FF0030132D001F0B3FE90FAA0F0B0FAD7
:100E700080F1286842032ED090FAA0F0B0FA80F0FA
:100E8000814204D100220321206801F0E3FE2068A2
:100E900001F0B2FE10B3AAE000E004E001F098FE19
:100EA000C0F384618EE7C0F3846092E701F090FEA6
:100EB000C0F38461A3E7C0F38460A7E701F088FE74
:100EC000C0F38461B8E7C0F38460BCE701F080FE42
:100ED000C0F38461CDE7C0F38460D1E721682A7B49
:100EE000286851F8B03FC0F3120C23EA0C0302F05B
:100EF000180C744A22FA0CF2024013430B60E968A2
:100F0000414574D1286841031AD090FAA0F1B1FA92
:100F100081F1491C01F01F0109294FEA403130D805
:100F2000002910D090FAA0F1B1FA81F101F101018C
:100F300001F01F0106FA01F608D1C0F3846109E04F
:100F4000C0F38461E5E7C0F38461EFE790FAA0F1B4
:100F5000B1FA81F101F1010101F01F0146EA81615D
:100F600002D1C0F3846003E090FAA0F0B0FA80F000
:100F700000F1010000F01F0000EB400041EA0051C9
:100F800031E000290DD090FAA0F1B1FA81F101F120
:100F9000010101F01F0106FA01F605D1C0F38461D9
:100FA00006E0C0F38461F2E790FAA0F1B1FA81F1B2
:100FB00001F1010101F01F0146EA816102D1C0F394
:100FC000846003E090FAA0F0B0FA80F000F1010034
:100FD00000F01F003C4A00EB400002EB005041EAE9
:100FE000000141F00071AA68206801F015FE374841
:100FF0002A6802423FF469AE20684FF0A04C344B9F
:10100000344E354D604501D0A84201D1194600E06B
:1010100031468968DFF8C48001F0E071424503D0B1
:10102000DFF8BC80424521D15FEA01281ED460452B
:1010300006D02C4A90427FF448AEA84200D03346F6
:1010400041F40000996821F0E0710143996026485D
:1010500026490068B0FBF1F0401C00EB4000800026
:1010600000E0401E00900028FBD12EE6DFF88080D3
:1010700042450FD15FEAC1180CD4A84202D11D4AE3
:101080009042F2D0604502D0A84200D0334641F0F1
:1010900080700CE0DFF860804245E6D14A02E4D47B
:1010A000A842E2D0604500D0334641F48000996800
:1010B00021F0E0710143996007E6000000007F40E5
:1010C00000F0FF03FFFF0700000020FE0000088083
:1010D000000300500007005000010050000021C331
:1010E0001000C0900006005018000020400D0300C2
:1010F000000052C700050050000084CBF8B54FF047
:10110000000504002E46009502D0E06D10B107E006
:101110000120F8BD204600F00BF9266684F85860DF
:1011200020688168C1F3407119B18168744A114027
:10113000816020688168C1F3007189B98168714A52
:10114000114041F0805181606F4870490068B0FBE8
:10115000F1F04000801C00E0401E00900028FBD110
:1011600020688168C1F3007141B9E16D41F010015F
:10117000E165216E41F001012166012501F044FD88
:10118000E16DC90600D430B1E06D40F01000E065BB
:1011900001252846F8BDE06D20F4807040F0020083
:1011A000E065206801F028FD40BB20684FF0A043B7
:1011B000574A984201D0904204D199689668C1F389
:1011C00000010AE053498968534EC1F30001B66833
:1011D000C6F300063143514EB668C6F300063143EC
:1011E0000CD1984201D0904201D14D4800E04D48C9
:1011F0006168826822F47C120A438260E168E06BD5
:10120000627F0843A16841EA4231084394F8241000
:1012100040EA0140012904D1218D434A02EB4141BA
:101220000843E16A29B101F47871226B014342EA73
:1012300001002168CA683D4B1A400243CA60206819
:101240000169626B21F0406111430161206801F086
:10125000CBFC70BB207F94F83810800340EA41013A
:101260002068C26844F202039A430A43C2602069BC
:101270000028206801690AD041F4803101612068AA
:1012800050F8C01F22696FF30D01114307E021F4EC
:1012900080310161206850F8C01F6FF30D010160BB
:1012A00094F84000012813D02068016921F0010161
:1012B0000161606901282068016B19D021F00F01DC
:1012C0000163E06D20F0020040F00100E06560E79E
:1012D000D4E911200243D4E91301084302432068F2
:1012E000016940F2FC7399430A4342F00101DFE7D0
:1012F00021F00F02216A491E0A430263E1E7000060
:10130000C0FFFF5FC0FFFF7F18000020400D0300FB
:10131000000100500004005000050050000600507D
:1013200000030050000700500000FEFF0740F0FFE0
:101330002DE9F0419CB00446142115A8FEF7E3FF07
:1013400054216846FEF7DFFF4FF400412068002576
:101350008A033B4F03263B4C4FF09048B0F1A04F1F
:1013600010D0394B984247D168461192009100F055
:1013700075FA08B1FFF796F83868401C3860012804
:101380001FD026E068461192009100F067FA08B17C
:10139000FFF788F83868401C3860012807D1E06CF6
:1013A00040F40050E064E06C00F400501A90E06CEF
:1013B00040F00100E064E06C00F001001A900720AA
:1013C00010E0E06C40F40050E064E06C00F4005089
:1013D0001A90E06C40F00100E064E06C00F0010065
:1013E0001A90C0201795CDE9150615A9404600F0C2
:1013F00031F81CB0BDE8F08114498842F9D1800170
:101400000090C0031290684600F028FA08B1FFF778
:1014100049F8E06C40F48040E064E06C00F4804007
:101420001A90E06C40F00200E064E06C179500F068
:1014300002001A900120CDE9150615A90448D6E747
:10144000080000200010024000010050000400507D
:10145000000400482DE9F84FDFF888910022A9F137
:10146000040B03274FF00F0C09F1040AABF1040E33
:10147000B1E0012595402B4073D00C7904F00304B2
:10148000012C01D0022C15D18668540007FA04F80B
:1014900026EA0806D1F80C8008FA04F848EA06089B
:1014A000C0F808804468AC430D79C5F30015954039
:1014B000254345600C79E443A40708D0C56854006F
:1014C00007FA04F6B5438E68A6402E43C6600C7931
:1014D00004F00304022C11D1D40800EB8406356A11
:1014E0005407E40E0CFA04F825EA0805D1F8108038
:1014F00008FA04F848EA0508C6F820800568540090
:1015000007FA04F6B5430E7906F00306A6402E430B
:1015100006604C6814F4403F5CD0334C256E45F0B7
:1015200001052566246E22F0030504F001040094F1
:101530002E4C05EB0408D8F808509407260F0CFA37
:1015400006F4A543B0F1904F04D0294CA04203D13A
:10155000012417E0002415E0264CA04202D1022409
:1015600010E037E0244CA04201D103240AE0234CD0
:10157000A04201D1042405E0214CA04201D1052460
:1015800000E00624B4402C43C8F80840D9F80040D5
:101590004D464E689C43F60200D51C432C60DAF899
:1015A000004055464E689C43B60200D51C432C6053
:1015B000DBF800405D464E689C43B60300D51C43F3
:1015C0002C60DEF8004075464E689C43F60300D55B
:1015D0001C432C60521C0B6833FA02F47FF449AFB1
:1015E000BDE8F88F080401400010024000000140EF
:1015F0000004004800080048000C004800100048A3
:10160000001400480AB18161704781627047000090
:1016100001488068704700000C0000200248816883
:1016200042681144816070470C00002010B500240E
:10163000032000F09BF80F2000F008F808B1012407
:1016400001E000F047F8204610BD000030B5054627
:101650001B4887B0816D41F010018165806D05A93F
:1016600000F010000690684600F072FB00F090FB5E
:101670001449154AB0FBF1F11448491E026041605B
:1016800040F2E7320021C0E90321816000F08BFFC6
:10169000040012D10D4800F0B9FF04000DD136202E
:1016A00000F036F8102D07D200222946362000F02F
:1016B0003DF80748056000E0012407B0204630BD32
:1016C0000010024040420F0000100040AC02002019
:1016D0000C0000200D4808B5016E41F001010166C3
:1016E000016E01F001010091816D41F08051816531
:1016F000806D002200F0805000900F21901E00F0BD
:1017000015F8BDE8084000F0A1B800000010024044
:10171000002809DB00F01F020121914040098000F0
:1017200000F1E020C0F8001170470000F0B40E4B4B
:101730001B68C3F30223C3F10704042C00D904245B
:101740001D1D072D01D2002300E0DB1E012606FA35
:1017500004F56D1E0D409D409E40761E164045EAE4
:101760000601F0BC02F0B2B80CED00E0064A00F051
:10177000070110684FF6FF03184040EA01200349B3
:1017800008431060704700000CED00E00000FA050F
:101790002B492C4B0A6832214A432B4940B1B0F502
:1017A000007F086829D020F4C06040F480602CE0FD
:1017B0000868C0F34120022804D051F8800F20F4BB
:1017C000807022E0D1F8800020F48070C1F88000A1
:1017D000086820F4C06040F400700860B2FBF3F0C9
:1017E000401C00E0401E4A69520501D50028F9D18D
:1017F000486940050AD503207047C0F341200228FC
:1018000006D051F8800F40F48070086000207047C7
:10181000D1F8800040F48070C1F88000086820F49E
:10182000C06040F400700860B2FBF3F0401C00E0C0
:10183000401E4A695205DBD50028F9D1D8E70000DF
:101840001800002040420F000070004002488168EC
:1018500041F4804181607047007000402DE9F84FED
:10186000044600260068C14D374600035DD5A86DCB
:101870004FF00009C00009D4A86D40F08050A86561
:10188000A86D4FF0010900F080500090DFF8E0A251
:10189000DAF8001041F48071CAF80010FFF7B8FEC2
:1018A000804607E0FFF7B4FEA0EB0800022801D94C
:1018B000032632E0DAF80000C005F3D56EBBD5F898
:1018C000900010F4407014D0216D814211D0D5F8F1
:1018D0009000D5F8901020F4407041F48031C5F8A4
:1018E0009010D5F8901021F48031C5F89010C5F80B
:1018F0009000C0077ED0FFF78BFE804641F2883A09
:1019000005E0FFF785FEA0EB08015145D0D8D5F8DA
:1019100090008007F5D5002E6CD03746B9F1000F46
:1019200003D0A86D20F08050A8652078C00707D0AC
:10193000D5F88800616820F003000843C5F88800E6
:101940002078800707D5D5F88800A16820F00C0022
:101950000843C5F888002078400707D5D5F88800E7
:10196000E16820F030000843C5F8880020780007BF
:1019700007D5D5F88800216920F0C0000843C5F8D4
:1019800088002078C00607D5D5F88800616920F462
:1019900040700843C5F888002078800607D5D5F840
:1019A0008800A16920F440600843C5F888002078C9
:1019B000400607D5D5F88800E16920F44050084377
:1019C000C5F888002078000607D5D5F88800216A78
:1019D00020F440400843C5F888002088C00507D59A
:1019E000D5F88800616A20F440300843C5F88800C3
:1019F000206800E024E0800307D5D5F89C00A16AA8
:101A000020F003000843C5F89C002088800507D516
:101A1000D5F88800E16A20F440200843C5F8880022
:101A20002088400519D5D5F88800216B20F4401096
:101A30000843C5F88800206BB0F5801F09D00CE082
:101A4000D5F89000216D20F440700843C5F890004F
:101A500064E7E86840F48010E860208800050FD54E
:101A6000D5F88800616B20F440000843C5F8880071
:101A7000606BB0F5800F03D1E86840F48010E86037
:101A80002088C0040FD5D5F88800A16B20F04070E5
:101A90000843C5F88800A06BB0F1807F03D1E868E7
:101AA00040F48010E860208881044FF000600ED57B
:101AB000D5F88810E26B21F040611143C5F8881019
:101AC000E16B814203D1E96841F48011E96021882A
:101AD00049040ED5D5F88810226C21F040611143DD
:101AE000C5F88810216C814203D1E86840F4801069
:101AF000E860208800040FD5D5F88800616C20F0DC
:101B000040500843C5F88800606CB0F1805F03D195
:101B1000E86840F48030E8602068C0030FD5D5F84D
:101B20008800A16C20F040400843C5F88800A06CF4
:101B3000B0F1804F03D1E86840F48030E86020685D
:101B400040030FD5D5F89C00E16C20F44010084309
:101B5000C5F89C00E06CB0F5001F03D1E86840F4C4
:101B60008010E8603846BDE8F88F000000100240A1
:101B7000007000402DE9F0470D4604004FF00007CB
:101B800025D0DFF8AC91D9F8000000F00F00A84292
:101B90000CD2D9F8001021F00F012943C9F8001028
:101BA000D9F8000000F00F00A84210D12168614E62
:101BB000C80741F2883A58D06068DFF87C81032872
:101BC00008D0022830682CD0400500282BDB0120EB
:101BD000BDE8F08730688001F9D5F06800F00302B5
:101BE000F068C0F30310401C032A18D0534AB2FB1C
:101BF000F0F0F268C2F306225043F268C2F3416289
:101C0000521C5200B0FBF2F0404517D9B06810F0FA
:101C1000F00F0CD0880711D5A06840B10EE0484AFB
:101C2000E5E78003D1E700F0C5F8404506D9B06884
:101C300020F0F00040F08000B0608027B06861685C
:101C400020F003000843B060FFF7E2FC804605E0A7
:101C5000FFF7DEFCA0EB080151453BD8B068616896
:101C600000F00C00B0EB810FF2D12068810714D591
:101C7000400703D5B06840F4E060B060207800070A
:101C800005D5B06820F4605040F4E060B060B06802
:101C9000A16820F0F000084304E0802F03D1B06871
:101CA00020F0F000B060D9F80010484601F00F01B4
:101CB000A94217D90168C84621F00F0129430160E4
:101CC000FFF7A6FC0746D14606E0FFF7A1FCC11BC3
:101CD000494501D903207BE7D8F8000000F00F0048
:101CE000A842F2D12078400705D5B068E16820F419
:101CF000E0600843B0602078000706D5B06821692D
:101D000020F4605040EAC100B06000F053F8B168C0
:101D10000C4AC1F30311515C01F01F01C8400A498C
:101D200008600A480068BDE8F047FFF78FBC000074
:101D3000002002400010024000B4C4040024F4005B
:101D400000127A00005D0008180000200C0000203E
:101D50000F2202600C4A936803F003034360936808
:101D600003F0F0038360936803F4E063C360926858
:101D70004FF4E06303EAD20202610448006800F015
:101D80000F00086070470000001002400020024071
:101D90000548064900688968054AC1F30221515C7B
:101DA00001F01F01C84070471800002000100240D9
:101DB000105D0008184A10B59068C0F381011748FB
:101DC00001290BD091684410C1F38101022906D08A
:101DD0009168C1F38101032903D0002010BD204682
:101DE00010BDD16801F00303D168C1F30311491C90
:101DF000032B02D0B0FBF1F001E0B4FBF1F0D168AD
:101E0000C1F306214843D168C1F34161491C49002F
:101E1000B0FBF1F010BD0000001002400024F400FF
:101E20002DE9F843040078D02078F54DC00745D05F
:101E3000A868E96800F00C0001F003010C2802D04A
:101E4000082817D001E0032914D06068B0F5803F5E
:101E500017D0B0F5A02F286817D020F48030286064
:101E6000286820F4802028606068D8B1FFF7D0FB94
:101E7000064613E02868800320D560680028D2D089
:101E80001CE0286840F48030EDE740F480202860B2
:101E9000F7E7FFF7BDFB801B64286ED82868800336
:101EA000F7D50BE0FFF7B4FB064604E0FFF7B0FB05
:101EB000801B6428F1D828688003F7D42078800735
:101EC0004BD5A868E96800F00C0001F003010C286C
:101ED00002D004280DD001E002290AD0E0680028D1
:101EE00028682BD040F480702860FFF791FB0646ED
:101EF00019E02868400502D5E068002893D068689A
:101F0000217C20F0FE4040EA01606860BD48006826
:101F1000FFF79CFB002800D11FE06DE1FFF778FB85
:101F2000801B0228B9D828684005F7D56868217C4D
:101F300020F0FE4040EA016068600EE020F480700E
:101F40002860FFF765FB064604E0FFF761FB801B96
:101F50000228A2D828684005F7D42078000728D5A1
:101F600060690028D5F8940012D040F00100C5F84F
:101F70009400FFF74DFB064605E08FE0FFF748FBB6
:101F8000801B022889D8D5F894008007F6D510E088
:101F900020F00100C5F89400FFF73AFB064604E084
:101FA000FFF736FB801B022878D8D5F8940080070D
:101FB000F6D42078400761D5A86D0027C00008D46A
:101FC000A86D40F08050A865A86D012700F08050F2
:101FD00000908D480168C90511D40168804641F41C
:101FE00080710160FFF714FB064604E0FFF710FB69
:101FF000801B022852D8D8F80000C005F6D5A0688A
:10200000012815D00528D5F8900016D020F0010041
:10201000C5F89000D5F8900020F00400C5F89000B5
:10202000A06841F28838B8B1FFF7F2FA06460EE030
:10203000D5F8900040F00100F0E740F00400C5F84A
:102040009000F5E7FFF7E4FA811B414526D8D5F863
:1020500090008007F6D50CE0FFF7DAFA064604E0B8
:10206000FFF7D6FA811B414518D8D5F890008007B4
:10207000F6D41FB1A86D20F08050A86520788006A6
:1020800028D5A0690028D5F8980012D040F00100AA
:10209000C5F89800FFF7BCFA064605E072E0FFF7C6
:1020A000B7FA801B02286DD8D5F898008007F6D5BE
:1020B00010E020F00100C5F89800FFF7A9FA0646E5
:1020C00004E0FFF7A5FA801B02285BD8D5F898003A
:1020D0008007F6D4E069E8B3A968C1F38101032958
:1020E0005BD00228286820F08070286003D0FFF7BA
:1020F0008FFA044649E0FFF78BFA064604E0FFF743
:1021000087FA801B02283DD828688001F7D4F4E9BB
:1021100008016FF00F0202EB01110843218A5204FB
:10212000490802EB4151A26841EA02210843217D9E
:102130004FF07E42490802EB41610843217B40EAAF
:10214000C160E968314A11400843E860286840F0FE
:10215000807000E052E02860E86840F08070E8603D
:10216000FFF756FA044604E0FFF752FA001B022874
:1021700008D828688001F7D540E0FFF749FA001B2E
:10218000022802D90320BDE8F88328688001F4D42E
:10219000E8681F490840E86030E00128F3D0E868AB
:1021A000226A00F00301914226D1616A00F0F00238
:1021B0000901103991421FD1A26A00F4FE41B1EB2E
:1021C000022F19D194F82C2000F07841B1EBC26FA6
:1021D00012D1218E00F4C00249084905A1F5001171
:1021E000914209D194F8341000F0C06049084906C2
:1021F000A1F10071814201D00120C4E70020C2E7B3
:10220000001002400C000020007000400C809F0174
:10221000FCFFEEFE70B5040009D0606A002540B1F5
:1022200025616561A56294F85D0040B10CE0012074
:1022300070BD6068B0F5827FF4D0E561F2E784F8A4
:102240005C50204600F05CF8022084F85D002068B5
:10225000016821F040010160E0684FF4E0629042C3
:1022600001D9002101E04FF48051B0F5706F02D028
:10227000904200D0A562A088228900F4827002F406
:1022800004421043227C02F002021043227D02F03D
:1022900001021043228B02F400721043227F02F0ED
:1022A0003802104394F8202002F080021043228D5F
:1022B00002F40052104322681060A069042202EA6E
:1022C000104094F8242001F4805102F010021043D1
:1022D00094F8342002F008021043A28902F47062DC
:1022E00010430843216848602068C16921F40061F7
:1022F000C1612566012084F85D00002070BD0000EA
:1023000010B586B0044614216846FDF7FCFF12495B
:10231000206888421DD11148016E41F48051016648
:10232000016E01F480510591C16C41F00201C1645C
:10233000C06C694600F00200059038200090022031
:102340000190002002900390052004900448FFF7BC
:1023500081F806B010BD00000030014000100240BE
:1023600000040048704770477047000030B590F88F
:102370003C20012A45D0012280F83C20CA688B68A5
:1023800022F440721A434B6822F480621A430B68AD
:1023900022F400621A430B6922F480521A434B69FB
:1023A00022F400521A430B6B22F480421A430B8B27
:1023B00022F4702242EA0342CB6922F080521A438F
:1023C000114D03680024AB4205D0104DAB4202D042
:1023D0000F4DAB4210D10D8D22F4700242EA05522E
:1023E0000D6A22F080722A434D6A22F000722A435D
:1023F000C96A22F000520A435A6480F83C40002027
:1024000030BD022030BD0000002C014000340140EE
:10241000005001407047704770470000F0B590F8D9
:102420003C20012A43D0012580F83C50022280F84C
:102430003D2003685A689C681E4E1F4FDFF87CC021
:10244000B34203D0BB4201D0634504D122F4700EE5
:102450004A6842EA0E02DFF868E002EA0E02D1F8AA
:1024600000E04EEA020EC3F804E00268B24212D065
:10247000B2F1804F0FD0134B9A420CD0124B9A42BC
:1024800009D0124B9A4206D0BA4204D0104B9A425D
:1024900001D0624504D1896824F08003194391601A
:1024A00080F83D50002180F83C100846F0BD022025
:1024B000F0BD0000002C01400034014000500140FC
:1024C0008FFFFFFD0004004000080040000C0040AA
:1024D0000040014010B5044649B104290AD008293A
:1024E0000BD094F8470001280AD0012010BD94F8C1
:1024F0004400F8E794F84500F5E794F84600F2E761
:102500000220A9B3042937D0082938D084F847001D
:102510000422206800F0F9FF2068416C41F400417A
:10252000416418492068884214D0B0F1804F11D01E
:10253000154988420ED0154988420BD0144988426B
:1025400008D01449884205D01349884202D0134963
:10255000884207D18168124A1140062906D0B1F598
:10256000803F03D0016841F001010160002010BDEF
:10257000FFE784F84400CBE784F84500C8E784F817
:102580004600C5E7002C0140000400400008004060
:10259000000C004000340140004001400050014068
:1025A00007000100704710B5040003D094F83D0007
:1025B00010B107E0012010BD002084F83C00204647
:1025C00000F022F8022084F83D00211D206800F070
:1025D0001DFF012084F8480084F83E0084F83F0085
:1025E00084F8400084F8410084F8420084F84300F5
:1025F00084F8440084F8450084F8460084F84700D5
:1026000084F83D00002010BD7047000090F83D1098
:10261000012901D001207047022180F83D10016896
:10262000CA6842F00102CA6000681349884214D0A7
:10263000B0F1804F11D0114988420ED01049884224
:102640000BD01049884208D00F49884205D00F4965
:10265000884202D00E49884207D181680D4A114054
:10266000062906D0B1F5803F03D0016841F0010191
:102670000160002070470000002C01400004004071
:1026800000080040000C00400034014000400140C0
:10269000005001400700010070472DE9F041044659
:1026A0000068C66805694FF00007A90713D5B10790
:1026B00011D5F91E0161012020772068806980070B
:1026C000204602D0FFF7E8FF04E000F001F92046C1
:1026D00000F0E0F92777680716D5700714D5216850
:1026E0006FF004000861022020772068806910F4F0
:1026F000407F204602D0FFF7CFFF04E000F0E8F86B
:10270000204600F0C7F92777280715D5300713D5DD
:1027100021686FF008000861042020772068C069F4
:102720008007204602D0FFF7B7FF04E000F0D0F8A2
:10273000204600F0AFF92777E80616D5F00614D545
:1027400021686FF010000861082020772068C069B8
:1027500010F4407F204602D0FFF79EFF04E000F017
:10276000B7F8204600F096F92777E80708D0F00779
:1027700006D021686FF001000861204600F01CFAC5
:10278000280601D4A80408D5300606D521686FF4C0
:10279000025008612046FFF7E6FDE80508D530063F
:1027A00006D521686FF4807008612046FFF7DAFDD6
:1027B000680608D5700606D521686FF040000861EC
:1027C000204600F003FAA80608D5B00606D5216811
:1027D0006FF0200008612046FFF7C6FDE80208D52B
:1027E000F00206D521686FF4801008612046FFF7DB
:1027F00012FEA80208D5B00206D521686FF40010B9
:1028000008612046FFF706FE680208D5700206D56B
:1028100021686FF4800008612046FFF7FDFD280263
:102820000AD5300208D521686FF4000008612046FF
:10283000BDE8F041FFF7B6BEBDE8F081F0B587B066
:10284000044614216846FDF75EFD1E492068884253
:1028500036D11D48C16C41F00201C164C16C01F068
:1028600002010591C16C41F00101C164C06C0225F7
:1028700000F0010005904FF4C04000900024CDE925
:1028800001540626114FCDE9034669463846FEF746
:10289000E1FDA8030090CDE901540420CDE90340F7
:1028A00069463846FEF7D6FD4FF4E0600090CDE96A
:1028B0000154CDE9034669464FF09040FEF7CAFD4A
:1028C00007B0F0BD002C0140001002400004004899
:1028D000704770B5044690F83C0000260D4601286C
:1028E0000BD0012084F83C000C2A4AD007DC82B1CE
:1028F000042A20D0082A06D131E0022070BD102A17
:1029000053D0142A63D00126002084F83C003046BE
:1029100070BD206800F006FE2068816941F0080162
:1029200081612068816921F00401816120688169E9
:102930002A69114311E0206800F04AFE206881698D
:1029400041F4006181612068816921F480618161C5
:10295000206881692A6941EA02218161D4E72068FF
:1029600000F086FE2068C16941F00801C16120685D
:10297000C16921F00401C1612068C1692A6911435C
:1029800011E0206800F0C4FE2068C16941F40061D4
:10299000C1612068C16921F48061C1612068C16999
:1029A0002A6941EA0221C161AEE7206800F000FF18
:1029B0002068016D41F0080101652068016D21F07A
:1029C000040101652068016D2A69114311E0206846
:1029D00000F02AFF2068016D41F400610165206864
:1029E000016D21F4806101652068016D2A6941EA69
:1029F0000221016588E710B5040003D094F83D007A
:102A000010B107E0012010BD002084F83C002046F2
:102A100000F022F8022084F83D00211D206800F01B
:102A2000F5FC012084F8480084F83E0084F83F005B
:102A300084F8400084F8410084F8420084F84300A0
:102A400084F8440084F8450084F8460084F8470080
:102A500084F83D00002010BD08B500680B4988428D
:102A600012D10B48016E41F400610166006E002234
:102A700000F40060009005211920FEF757FEBDE824
:102A800008401920FEF744BE08BD0000002C01409C
:102A9000001002407047000070B5044669B1042977
:102AA0000ED008290FD00C2910D0102911D094F87D
:102AB0004300012810D0012070BD94F83E00F8E7D3
:102AC00094F83F00F5E794F84000F2E794F84100ED
:102AD000EFE794F84200ECE70220E9B304294AD07A
:102AE00008294BD00C294CD010294DD084F8430034
:102AF0000122206800F0FCFC25492068254A264B6D
:102B0000264D88420BD0904209D0984207D0244EDF
:102B1000B04204D0234EB04201D0A84203D1466C4B
:102B200046F4004646642068884211D0B0F1804FD8
:102B30000ED01D4988420BD01C49884208D01C4940
:102B4000884205D0904203D0984201D0A84209D1D2
:102B50008168184A114000E00AE0062906D0B1F564
:102B6000803F03D0016841F001010160002070BD89
:102B700084F83E00BCE784F83F00B9E784F84000E1
:102B8000B6E784F84100B3E784F84200B0E70000FC
:102B9000002C014000340140004001400050014041
:102BA000004401400048014000040040000800408B
:102BB000000C00400700010000680349884201D171
:102BC000FEF72CBD70470000001000407047FEE784
:102BD00000EB8100006E00F0F840704700EB8100D0
:102BE000006E00F0F84070478068C0F3C000704786
:102BF0008068C0F3C00070478068C0F30000704771
:102C00008068C0F3000070478068C0F380007047A0
:102C10008068C0F380007047042303EAD15310B5E5
:102C200018444369C1F3045107248C40A3438A40EC
:102C30001343436110BD042303EAD15310B5184474
:102C40004369C1F3045107248C40A3438A401343D2
:102C5000436110BD00EB8100016E21F00041114382
:102C60000166704700EB8100016E21F000411143C5
:102C70000166704730B593B000240F9410943C2146
:102C800068461194FDF73FFB2F484FF0A041042503
:102C900001604FF44031C0E9011485610121C46035
:102CA000C0E9044104774477016280F8244080F849
:102CB0003840C46380F84040FEF720FA08B1FDF7C1
:102CC000F1FB0FA920480F94FDF73EFF08B1FDF777
:102CD000E9FB1E4800900920CDE901047F200594FE
:102CE000CDE903050320089084200A908DF8244044
:102CF0004FF480708DF825400B908DF826408DF8AC
:102D0000304069461048FDF7E3FB08B1FDF7CAFB08
:102D10000F48009040F20F10019069460A48FDF7F5
:102D2000D7FB08B1FDF7BEFB0A48009040F2152022
:102D3000019069460448FDF7CBFB002801D0FDF760
:102D4000B1FB13B030BD0000B80000200800900CAB
:102D5000040060080200300430B589B020216846C4
:102D6000FDF7D1FA19481849002401604FF44031A9
:102D7000C0E90114C46004250461C0E90545047775
:102D800044770121016280F82440C462046380F822
:102D90003840C46380F84040FEF7B0F908B1FDF751
:102DA00081FB0B4800900620CDE901047F200594AB
:102DB000CDE9030569460548FDF76EFF002801D0FF
:102DC000FDF770FB09B030BD000100502401002068
:102DD0000800900C30B58BB0002408940994202191
:102DE00068460A94FDF78FFA1D481C4904250160C6
:102DF0004FF44031C0E90114C4600461C0E90545E5
:102E0000047744770121016280F82440C46204639E
:102E100080F83840C46380F84040FEF76FF908B18D
:102E2000FDF740FB08A90E480894FDF78DFE08B198
:102E3000FDF738FB0B4800900620CDE901047F2008
:102E40000594CDE9030569460548FDF725FF0028EF
:102E500001D0FDF727FB0BB030BD0000000400508F
:102E6000900100200010603210B5074A0021074889
:102E700001F03CFB064C044A002120602432054846
:102E800001F034FB606010BDB85C00083933000805
:102E90000000002055310008F0B587B014216846C5
:102EA000FDF731FA2548C16C41F02001C164C16CC5
:102EB00001F020010591C16C41F00401C164C16CB5
:102EC00001F004010591C16C41F00101C164C16CC4
:102ED00001F001010591C16C41F00201C164C16CB6
:102EE00001F002010591C16C41F00801C164C06CA0
:102EF000134E00F008000590002208213046FEF72E
:102F000081FB104F002204213846FEF77BFB08208E
:102F1000012400258DE831000320039069463046E6
:102F2000FEF798FA0420CDE900040220CDE902055D
:102F300069463846FEF78EFA07B0F0BD0010024031
:102F400000080048000C0048124810B51049016004
:102F50004FF48271416000214FF47062C0E90212A7
:102F60000222026101224261520282611822C0E9FA
:102F7000072107224162C0E90A1201634163FFF79A
:102F800049F9002803D0BDE81040FDF78BBA10BD09
:102F900000300140FC01002010B598B000241494CA
:102FA00015941C2168461694FDF7ADF9342107A845
:102FB000FDF7A9F930482F49C0E9001420218160AC
:102FC00040F64851C0E9031444618461FFF713FDE2
:102FD00008B1FDF767FA1494159414A926481694BD
:102FE000FFF71CFA08B1FDF75DFA6020CDE9000497
:102FF0000294039404940594002269461E480694A2
:10300000FFF767FC08B1FDF74DFA042269461A483C
:10301000FFF75FFC08B1FDF745FA0822694616483C
:10302000FFF757FC08B1FDF73DFA0C22694612483C
:10303000FFF74FFC08B1FDF735FA0794089409949F
:103040004FF400500A94CDE90B400D9400030E9408
:10305000CDE90F401194129407A907481394FFF784
:1030600085F908B1FDF71EFA0348FFF7E7FB18B032
:1030700010BD0000002C014060020020FEE7FEE7CA
:103080009FED0B4A80ED004A80ED014A80ED024A37
:1030900080ED034A80ED044A80ED054A80ED064A42
:1030A000C0ED071A2030A0EC030A80EC042A704718
:1030B000000000009FED0A3A60EE830A60EE810A8C
:1030C00080EE823AC1EE810A80ED033A20EE800A5A
:1030D00080ED040A80ED092AC0ED082A704700003F
:1030E000DB0FC940DFED0C1A80ED050AC0ED080AC0
:1030F00020EEA11A61EE200A21EE002AB6EE001A97
:1031000060EEA10A80ED062A60EE810A20EE800AB8
:1031100080ED070A7047000066660E41DFED0C1A6D
:1031200080ED000AC0ED030A20EEA11A61EE200A2C
:1031300021EE002AB6EE001A60EEA10A80ED012A07
:1031400060EE810A20EE800A80ED020A70470000DE
:1031500066660E412DED068B82B00026624F386800
:103160004663386886633868C663642001F082F974
:103170005E4C00254FF0A0489FED5D8A012001F0D4
:1031800079F9404694ED060A50F8801F00EE901A37
:10319000F8EE600A00EE880A84ED060A94ED070A4C
:1031A000416800EE901AF8EE600A00EE880A84ED9D
:1031B000070A94ED080A80686D1C00EE900A642DE1
:1031C000F8EE600A00EE880A84ED080AD6DB38685B
:1031D0004663386886633868C663642001F04AF93C
:1031E000F2EE043ADFED438AF1EE042AB1EE042A4E
:1031F000B0EE683ADFED401AB0EE681AF0EE480A19
:103200009FED3E0A3E48FFF73BFF9FED3E2A3C48BC
:103210009FED3D3AF0EE423AF0EE682AF0EE681A81
:10322000B1EE041AF0EE680AB1EE000A3C30FFF786
:1032300027FF9FED368ADFED368A9FED36AA9FED98
:10324000369A2F48F2EE042AB3EE082AF0EE481A16
:10325000B0EE681AF0EE4A0AB0EE490A5038FFF7AD
:1032600029FFDFED2E9A2648F2EE042AB3EE082A53
:10327000F0EE481AB0EE691AF0EE4A0AB0EE490ACA
:103280002838FFF717FFDFED260AB0EE490A254878
:10329000FFF728FF1A48DFED240AB0EE490A783814
:1032A000FFF73CFF1648F0EE492A9FED202ADFED9C
:1032B000201AB0EE481AF0EE690AB0EE680A7830CB
:1032C000FDF7F2F8642001F0D5F801F083F8194910
:1032D0000120086002F04EFB009001F08DF8012102
:1032E000684601F0E9FEF8E760020020CC1B0020F0
:1032F0000AD7233C000000000000FA43CDCCCC3DAF
:10330000A81C00200000484300004842F931A63EB6
:10331000CD61AD3900409C45ACC52738BEAF003A01
:1033200000009643F01B002000007042405D464BB9
:1033300033190E3C9C000020012001F09BF8FBE7B4
:1033400010B54FF0E020006902F006FB012803D021
:10335000BDE8104002F030B810BD10B594B038216F
:103360006846FCF7D0FF14210EA8FCF7CCFF002024
:10337000FEF70EFA012000900004019002200324C1
:10338000CDE907045521CDE909010B900C900D9072
:103390006846FEF745FD08B172B6FEE70F20CDE99D
:1033A0000E04002010901190129004210EA8FEF738
:1033B000E1FB002801D072B6FEE714B010BD00009A
:1033C0000248016841F470010160704788ED00E037
:1033D00010B50948FFF761F9084C01220821204681
:1033E000FEF710F900F036FF20460022BDE810403D
:1033F0000821FEF707B9000060020020000800481D
:103400000148FFF74AB90000AC0200202DE9F04F57
:1034100002682E4D2E4E2F4FDFF8BCC02F4B304C84
:103420004FF0804BA8420BD0584509D0B04207D08E
:10343000B84205D0604503D0984201D0A04204D1E3
:1034400022F070084A6842EA0802DFF89880DFF844
:103450009890DFF898A0A84211D058450FD0B042FC
:103460000DD0B8420BD0604509D0984207D04045F6
:1034700005D0484503D0504501D0A04203D122F4E5
:103480004076CA6832434E6922F0800232430260BD
:103490008A68C2620A688262A84209D0984207D04C
:1034A000404505D0484503D0504501D0A04201D148
:1034B00009690163012141610169C90703D00169FB
:1034C00021F001010161BDE8F08F0000002C0140F6
:1034D0000004004000080040000C0040003401409F
:1034E00000500140004001400044014000480140BC
:1034F00010B501F01F010123046A8B409C43046254
:10350000036A8A401343036210BD10B501F00F0136
:103510000423046A8B409C430462036A8A40134379
:10352000036210BD2DE9F047056A026A22F001022C
:103530000262426883691F4C25F0020523400C6833
:1035400023F003031C438B681C4E2B431A4D1C4F66
:10355000DFF870C0DFF87090DFF870A0A84209D0E3
:10356000B04207D0B84205D0604503D0484501D0ED
:10357000504506D123F00808CB6843EA080323F03E
:103580000403A84209D0B04207D0B84205D0604534
:1035900003D0484501D0504505D14D6922F4407211
:1035A00015438A692A434260846149684163036222
:1035B000BDE8F0878FFFFEFF002C01400034014082
:1035C00000400140004401400048014000500140DB
:1035D000F0B5056A026A22F010020262426883694D
:1035E0001C4C1E4E23400C6823F4407343EA042411
:1035F00025F020038D681A4F43EA0513164DA842A3
:1036000003D0B04201D0B84207D1D1F80CC023F0AA
:10361000800343EA0C1323F04003A8420CD0B042CD
:103620000AD0104DA84207D00F4DA84204D00F4D2C
:10363000A84201D0B84207D14D6922F4406242EA63
:1036400085028D6942EA850242608461496881632E
:103650000362F0BDFF8FFFFE002C014000340140EB
:10366000005001400040014000440140004801403A
:10367000F0B5056A026A22F4807202624268C36988
:103680001C4C1E4E23400C6823F003031C4325F4FE
:1036900000738D681A4F43EA0523174DA84203D0E3
:1036A000B04201D0B84207D1D1F80CC023F4006376
:1036B00043EA0C2323F48063A8420CD0B0420AD022
:1036C000104DA84207D0104DA84204D00F4DA8427B
:1036D00001D0B84207D14D6922F4405242EA0512A6
:1036E0008D6942EA05124260C4614968C1630362A0
:1036F000F0BD00008FFFFEFF002C014000340140B0
:103700000050014000400140004401400048014099
:10371000F0B5056A026A22F4805202624268C36907
:103720001C4C1E4E23400C6823F4407343EA0424CF
:1037300025F400538D681A4F43EA0533164DA8420D
:1037400003D0B04201D0B84207D1D1F80CC023F465
:10375000004343EA0C3323F48043A8420CD0B04228
:103760000AD0104DA84207D00F4DA84204D00F4DEB
:10377000A84201D0B84207D14D6922F4404242EA42
:1037800085128D6942EA85124260C461496801640C
:103790000362F0BDFF8FFFFE002C014000340140AA
:1037A00000500140004001400044014000480140F9
:1037B00030B5056A026A22F4803202624268036D03
:1037C000124C23400C681C4325F400330D8943EA56
:1037D00005430F4DA8420ED00E4DA8420BD00E4D02
:1037E000A84208D00D4DA84205D00D4DA84202D0E8
:1037F0000C4DA84204D14D6922F4803242EA0522E0
:103800004260046549688164036230BD8FFFFEFF3A
:10381000002C0140003401400040014000440140C0
:10382000004801400050014030B5056A026A22F4A8
:10383000801202624268036D134C23400C6843EA15
:10384000042425F400130D8943EA05530F4DA842C3
:103850000ED00F4DA8420BD00E4DA84208D00E4DF1
:10386000A84205D00D4DA84202D00D4DA84204D16A
:103870004D6922F4802242EA85224260046549684B
:10388000C164036230BD0000FF8FFFFE002C0140C9
:103890000034014000400140004401400048014024
:1038A00000500140FEE74100080218BF04200A0E44
:1038B00018BF40F001004FF07F4232EA010108BF1B
:1038C00040F00200012808BF052070470907090ED3
:1038D000002804DB00F1E02080F80014704700F0BD
:1038E0000F0000F1E02080F8141D704710EE101A50
:1038F00008B5444A6846B2EB410F28D94FF0E6407C
:10390000B0EB410F94BF00204FF0FF3000900098C3
:10391000002861DB60EE000A10F0010F45D010F0C6
:10392000020FDFED391A9FED391A00EEE11ADFEDD3
:10393000381A40EE811A21EEA01AF0EE400A40EE4D
:10394000010A08BFF1EE600AB0EE600A08BD314B13
:1039500021F0004293423CD911F0004FDFED2E0AD6
:1039600020EE201ADFED2D0A19BF31EE601A71EE3C
:10397000200A31EE201A71EE600ABDEEE01A11EE57
:10398000100A9FED271A00F0030000EEC10A9FED18
:10399000251A009000EEC10A9FED231A00EEC10A1D
:1039A0009FED221A00EEC10AB1E79FED211A9FEDAB
:1039B000210A10F0020F00EE810A9FED1F1A00EE9F
:1039C000801AB7EE000A00EE810A18BFB1EE400A75
:1039D00008BD00F05FFB9AE710EE100A4000B0F15E
:1039E0007F4F3CBFB7EE000A08BD07D14FF0010082
:1039F00000F00AFCBDE8084000F034BBBDE8084018
:103A000000F02CBBB61F927E336D4C39DA82083C35
:103A1000A0AA2ABE490E494683F9223F0000004B66
:103A20000000C93F00A0FD390020A2331A61342CE8
:103A3000B93AB2BACA9F2A3DDDFFFFBE10B510EEFB
:103A4000104A4FF019406849002200EB44002DED68
:103A5000028B884257D8DFED650A14F0004F60EE04
:103A6000200A14BFBEEE001AB6EE001A71EE200A4C
:103A7000FDEEE00A10EE900A00EE900AF8EEE00A81
:103A80009FED5B1A00EEC10A9FED5A1A00EEC10AC3
:103A9000DFED590A9FED591A00EE201ADFED580AA2
:103AA00040EE010A9FED571A574B00F0030100EE5C
:103AB000201A21EE000A7B4403EB8103D3ED000AB8
:103AC000524B7B4403EB810393ED001A504B41EEC4
:103AD000000A7B4403EB8101801091ED000A70EE37
:103AE000800AEABB00EE100AB8EEC01ADFED491AF0
:103AF0009FED490ABDEC028B01EE210ABCEEC00A23
:103B000020EE200A10BD4FF0FF40A0431BD04FF025
:103B1000CE40B0EB440F82BFB7EE000ABDEC028B83
:103B200010BD3E48B0EB440F28BF012293D20220C3
:103B300000F06AFB14F0004F15D0BDEC028BBDE81D
:103B4000104000F09FBA14F5000F02BF9FED340A39
:103B5000BDEC028B10BDBDEC028BBDE8104000E057
:103B600007E000F07BBABDEC028BBDE8104000F02E
:103B700081BA00EBD07359104FF07E5202EBC15165
:103B800000EE101AA0EB630002EBC05060EE200ABA
:103B900000EE100A20EE208A18EE100A88B118EE06
:103BA000100AB0F1FF4F15D018EE100AFFF77BFE98
:103BB000042808BF00F066FAB0EE480ABDEC028B9C
:103BC00010BD022000F020FBBDEC028BBDE81040D0
:103BD00000F058BA022000F017FBBDEC028BBDE8E4
:103BE000104000F047BA00000000501E3BAAB84049
:103BF0000070313EF4FD053712BB2A3D12BB2A3E50
:103C0000FFFFFF3EFFFF7F3FAE220000B222000019
:103C1000822200000000004B00007E4E0000A085C4
:103C20000000000010EE100A10B50023A0F50001FE
:103C3000B1F1FE4F67D200BF00F500216FF07E02A8
:103C400002EBE15CC1F302524FF07E5101EB0251F5
:103C500000EE901AA0EBCC5003EB0C0100EE100A22
:103C600051EA020036D030EE601A70EE200A9FED65
:103C70003D2A3E4881EE200A9FED3B1A60EE000A85
:103C800000EE821A60EE201A61EE810A784401EE9D
:103C9000101A00EB82009FED362AB8EEC11AD0ED63
:103CA000001A344841EE021A784401EE101A00EB73
:103CB0008200B8EEC11A90ED002ADFED2F2A01EE46
:103CC000222AB0EE001A72EE200A40EE010A31EE0E
:103CD000A00A10BDF7EE000A9FED291A30EE600A27
:103CE000DFED260A00EE201ADFED260A60EE001A4C
:103CF00040EE010A9FED241A00EE201A61EE810ABF
:103D000030EE200A10BD4FF07F41B1EB400F03D2DF
:103D1000BDE8104000F0A2B9B0F1FF4F08BF10BDE0
:103D2000B5EEC00AF1EE10FA06D2012000F06CFAEE
:103D3000BDE8104000F096B9B5EEC00AF1EE10FAF9
:103D400007D1022000F060FA00F07EF9B1EE400ADF
:103D500010BDDFED0E0A6FF0160320EE200A10EE04
:103D6000100A69E766F1CC3EAAAA2A3F8820000023
:103D70000070313F8C200000F4FD053821ED423EFB
:103D80000A1180BEC1ABAA3EFFFFFFBE0000004B80
:103D900000B510EE101A2DED028B81B0524A684624
:103DA000B2EB410F2ED94FF0E640B0EB410F94BF7C
:103DB00000204FF0FF3000900098B0EE408A0028BD
:103DC0006ADB10F0010F4BD068EE080A9FED471A2E
:103DD0009FED470A00EE810A9FED461A10F0020F90
:103DE00000EE801AB7EE000A00EE810A02BF01B0B1
:103DF000BDEC028B00BD00BF01B0B1EE400ABDECCE
:103E0000028B00BD3C4B21F00042934241D911F09E
:103E1000004FDFED3A0A20EE201ADFED390A19BF14
:103E200031EE601A71EE200A31EE201A71EE600A4E
:103E3000BDEEE01A11EE100A9FED321A00F00300F9
:103E400000EEC10A9FED301A009000EEC10A9FED0E
:103E50002F1A00EEC10A9FED2E1A00EEC10AABE741
:103E600028EE080A9FED2B1ADFED2B0A10F0020F47
:103E700040EE410A9FED291A00EE201A61EE000A79
:103E8000B0EE480A08EE200AB6D101B0BDEC028BB4
:103E900000BD00F0FFF88FE718EE100A4000B0F107
:103EA0007F4F0DD218EE100AFFF7FDFC042808BF63
:103EB00000F0E8F8B0EE480A01B0BDEC028B00BD9E
:103EC00009D1012000F0A0F901B0BDEC028B5DF832
:103ED00004EB00F0C7B801B0B0EE480ABDEC028BAD
:103EE0005DF804EB00F0BAB8B61F927EB93AB2BAE8
:103EF000CA9F2A3DDDFFFFBE490E494683F9223F96
:103F00000000004B0000C93F00A0FD390020A23393
:103F10001A61342C336D4C39DA82083CA0AA2ABECF
:103F200010B54FF07F402DED028BB0EE408A18EEB9
:103F3000104AB0EEC80AB0EB440F3BD94FF0FE4038
:103F4000B0EB440F16D83A48B0EB440F3AD3FFF722
:103F500075FDB7EE001AC1EE000A30EE600AF6EE0B
:103F6000000A20EE208A00BF14F0004F18BFB1EE07
:103F7000488A1AE04FF0E640B0EB440F4FD868EEA5
:103F8000080A9FED2C0ADFED2C1A9FED2C1A00EE8B
:103F9000A10A30EE811AC0EE011A21EEA00AF0EE5D
:103FA000480A48EE000AB0EE608AB0EE480ABDEC5E
:103FB000028B10BDB0EE480ABDEC028BBDE810408C
:103FC00000F04CB8DFED1E0A30EE600AFFF736FD58
:103FD000DFED1C0AB0EE408A00EE208A18EE100ACF
:103FE000B0F1FF4FC0D118EE100A4FF07F41B1EB96
:103FF000400FB9D314F0004F18BFB1EE488A022029
:1040000000F002F900F036F810EE101A18EE100A5F
:10401000BDEC028B61F31E0000EE100A10BD18EE1D
:10402000100AFFF740FC042808BF00F02BF8BCE79B
:104030009E585D85F069E4C0C2E642BE934F2BC234
:104040000073313F97086837DFED030AB7EE001AB7
:1040500081EE200A704700000000000030EE000AE8
:1040600070470000DFED020A80EEA00A70470000F2
:10407000000000009FED020A20EE000A70470000D9
:10408000000000709FED020A20EE000A7047000059
:10409000000000102DE9F0014FF07F42B2EB410F1C
:1040A0009FBF4FF0FF310160BDE8F00170474FF056
:1040B000004242EA0123C1F3C752783A551112F087
:1040C0001F0C434CCCF120067C44C1F3C752A2F133
:1040D00078024FEA621204EB820254F8254008BFCE
:1040E000D2E9015612D0556804FA0CF425FA06F705
:1040F0003C43976805FA0CF527FA06F8D26807FAE8
:104100000CFCF24045EA08054CEA0206A4FB034C0D
:10411000A5FB0352A6FB03631D449D4234BF012649
:1041200000261319334416B1934202D903E0934297
:1041300001D2012200E00022624402F1200C92062A
:10414000DC0C42EA443200EE102A5B03DFED210A68
:10415000F8EEC01A00EE103A4FEA9C1C11F0004F26
:10416000B8EE400AC0F800C020EE201A00EE105A47
:10417000DFED190AB8EE400A20EE200A71EE810A3E
:1041800070EE800A10EE902A02F500626FF30B02C7
:1041900000EE902A70EEE11A31EEC11ADFED101A2E
:1041A00030EE411A9FED0D0A20EE800A01EE210A41
:1041B0009FED0C1A00EE810A04BFBDE8F0017047C4
:1041C000CCF180510160BDE8F001B1EE400A7047CA
:1041D000BC1C0000000000360000802C22AAFD2933
:1041E000DB0FC92F0000C92F02E008C8121F08C149
:1041F000002AFAD170477047002001E001C1121F68
:10420000002AFBD170470000014908607047000098
:10421000B4000020F0EE400A90ED050A90ED001A7F
:10422000D0ED011A01EE200A90ED061A01EEA01A57
:10423000D0ED031A01EEC01A80ED051A90ED021AB6
:1042400061EE200A90ED041A41EE400AC0ED060A24
:1042500070470000024901200968086370470000A8
:104260006002002010B504462DED068BB0EE61AA69
:10427000F0EE419ADFED281A60EEA10A80EE809AF6
:10428000B0EE490AFFF784FDB0EE408AB0EE490A6D
:10429000FFF72CFBF0EE408AB0EE000AFFF7C2FCFD
:1042A000F6EE000A20EE200A20EE290A60EE090A46
:1042B00080EE880AFFF734FEF0EE000A20EE080ACE
:1042C0002AEE201AF7EE001AC0EE010A30EEA11A0B
:1042D00081EE810A20EE801A20EEC02A71EEE00AFB
:1042E00084ED001A9FED0D1A84ED011A84ED022A67
:1042F000B8EE002A28EE822A22EE002A20EE800A5A
:1043000084ED032A84ED040A84ED061A84ED051A6F
:10431000BDEC068B10BD0000DB0FC94000000000A3
:10432000FDF784F9FFF719F8FEF7B6FDFEF734FE46
:10433000FEF7A0FCFEF708FEFEF70EFDFEF74AFDB5
:104340002248FCF771FB21480068416841F02001D8
:10435000416000211E48FEF79FFB00211C48FEF72C
:10436000B9F804211A48FEF797FB04211848FEF714
:10437000B1F808211648FEF78FFB08211448FEF714
:10438000A9F80C211248FEF787FB114C2068C16880
:1043900041F00101C160216840F616500864002216
:1043A00005213420FDF7C2F93420FDF7B1F9216869
:1043B00000204863216888632168C86300F068F8BA
:1043C000FEF752FD00F076F8FEE70000B80000208E
:1043D00060020020DFED051AB1EE041AF3EE040AC4
:1043E0009FED030A0348FFF73DBF0000F4FD343F93
:1043F00000007A44141C002010B5184CDFED180A98
:10440000184994ED020A30EE200A10EE100A84EDED
:10441000020A884205DBDFED140A30EE600A84ED03
:10442000020A94ED040AF0EE000A20EE200ADFED05
:104430000F0A20EE200AD4ED020A20EE200AFBF734
:104440007FFFD4ED030A0A4830EE200A84ED000A0B
:10445000FFF7E0FE84ED010A10BD0000A00000207F
:104460006F12833A00007A4400007A44DB0F49401F
:10447000141C002010B5EFF3058111B16FF0050495
:1044800003E0002408B100F0F1FD204610BD00005B
:10449000EFF3058010B16FF0050070470448016824
:1044A00011B14FF0FF3070470121016000207047CB
:1044B0006C00002010B5EFF3058010B16FF005001F
:1044C00010BD08480168012902D04FF0FF3010BD2F
:1044D000054A002182F8141D0221016000F076FED9
:1044E000002010BD6C0000200BE000E02DE9FF4132
:1044F0000B464FF00005EFF30581039549BB40B330
:104500008026182100244AB3176807B13C469769F2
:1045100007B139464F1E382F02D21779FF0703D053
:10452000002004B0BDE8F081576907B1BE08D2F899
:1045300008C0BCF1000F0DD0D5685C2D18D31269EE
:104540003AB137B18DE806103246214601F0D7F96D
:1045500003900DE0D7685FB912694AB903AACDE9A3
:104560000012B2B2214601F09DF9012800D0039556
:104570000398D6E72DE9F041134E0F460446F5683F
:104580003068001D00F040FC601C07D137B1316875
:10459000BDE8F0410D48091D00F086BC30682C4490
:1045A000AC424460316805D2B06BBDE8F041091DF2
:1045B00000F062BC706B091D00F05EFCB06A8442C2
:1045C00000D2B462BDE8F0811C000020E8070020A2
:1045D0002DE9F041054600F073FC2D4EB068401CFB
:1045E000B06030682B4F10B1706930B32BE035608C
:1045F000B068012827D1002404EB840007EB800079
:1046000000F02CFC641C382CF6D3234800F026FC68
:104610002148143000F022FC1F48283000F01EFC16
:104620001D483C3000F01AFC1B48503000F016FCCE
:10463000194870631430B06305E03068E96AC06AF5
:10464000884200D83560706A401C70626864E86A0D
:104650003169884200D9306100EB800007EB8000AF
:10466000291D00F021FC00F04BFC706900280CD0E3
:104670003068E96AC06A884207D208494FF0805022
:104680000860BFF34F8FBFF36F8FBDE8F08100006C
:104690001C000020380300209807002004ED00E0F3
:1046A00038B500F00DFC104C2068C8B90F4800F078
:1046B000D5FB0E48143000F0D1FB0C48E0601430FC
:1046C00020610A4B0020F03B009003F150021021C2
:1046D0000A2000F087FE206010B105A100F092FCD6
:1046E000BDE8384000F00CBC58000020EC08002069
:1046F000546D72510000000030B4026C0B46002A69
:104700000BD0C1681144C1608468A14201D3016823
:10471000C16030BC1846FBF7DDBD30BC70472DE9E9
:10472000F041856B174604460026026C82B1C7B182
:10473000E068FBF7CFFDE168206C091AE1602268B0
:10474000914202D2A168081AE060022F16D017E049
:104750002068A8B9A06801F077F906460020A0609B
:104760000EE06068FBF7B6FD216C6068084460608D
:10477000A168884204D32068606001E005B16D1E25
:104780006D1CA5633046BDE8F08110B5044690F875
:10479000590058B101280CD002280FD0502080F3C6
:1047A0001188BFF34F8FBFF36F8FFEE7206B00F0D0
:1047B000BBFB2046BDE8104000F0B6BB10BD0000BA
:1047C00010484FF44061420706D0C01D0D4920F04B
:1047D0000700411AC1F540610B4A00230144C2E9B8
:1047E00000030839183A21F0070111604B600B6093
:1047F0000B1AC0E9001393604FF000405360506102
:1048000070470000CC0F002088000020134E144D8C
:10481000A6F29C474FF08058DFF8489011E000F076
:104820004FFBF068C468201D00F0EEFAA868401E37
:10483000A8606868401E686000F062FB2046FFF7D1
:10484000A4FF68680028EAD138680128F9D9C9F8B6
:104850000080BFF34F8FBFF36F8FF2E7D4070020C4
:104860001C00002004ED00E070B51D46049C49B119
:104870002260C4E90F010121204600F0E7FD84F821
:104880004C5070BD2460F4E72DE9F05F0E46DDE981
:104890000B941746834691009A460A9DA522206BE9
:1048A000FBF72AFD6FF00301206B01EB8701084441
:1048B00020F00707780707D0502080F31188BFF356
:1048C0004F8FBFF36F8FFEE74FF0000866B10020F7
:1048D0002218315C82F83410315C11B1401C102870
:1048E000F6D384F8438001E084F83480382D00D377
:1048F0003725E562C4E91358201D00F0BAFA04F127
:10490000180000F0B6FA2461C5F138006462A061B5
:10491000C4F8548084F8588052465946384600F00E
:104920005DFA2060B9F1000F01D0C9F80040BDE880
:10493000F09F000030B5114900E011460A6882423C
:10494000FBD34B685C18844203D14068184448602C
:10495000084643681C18944209D1084C183C246846
:10496000A24209D052681A4442600A681268026082
:10497000814200D0086030BD0460F9E78800002063
:1049800070B5002441600B4D0061914206D8D11AE8
:104990008269914206D2011D286907E09A4203D23A
:1049A000994201D3012403E0011DE86800F064FA94
:1049B000204670BD5800002010B5044600F080FA73
:1049C000A06B20B1002400F09BFA204610BD01240A
:1049D000F9E7000030B587B03C4D6EE00198002843
:1049E00006DADDE90301029A90470198002864DBAA
:1049F000039C606910B1201D00F006FA05A800F0C4
:104A0000D7F8024601980A2857D2DFE800F00505DA
:104A1000052D334A05052D3394F8280040F0010098
:104A200084F828000298A169034601442046FFF754
:104A3000A7FF68B3216A2046884794F828004007FA
:104A40003BD5002000900298A16900234218194626
:104A5000204601F0FFF8D8B9502080F31188BFF349
:104A60004F8FBFF36F8FFEE714F8280F20F001007F
:104A7000207022E094F8280040F0010084F828001B
:104A80000298A06128B1811813462046FFF778FFED
:104A900013E0502080F31188BFF34F8FBFF36F8F67
:104AA000FEE794F82800810703D4204600F03CFA82
:104AB00003E020F0010084F82800002201A9286802
:104AC00000F01AFE002889D107B030BD5800002040
:104AD0002DE9FC410F46054600F0BAFB01A800F0A5
:104AE00067F80446019818B101F024F8BDE8FC818C
:104AF000254EAFB130690068D0B30027291B3A4674
:104B0000306800F091FA01F015F80028EED11F4945
:104B10004FF080500860BFF34F8FBFF36F8FE5E712
:104B2000A542EBD801F006F8F0682746C068C468D3
:104B3000201D00F069F994F82800410719D5A069F3
:104B40002B4641193A462046FFF71AFFA8B100202C
:104B50000346014600902A46204601F07BF860B9E2
:104B6000502080F31188BFF34F8FBFF36F8FFEE7A4
:104B700007E020F0010084F82800216A20468847D9
:104B8000B4E70127BAE700005800002004ED00E078
:104B90000648416B096829B1416BC968C968496811
:104BA000816270474FF0FF31FAE700001C000020DF
:104BB00070B5054600F0DEFE064E0446B06884423D
:104BC00003D200F009F8012000E000202860204610
:104BD000B46070BD58000020F8B5194E20E0C068E0
:104BE000C4680568201D00F00FF9216A2046884737
:104BF00094F82800400713D5A0692844A84206D994
:104C000024616060211DF06800F036F908E00020A2
:104C10000346014600902A46204601F01BF838B1B1
:104C2000F06801680029DAD13169C6E90310F8BDDE
:104C3000502080F31188BFF34F8FBFF36F8FFEE7D3
:104C40005800002008484068401C4FF0500080F396
:104C5000118804D0BFF34F8FBFF36F8FFEE7BFF310
:104C60004F8FBFF36F8FFEE790000020084CE06885
:104C7000016839B1002139B10020FFF729FFFFF7A2
:104C8000A9FEF4E70121F6E7C0680068F5E7000037
:104C9000580000202DE9F041044600F011F994F984
:104CA000455004F1240609E0606A48B1304600F03E
:104CB00009FF08B100F050FA6D1E6DB2002DF3DC53
:104CC0004FF0FF3684F8456000F01AF900F0F8F86C
:104CD00094F9445004F1100709E0206948B13846BE
:104CE00000F0F0FE08B100F037FA6D1E6DB2002D35
:104CF000F3DC84F84460BDE8F04100F001B9000045
:104D00002DE9F0410546002600F0A2FA324F38683E
:104D100008B9FFF755FD786905424ED1C5B308358E
:104D200068070ED005F00700C0F1080005446807C9
:104D300007D0502080F31188BFF34F8FBFF36F8FE0
:104D4000FEE72DB37868854237D8234918310846E5
:104D5000046801E0214604466068A84202D2206847
:104D60000028F7D13868844227D00E682068086090
:104D700060680836411B10290FD96019420708D016
:104D8000502080F31188BFF34F8FBFF36F8FFEE782
:104D900013E041606560FFF7CDFD61687868401AF7
:104DA0007860BA68904200D2B86078690143002008
:104DB000C4E90001F868401CF86000F0BBFE700711
:104DC00007D0502080F31188BFF34F8FBFF36F8F50
:104DD000FEE73046BDE8F0817000002010B5031FEB
:104DE0004FF080741C601B1F21F001011960191F16
:104DF000044B0B6014390A60091F6FF0020244383B
:104E00000A6010BD454C0008D0E9013201699A6082
:104E1000D0E901235A604A68824201D182684A601F
:104E2000002202610868401E0860086870470000A0
:104E3000034B036003F15C00086080201060704742
:104E400014090020044B036003F15C0008604FF478
:104E50008070106070470000700B002000F10801A6
:104E60004FF0FF32C0E90112C16001610021016011
:104E7000704700210161704730B50C68621C02D098
:104E800000F1080202E0026904E01A4653681D6856
:104E9000A542FAD953684B6099608A6051600861F5
:104EA0000168491C016030BD42684A6093688B60AC
:104EB00093685960916008610168491C01607047FE
:104EC000502080F31188BFF34F8FBFF36F8F0A49D3
:104ED0004868401C486001280CD10848006810F060
:104EE000FF0F07D0502080F31188BFF34F8FBFF31F
:104EF0006F8FFEE7704700009000002004ED00E097
:104F00000849486828B1401E486001D180F31188E3
:104F10007047502080F31188BFF34F8FBFF36F8F1E
:104F2000FEE700009000002070B500282AD0164D42
:104F3000A0F1080460686969084207D1502080F335
:104F40001188BFF34F8FBFF36F8FFEE722683AB12E
:104F5000502080F31188BFF34F8FBFF36F8FFEE7B0
:104F60008843606000F074F96068696808446860AC
:104F70002046FFF7DFFC2869401C2861BDE870402F
:104F800000F0D8BD70BD0000700000204FF0E020A0
:104F900000210161816105494FF47A720968B1FB12
:104FA000F2F1491E4161072101617047180000209C
:104FB00010B5FBF779F9114910280ED300F1E02064
:104FC00090F8F0030A78904207D2502080F31188BD
:104FD000BFF34F8FBFF36F8FFEE709480068896802
:104FE00000F4E060884207D9502080F31188BFF3B5
:104FF0004F8FBFF36F8FFEE710BD000090000020C1
:105000000CED00E010B5074B002253F832401CB104
:10501000521C082AF9D310BD43F8321003EBC20129
:10502000486010BDF802002070B515460E460446D3
:10503000FFF746FF94F944100020491C01D184F881
:10504000440094F94510491C01D184F84500FFF74C
:1050500057FFA06B28B92A46314604F1240000F01E
:1050600099F82046BDE87040FFF714BE10B5020065
:1050700014D00F48006B38B1502080F31188BFF373
:105080004F8FBFF36F8FFEE700F0E2F8002110466C
:10509000FFF770FA00F04EFD002807D105494FF0E8
:1050A00080500860BFF34F8FBFF36F8F10BD0000BB
:1050B0001C00002004ED00E070B50E4605004FF026
:1050C00000030BD096B11E4A106BB8B1502080F38C
:1050D0001188BFF34F8FBFF36F8FFEE7502080F32F
:1050E0001188BFF34F8FBFF36F8FFEE7502080F31F
:1050F0001188BFF34F8FBFF36F8FFEE700F0A8F862
:10510000D2682C68A119944202D98C4202D804E0DA
:105110008C4201D8914200D9012329601BB1881A21
:105120000021FFF727FA00F005FD002807D1054907
:105130004FF080500860BFF34F8FBFF36F8F70BD8B
:105140001C00002004ED00E002490A6A0260C96800
:10515000416070471C00002001490120C861704770
:105160001C00002010B50C4650B1094909681831DF
:10517000FFF782FE2046BDE810400121FFF7FAB993
:10518000502080F31188BFF34F8FBFF36F8FFEE77E
:105190001C00002070B514460D4668B10A49096824
:1051A0001831FFF781FE0CB14FF0FF35214628463C
:1051B000BDE87040FFF7DEB9502080F31188BFF3DF
:1051C0004F8FBFF36F8FFEE71C00002030B587B014
:1051D0000025039505AA04A903A80495FFF728FE56
:1051E000DDE903010095CDE90110002314A1164863
:1051F000059A00F084FB154CE06218B100F0FAFC4F
:10520000012809D0401C19D1502080F31188BFF328
:105210004F8FBFF36F8FFEE7502080F31188BFF3ED
:105220004F8FBFF36F8F4FF0FF30A062012060619E
:10523000E56007B0BDE8304000F044B807B030BDCD
:1052400049444C45000000000D4800081C000020A7
:105250000248016B491C0163704700001C000020DC
:10526000164B10B5186B10B10120D86110BD00208D
:10527000D8611869124901E0B8B1401E00EB800204
:1052800051F82220002AF7D000EB800201EB8201C6
:1052900001F108044A6852684A60A24201D152688A
:1052A0004A60D1681960186110BD502080F31188E0
:1052B000BFF34F8FBFF36F8FFEE700001C0000208D
:1052C000380300201CB537480168374A914207D19E
:1052D000502080F31188BFF34F8FBFF36F8FFEE72D
:1052E00000683149491E884207D1502080F3118857
:1052F000BFF34F8FBFF36F8FFEE72C490878019003
:10530000FF20087008788DF800009DF800009DF8D7
:10531000002000F0F000904207D0502080F3118868
:10532000BFF34F8FBFF36F8FFEE79DF80000204C57
:1053300000F0500020700720A06006E0401EA06032
:105340009DF8000040008DF800009DF80000000668
:10535000A068F3D4032807D0502080F31188BFF34E
:105360004F8FBFF36F8FFEE74FF44070A06001983E
:1053700008700C482030016841F470010160016838
:1053800041F070410160FFF701FE00206060FAF714
:1053900053FF0848016841F040410160FAF738FFC7
:1053A00000201CBD00ED00E071C20F4100E400E0F0
:1053B0009000002034EF00E010B5502080F31188F9
:1053C000BFF34F8FBFF36F8F00F0DAFA18B10449C3
:1053D0004FF080500860002080F3118810BD00005D
:1053E00004ED00E038B5049D18B153B1CAB181B1E4
:1053F00020E0502080F31188BFF34F8FBFF36F8FF1
:10540000FEE7502080F31188BFF34F8FBFF36F8FFB
:10541000FEE7502080F31188BFF34F8FBFF36F8FEB
:10542000FEE739B1502080F31188BFF34F8FBFF3EF
:105430006F8FFEE750241C46012384F846302B462C
:105440000094FFF711FA204638BD000070B50D46F4
:10545000040025D0FFF734FDD4E90F20216802FBBA
:105460000011A1600021A163216861600A46D4E9AE
:105470000F01401E00FB0121E16021464FF0FF308B
:1054800001F8440F487004F110008DB1FFF7E6FCFD
:1054900004F12400FFF7E2FCFFF732FD012070BDAC
:1054A000502080F31188BFF34F8FBFF36F8FFEE75B
:1054B00021690029F0D000F005FB0028ECD0044958
:1054C0004FF080500860BFF34F8FBFF36F8FE3E75B
:1054D00004ED00E02DE9FF4F83B01F468B4604002A
:1054E0004FF0000603D0BBF1000F08D011E05020B0
:1054F00080F31188BFF34F8FBFF36F8FFEE7206CEF
:1055000038B1502080F31188BFF34F8FBFF36F8FF6
:10551000FEE7022F0AD1E06B012807D0502080F36C
:105520001188BFF34F8FBFF36F8FFEE700F014FABF
:10553000DFF800914FF0000A4FF0805848B9059805
:1055400038B1502080F31188BFF34F8FBFF36F8FB6
:10555000FEE7FFF7B5FCA06BE16B884205D3022F95
:1055600003D00598C8B1DEB11EE03A465946204640
:10557000FFF7D5F8616A19B104F1240000F0A2FA2E
:1055800028B1C9F80080BFF34F8FBFF36F8FFFF7CB
:10559000B7FC012007B0BDE8F08FFFF7B1FC21E0B8
:1055A0006846FFF7D1FD0126FFF7AAFCFFF750FE82
:1055B000FFF786FC94F94400401C01D184F844A014
:1055C00094F94500401C01D184F845A0FFF798FCF0
:1055D00005A9684600F02CF930B12046FFF75AFBC8
:1055E00000F0A8FA0020D5E7FFF76AFCA06BE16B9A
:1055F000884201D1012500E00025FFF781FC95B12B
:1056000004F110000599FFF7ADFD2046FFF742FBBE
:1056100000F090FA00289CD1C9F80080BFF34F8FAA
:10562000BFF36F8F95E72046FFF734FB00F082FA57
:105630008FE7000004ED00E02DE9F0471F4690469B
:105640008946040003D0B9F1000F08D011E05020C2
:1056500080F31188BFF34F8FBFF36F8FFEE7206C8D
:1056600038B1502080F31188BFF34F8FBFF36F8F95
:10567000FEE7022F0AD1E06B012807D0502080F30B
:105680001188BFF34F8FBFF36F8FFEE7FFF790FCDA
:105690005020EFF3118680F31188BFF34F8FBFF3D3
:1056A0006F8FA06BE16B884206D3022F04D00020DD
:1056B00086F31188BDE8F08794F94550A06B3A460F
:1056C00049462046FFF72BF8681C04D06D1C84F86F
:1056D00045500120ECE7606A0028FAD004F124006C
:1056E00000F0F0F90028F4D0B8F1000FF1D001215A
:1056F000C8F80010EDE700002DE9F74783B08A46AF
:1057000004004FF0000603D0BAF1000F08D011E0FA
:10571000502080F31188BFF34F8FBFF36F8FFEE7E8
:10572000206C38B1502080F31188BFF34F8FBFF346
:105730006F8FFEE700F010F9DFF8F09000274FF0D0
:10574000805848B9059838B1502080F31188BFF3CC
:105750004F8FBFF36F8FFEE7FFF7B2FBA56BC5B1AD
:1057600051462046FEF7C8FF6D1EA563206950B163
:1057700004F1100000F0A6F928B1C9F80080BFF3C9
:105780004F8FBFF36F8FFFF7BBFB012006B0BDE863
:10579000F087059808B11EB106E0FFF7B1FB27E0DE
:1057A0006846FFF7D1FC0126FFF7AAFBFFF750FD83
:1057B000FFF786FB94F94400401C01D184F8447043
:1057C00094F94500401C01D184F84570FFF798FB1F
:1057D00005A9684600F02CF8002820460AD0FFF7FB
:1057E00059FA00F0A7F92046FFF7E6F80028B3D0F1
:1057F0000020CBE7FFF7E0F890B104F12400059911
:10580000FFF7B0FC2046FFF745FA00F093F90028B7
:10581000A2D1C9F80080BFF34F8FBFF36F8F9BE712
:105820002046FFF737FA00F085F995E704ED00E030
:105830002DE9F0410C46050011D0C4B1FFF740FB43
:10584000174EF1686B682268C81A571C17D02F686A
:10585000366AB74219D08B4217D8012410E0502085
:1058600080F31188BFF34F8FBFF36F8FFEE7502097
:1058700080F31188BFF34F8FBFF36F8FFEE70024D3
:10588000FFF73EFB2046BDE8F081824205D9101AA1
:1058900020602846FFF758FCF1E700202060DCE795
:1058A0001C0000202DE9FF5F8346DDE90E87994645
:1058B00016468A469000FFF723FA05001CD05C20AC
:1058C000FFF71EFA040014D00020256384F8590065
:1058D000CDE90240CDE900874B4632465146584655
:1058E000FEF7D2FF2046FEF773FE012004B0BDE8AC
:1058F000F09F2846FFF718FB4FF0FF30F6E7F0B5B2
:1059000085B00546DDE90B040A9EA8B1E4B15C2729
:1059100000972063022084F859000020CDE902405E
:1059200004AF2846CDE90067FEF7AEFF2046FEF73C
:105930004FFE049805B0F0BD502080F31188BFF3EE
:105940004F8FBFF36F8FFEE7502080F31188BFF3B6
:105950004F8FBFF36F8FFEE70548416919B1006BA8
:1059600018B10020704701207047022070470000E6
:105970001C0000200148C068704700001C00002087
:105980002DE9F0412E4F0026386B28B1B869401C34
:10599000B8613046BDE8F081FD686D1CFD6013D133
:1059A000786B006838B1502080F31188BFF34F8FB7
:1059B000BFF36F8FFEE7786BB96B7963B863386AB2
:1059C000401C3862FFF7E4F8B86ADFF87880854257
:1059D00009D3786B0068A0B1786BC068C468606850
:1059E000854211D2B8623868C06A00EB800158F86D
:1059F0002100012800D90126F8690028C9D0012614
:105A0000C7E74FF0FF30EDE7201DFFF7FDF9A06A73
:105A100018B104F11800FFF7F7F9E06A3969884214
:105A200000D9386100EB800108EB8100211DFFF7F0
:105A30003BFAE06A3968C96A8842CAD30126C8E7D6
:105A40001C0000203803002070B504004FF0000057
:105A50002BD01A4D29688C4207D0502080F3118832
:105A6000BFF34F8FBFF36F8FFEE7216DF1B1491E7A
:105A70002165E36CE26A9A4217D0002915D1201DF6
:105A8000FFF7C2F9E06CE062C0F13800A061E06AA3
:105A90002969884200D92861094900EB800001EB9F
:105AA0008000211DFFF700FA012070BD502080F317
:105AB0001188BFF34F8FBFF36F8FFEE71C000020EC
:105AC0003803002070B5C068C46854B104F11800F0
:105AD0000646FFF799F9144D286B50B1314613482B
